:100000000C942A000C94A20A0C94B20A0C94C20A12
:100010000C9447000C9447000C9447000C94470044
:100020000C9447000C9447000C9447000C94470034
:100030000C9447000C9447000C9447000C94470024
:100040000C9447000C9447000C9447000C94470014
:100050000C94470011241FBECFE5D8E0DEBFCDBF12
:1000600010E0A0E6B0E0E2E2FDE302C005900D92F0
:10007000AA36B107D9F710E0AAE6B0E001C01D9298
:10008000AB36B107E1F70E94DE120C948F1E0C9480
:100090000000EF92FF920F931F937B018C0120E0F1
:1000A00030E040E05FE40E94F50388238CF0C80153
:1000B000B70120E030E040E05FE40E94C1010E940F
:1000C00055049B01AC01205030404040504806C0D0
:1000D000C801B7010E9455049B01AC01B901CA01D6
:1000E0001F910F91FF90EF900895A0E0B0E0EBE733
:1000F000F0E00C94581EDC012B01FA019C91923027
:1001000008F439C1EB018881823008F433C194309E
:1001100069F4843009F02FC111969C91119789815F
:10012000981709F428C1A0E6B0E025C1843009F48D
:1001300021C18230A9F4923009F01DC19A01AD01AC
:1001400088E0EA010990AE01E90109929E0181501F
:10015000C1F7E201898111969C918923818308C1AD
:10016000923009F407C112962D903C901397EB0141
:100170008A819B811496AD90BD90CD90DC901797AD
:10018000EC80FD800E811F819101281B390BB90184
:1001900037FF04C066277727621B730B6032710537
:1001A0000CF061C0121613066CF537014801062EDB
:1001B00004C096948794779467940A94D2F721E0C8
:1001C00030E040E050E004C0220F331F441F551FB1
:1001D0006A95D2F721503040404050402E213F21B7
:1001E00040235123211531054105510521F021E01E
:1001F00030E040E050E079018A01E628F72808293C
:1002000019293CC0232BD1F1260E371E350146019A
:10021000062E04C096948794779467940A94D2F734
:1002200021E030E040E050E004C0220F331F441FC3
:10023000551F6A95D2F721503040404050402A2146
:100240003B214C215D21211531054105510521F04E
:1002500021E030E040E050E059016A01A628B728CB
:10026000C828D9280BC0821593052CF01C01AA249C
:10027000BB24650103C0EE24FF24870111969C91E5
:10028000D20111968C91981709F445C0992339F041
:10029000A80197012A193B094C095D0906C0A6016E
:1002A00095012E193F09400B510B57FD08C01182D3
:1002B0003382228224833583468357831DC081E0A5
:1002C00081833382228288279927DC01821B930B4A
:1002D000A40BB50B84839583A683B7830DC0220F2F
:1002E000331F441F551F24833583468357838281E0
:1002F000938101979383828324813581468157813D
:10030000DA01C9010197A109B1098F5F9F4FAF4F72
:10031000BF4328F30BC0918333822282EA0CFB1C7B
:100320000C1D1D1DE482F5820683178383E0808304
:10033000248135814681578157FF1AC0C901AA27F8
:1003400097FDA095BA2F81709070A070B0705695EF
:10035000479537952795822B932BA42BB52B848318
:100360009583A683B7838281938101969383828349
:10037000DF0101C0D201CD01CDB7DEB7E2E10C94BF
:10038000741EA0E2B0E0E7ECF1E00C94641E698317
:100390007A838B839C832D833E834F835887E9E048
:1003A000EE2EF12CEC0EFD1ECE010196B7010E943F
:1003B0007E058E010F5E1F4FCE010596B8010E948B
:1003C0007E058A8991E089278A8BC701B801AE0131
:1003D000475E5F4F0E9475000E94A904A096E6E068
:1003E0000C94801EA0E2B0E0E8EFF1E00C94641EF3
:1003F00069837A838B839C832D833E834F835887C5
:10040000F9E0EF2EF12CEC0EFD1ECE010196B701A6
:100410000E947E058E010F5E1F4FCE010596B8012A
:100420000E947E05C701B801AE01475E5F4F0E9482
:1004300075000E94A904A096E6E00C94801EA0E23C
:10044000B0E0E5E2F2E00C94581E69837A838B8376
:100450009C832D833E834F835887CE010196BE0136
:10046000675F7F4F0E947E05CE010596BE016F5EDD
:100470007F4F0E947E059985923088F0898982306D
:10048000C8F0943019F4823051F404C0843029F457
:10049000923081F480E690E0C6C0923049F420E0CA
:1004A0009A858A89981321E02A87CE010996BBC0D4
:1004B000823049F420E09A858A89981321E02A8BBA
:1004C000CE014196B0C02D843E844F8458886D88FB
:1004D0007E888F88988CEE24FF248701AA24BB2471
:1004E000650140E050E060E070E0E0E0F0E0C10174
:1004F00081709070892BE9F0E60CF71C081D191D1E
:100500009A01AB012A0D3B1D4C1D5D1D80E090E062
:10051000A0E0B0E0E614F7040805190520F481E036
:1005200090E0A0E0B0E0BA01A901480F591F6A1F8E
:100530007B1FAA0CBB1CCC1CDD1C97FE08C081E0F5
:1005400090E0A0E0B0E0A82AB92ACA2ADB2A3196B6
:10055000E032F10549F0660C771C881C991C569412
:10056000479437942794C3CFFA85EA892B893C892D
:100570008B859C85280F391F2E5F3F4F17C0CA01FE
:1005800081709070892B61F016950795F794E79428
:1005900080E090E0A0E0B0E8E82AF92A0A2B1B2BC3
:1005A00076956795579547952F5F3F4F77FDE7CF36
:1005B0000CC0440F551F661F771F17FD4160EE0CDE
:1005C000FF1C001F111F21503040403090E05907A0
:1005D00090E0690790E4790760F32B8F3C8FDB0193
:1005E000CA018F779070A070B07080349105A1051A
:1005F000B10561F447FD0AC0E114F10401051105DC
:1006000029F0405C5F4F6F4F7F4F40781A8EFE1786
:1006100011F081E08A8F4D8F5E8F6F8F78A383E01A
:10062000898FCE0149960E94A904A096E2E10C941C
:10063000741EA8E1B0E0EFE1F3E00C94601E698362
:100640007A838B839C832D833E834F835887B9E0C5
:10065000EB2EF12CEC0EFD1ECE010196B7010E948F
:100660007E058E010F5E1F4FCE010596B8010E94D8
:100670007E052985223008F47EC03989323010F495
:10068000B8017CC08A859A8989278A87243011F02D
:10069000223031F4231709F06EC060E670E06EC0BE
:1006A000343039F41D861E861F86188A1C861B86E8
:1006B00004C0323021F484E08987B7015FC02B8504
:1006C0003C858B899C89281B390B3C872B87ED84C3
:1006D000FE840F851889AD88BE88CF88D88CEA142F
:1006E000FB040C051D0540F4EE0CFF1C001F111F40
:1006F000215030403C872B8720E030E040E050E044
:1007000080E090E0A0E0B0E460E070E0EA14FB0478
:100710000C051D0540F0282B392B4A2B5B2BEA18C2
:10072000FB080C091D09B695A79597958795EE0CC2
:10073000FF1C001F111F6F5F7F4F6F31710531F775
:10074000DA01C9018F779070A070B0708034910584
:10075000A105B10561F427FD0AC0E114F10401050A
:10076000110529F0205C3F4F4F4F5F4F20782D87B8
:100770003E874F87588BBE01675F7F4FCB010E943A
:10078000A9046896EAE00C947C1EA8E1B0E0EBECCA
:10079000F3E00C94641E69837A838B839C832D839E
:1007A0003E834F83588789E0E82EF12CEC0EFD1E26
:1007B000CE010196B7010E947E058E010F5E1F4F8C
:1007C000CE010596B8010E947E058985823040F0F1
:1007D0008989823028F0C701B8010E94F60501C05E
:1007E0008FEF6896E6E00C94801EA8E1B0E0EBEF96
:1007F000F3E00C94641E69837A838B839C832D833E
:100800003E834F83588789E0E82EF12CEC0EFD1EC5
:10081000CE010196B7010E947E058E010F5E1F4F2B
:10082000CE010596B8010E947E058985823040F090
:100830008989823028F0C701B8010E94F60501C0FD
:100840008FEF6896E6E00C94801EA8E1B0E0EBE242
:10085000F4E00C94641E69837A838B839C832D83DC
:100860003E834F83588789E0E82EF12CEC0EFD1E65
:10087000CE010196B7010E947E058E010F5E1F4FCB
:10088000CE010596B8010E947E058985823040F030
:100890008989823028F0C701B8010E94F60501C09D
:1008A00081E06896E6E00C94801EACE0B0E0EBE5F9
:1008B000F4E00C94681E69837A838B839C83CE0159
:1008C0000196BE016B5F7F4F0E947E058D81823055
:1008D00061F1823050F1843021F48E81882351F10E
:1008E0002EC02F81388537FD20C06E812F31310514
:1008F0001CF06623F9F023C08EE190E0821B930B7D
:1009000029853A854B855C8504C056954795379572
:1009100027958A95D2F76623B1F05095409530958A
:1009200021953F4F4F4F5F4F0EC020E030E040E039
:1009300050E009C02FEF3FEF4FEF5FE704C020E02A
:1009400030E040E050E8B901CA012C96E2E00C9496
:10095000841EDF92EF92FF920F931F93FC01E480BD
:10096000F58006811781D1808081823048F480E053
:1009700090E0A0E1B0E0E82AF92A0A2B1B2BA5C0E1
:10098000843009F49FC0823021F4EE24FF248701D3
:1009900005C0E114F1040105110519F4E0E0F0E0EF
:1009A00096C0628173819FEF623879070CF05BC05B
:1009B00022E83FEF261B370B2A3131052CF020E0CF
:1009C00030E040E050E02AC0B801A701022E04C088
:1009D00076956795579547950A94D2F781E090E010
:1009E000A0E0B0E004C0880F991FAA1FBB1F2A9582
:1009F000D2F70197A109B1098E219F21A023B1232C
:100A00000097A105B10521F081E090E0A0E0B0E001
:100A10009A01AB01282B392B4A2B5B2BDA01C90138
:100A20008F779070A070B07080349105A105B105EA
:100A300039F427FF09C0205C3F4F4F4F5F4F04C080
:100A4000215C3F4F4F4F5F4FE0E0F0E02030A0E0EF
:100A50003A07A0E04A07A0E45A0710F0E1E0F0E00E
:100A600079018A0127C06038710564F5FB01E158FE
:100A7000FF4FD801C7018F779070A070B07080349D
:100A80009105A105B10539F4E7FE0DC080E490E0C1
:100A9000A0E0B0E004C08FE390E0A0E0B0E0E80E9A
:100AA000F91E0A1F1B1F17FF05C016950795F7941F
:100AB000E794319687E016950795F794E7948A9521
:100AC000D1F705C0EE24FF248701EFEFF0E06E2F91
:100AD000679566276795902F9F77D794DD24D794E5
:100AE0008E2F8695492F462B582F5D29B701CA01B5
:100AF0001F910F91FF90EF90DF900895FC01DB01B3
:100B0000408151812281622F6F7770E0221F22275E
:100B1000221F9381892F880F822B282F30E0991F65
:100B20009927991F11969C93119721153105A9F5C5
:100B3000411551056105710511F482E037C082E865
:100B40009FEF13969C938E9312979A01AB0167E0E7
:100B5000220F331F441F551F6A95D1F783E08C93F2
:100B60000DC0220F331F441F551F12968D919C916B
:100B70001397019713969C938E931297203080E0E1
:100B8000380780E0480780E4580758F314962D93FF
:100B90003D934D935C93179708952F3F310579F45A
:100BA000411551056105710519F484E08C93089590
:100BB00064FF03C081E08C9312C01C9210C02F57B9
:100BC000304013963C932E93129783E08C9387E0EA
:100BD000440F551F661F771F8A95D1F770641496CE
:100BE0004D935D936D937C93179708951F93DC014C
:100BF000FB019C91923008F447C08081823008F458
:100C000043C0943051F411961C91843099F5818140
:100C1000682F70E0611B71093FC0843021F0923071
:100C200031F48230B9F18181882389F12DC0119688
:100C30001C9111978230F1F081811817D9F4129626
:100C40002D913C911397828193818217930794F0A1
:100C500028173907BCF014968D919D910D90BC9189
:100C6000A02D2481358146815781281739074A07ED
:100C70005B0718F4112341F00AC082179307A407F9
:100C8000B50740F4112319F061E070E005C06FEF83
:100C90007FEF02C060E070E0CB011F910895DF9309
:100CA000CF93CDB7DEB727970FB6F894DEBF0FBE50
:100CB000CDBF89836A834B838B81813009F06FC0FC
:100CC0008981282F30E03F832E838E819F81813060
:100CD000910549F12E813F81223031052CF48E811E
:100CE0009F81009761F0D2C02E813F812230310573
:100CF00071F18E819F8183309105E9F1C7C0AAE32C
:100D0000B0E0EAE3F0E08081482F8A81282F30E0CC
:100D100081E090E0022E02C0880F991F0A94E2F74A
:100D2000842B8C93B3C0A7E3B0E0E7E3F0E08081CD
:100D3000482F8A81282F30E081E090E0022E02C007
:100D4000880F991F0A94E2F7842B8C939FC0A4E329
:100D5000B0E0E4E3F0E08081482F8A81282F30E082
:100D600081E090E0022E02C0880F991F0A94E2F7FA
:100D7000842B8C938BC0A1E3B0E0E1E3F0E08081B1
:100D8000482F8A81282F30E081E090E0022E02C0B7
:100D9000880F991F0A94E2F7842B8C9377C08B817C
:100DA000882309F073C08981282F30E03D832C838C
:100DB0008C819D818130910559F12C813D812230BA
:100DC00031052CF48C819D81009769F05FC02C81E6
:100DD0003D812230310589F18C819D8183309105DF
:100DE00009F440C053C0AAE3B0E0EAE3F0E0808138
:100DF000482F8A81282F30E081E090E0022E02C047
:100E0000880F991F0A94E2F7809584238C933EC043
:100E1000A7E3B0E0E7E3F0E08081482F8A81282F44
:100E200030E081E090E0022E02C0880F991F0A9402
:100E3000E2F7809584238C9329C0A4E3B0E0E4E337
:100E4000F0E08081482F8A81282F30E081E090E017
:100E5000022E02C0880F991F0A94E2F7809584231E
:100E60008C9314C0A1E3B0E0E1E3F0E08081482F6F
:100E70008A81282F30E081E090E0022E02C0880FA6
:100E8000991F0A94E2F7809584238C9327960FB6D6
:100E9000F894DEBF0FBECDBFCF91DF910895DF93F1
:100EA000CF9300D000D0CDB7DEB789836A83898124
:100EB000282F30E03C832B838B819C8181309105EE
:100EC000D1F02B813C81223031052CF48B819C8127
:100ED000009761F01EC02B813C812230310581F0EA
:100EE0008B819C818330910581F013C0EAE3F0E0AF
:100EF0008A8180830EC0E7E3F0E08A81808309C0A5
:100F0000E4E3F0E08A81808304C0E1E3F0E08A81D9
:100F100080830F900F900F900F90CF91DF910895E5
:100F2000DF93CF93CDB7DEB727970FB6F894DEBF28
:100F30000FBECDBF89836A834B838B81813009F0DB
:100F40006FC08981282F30E03F832E838E819F815F
:100F50008130910549F12E813F81223031052CF4F9
:100F60008E819F81009761F0D2C02E813F81223017
:100F7000310571F18E819F8183309105E9F1C7C000
:100F8000ABE3B0E0EBE3F0E08081482F8A81282FCB
:100F900030E081E090E0022E02C0880F991F0A9491
:100FA000E2F7842B8C93B3C0A8E3B0E0E8E3F0E071
:100FB0008081482F8A81282F30E081E090E0022E46
:100FC00002C0880F991F0A94E2F7842B8C939FC06C
:100FD000A5E3B0E0E5E3F0E08081482F8A81282F87
:100FE00030E081E090E0022E02C0880F991F0A9441
:100FF000E2F7842B8C938BC0A2E3B0E0E2E3F0E055
:101000008081482F8A81282F30E081E090E0022EF5
:1010100002C0880F991F0A94E2F7842B8C9377C043
:101020008B81882309F073C08981282F30E03D83AC
:101030002C838C819D818130910559F12C813D81DA
:10104000223031052CF48C819D81009769F05FC0BE
:101050002C813D812230310589F18C819D81833045
:10106000910509F440C053C0ABE3B0E0EBE3F0E01E
:101070008081482F8A81282F30E081E090E0022E85
:1010800002C0880F991F0A94E2F7809584238C93FD
:101090003EC0A8E3B0E0E8E3F0E08081482F8A8119
:1010A000282F30E081E090E0022E02C0880F991FC7
:1010B0000A94E2F7809584238C9329C0A5E3B0E0DD
:1010C000E5E3F0E08081482F8A81282F30E081E03D
:1010D00090E0022E02C0880F991F0A94E2F78095D3
:1010E00084238C9314C0A2E3B0E0E2E3F0E08081BB
:1010F000482F8A81282F30E081E090E0022E02C044
:10110000880F991F0A94E2F7809584238C93279681
:101110000FB6F894DEBF0FBECDBFCF91DF9108951B
:10112000DF93CF9300D000D0CDB7DEB789836A8339
:101130008981282F30E03C832B838B819C818130F7
:101140009105D1F02B813C81223031052CF48B812B
:101150009C81009761F01EC02B813C8122303105BB
:1011600081F08B819C818330910581F013C0EBE38A
:10117000F0E08A8180830EC0E8E3F0E08A8180831A
:1011800009C0E5E3F0E08A81808304C0E2E3F0E097
:101190008A8180830F900F900F900F90CF91DF91F5
:1011A0000895DF93CF9300D000D0CDB7DEB7898309
:1011B0006A838981282F30E03C832B838B819C813B
:1011C0008130910549F12B813C81223031052CF48D
:1011D0008B819C81009761F05AC02B813C81223029
:1011E000310571F18B819C8183309105E9F14FC00C
:1011F000ABE3B0E0EBE3F0E08081482F8A81282F59
:1012000030E081E090E0022E02C0880F991F0A941E
:10121000E2F784278C933BC0A8E3B0E0E8E3F0E07A
:101220008081482F8A81282F30E081E090E0022ED3
:1012300002C0880F991F0A94E2F784278C9327C075
:10124000A5E3B0E0E5E3F0E08081482F8A81282F14
:1012500030E081E090E0022E02C0880F991F0A94CE
:10126000E2F784278C9313C0A2E3B0E0E2E3F0E05E
:101270008081482F8A81282F30E081E090E0022E83
:1012800002C0880F991F0A94E2F784278C930F906D
:101290000F900F900F90CF91DF910895DF93CF9330
:1012A00000D000D000D0CDB7DEB789836A838981B2
:1012B000282F30E03D832C834C815D8141305105E6
:1012C00049F18C819D818230910534F42C813D81DE
:1012D0002115310561F057C04C815D8142305105C7
:1012E00061F18C819D8183309105D1F14CC0E9E39E
:1012F000F0E08081282F30E08A81882F90E0A901DA
:1013000002C0559547958A95E2F7CA01582F51704A
:101310005B833AC0E6E3F0E08081282F30E08A81E9
:10132000882F90E0A90102C0559547958A95E2F76C
:10133000CA01582F51705B8327C0E3E3F0E080813E
:10134000282F30E08A81882F90E0A90102C05595AE
:1013500047958A95E2F7CA01582F51705B8314C0F4
:10136000E0E3F0E08081282F30E08A81882F90E050
:10137000A90102C0559547958A95E2F7CA01582FF1
:1013800051705B8301C002C08B818E838E81269653
:101390000FB6F894DEBF0FBECDBFCF91DF91089599
:1013A000DF93CF93CDB7DEB783E062E040E00E94E9
:1013B0004F0683E062E041E00E949007A5E5B0E0BF
:1013C000E5E5F0E080818E7F8C93A5E5B0E0E5E572
:1013D000F0E0808182608C9383E063E040E00E94D3
:1013E0004F0683E063E041E00E949007A5E5B0E08E
:1013F000E5E5F0E080818B7F8C93A5E5B0E0E5E545
:10140000F0E0808188608C9381E062E040E00E949F
:101410004F0681E062E041E00E949007A4E5B0E061
:10142000E4E5F0E080818F7B8C93CF91DF9108958C
:10143000DF93CF93CDB7DEB7AFE5B0E0EFE5F0E0F7
:10144000808180688C93CF91DF910895DF93CF9353
:10145000CDB7DEB7AFE5B0E0EFE5F0E080818F77A4
:101460008C93CF91DF910895DF93CF9300D00F92AB
:10147000CDB7DEB789838981282F30E03B832A836B
:101480008A819B818130910589F02A813B812230BC
:101490003105A1F08A819B810097B9F4ABE5B0E0FA
:1014A000EBE5F0E0808180648C930FC0ABE5B0E0A9
:1014B000EBE5F0E0808180688C9307C0ABE5B0E09D
:1014C000EBE5F0E0808180628C930F900F900F909D
:1014D000CF91DF910895DF93CF9300D00F92CDB7D6
:1014E000DEB789838981282F30E03B832A838A8174
:1014F0009B818130910589F02A813B812230310521
:10150000A1F08A819B810097B9F4ABE5B0E0EBE5EF
:10151000F0E080818F7B8C930FC0ABE5B0E0EBE512
:10152000F0E080818F778C9307C0ABE5B0E0EBE50E
:10153000F0E080818F7D8C930F900F900F90CF9172
:10154000DF9108951F920F920FB60F921124DF932F
:10155000CF93CDB7DEB7CF91DF910F900FBE0F9035
:101560001F9018951F920F920FB60F921124DF93C0
:10157000CF93CDB7DEB7CF91DF910F900FBE0F9015
:101580001F9018951F920F920FB60F9211242F9350
:101590003F934F935F936F937F938F939F93AF93FB
:1015A000BF93EF93FF93DF93CF93CDB7DEB78091D7
:1015B0006A00882F90E08170907060E070E00E9477
:1015C000B01281E090E00E940A1080916A008F5F63
:1015D00080936A0080916A00882F90E081709070FB
:1015E00060E070E00E94B01280E290E00E940A1079
:1015F000CF91DF91FF91EF91BF91AF919F918F912B
:101600007F916F915F914F913F912F910F900FBEFE
:101610000F901F901895DF93CF93CDB7DEB76D97DE
:101620000FB6F894DEBF0FBECDBF8D8F83E060E0B4
:1016300040E00E94900782E06D8D0E94900883E058
:1016400061E041E00E94900780E090E0A0E8BFE305
:10165000898F9A8FAB8FBC8F698D7A8D8B8D9C8D86
:1016600020E030E04AEF54E40E941F02DC01CB018D
:101670008D8B9E8BAF8BB88F6D897E898F89988D6E
:1016800020E030E040E85FE30E94250488232CF44A
:1016900081E090E09C8B8B8B3FC06D897E898F8928
:1016A000988D20E03FEF4FE757E40E94C5031816DE
:1016B0004CF5698D7A8D8B8D9C8D20E030E040E279
:1016C00051E40E941F02DC01CB01BC01CD010E944C
:1016D0004900DC01CB019C8B8B8B0FC088EC90E028
:1016E0009A8B898B89899A890197F1F79A8B898BD3
:1016F0008B899C8901979C8B8B8B8B899C8900970C
:1017000069F714C06D897E898F89988D0E94490080
:10171000DC01CB019C8B8B8B8B899C89988B8F8771
:101720008F8598890197F1F7988B8F8783E061E027
:1017300040E00E94900780E090E0A0E0B0E48B875A
:101740009C87AD87BE876B857C858D859E8520E0D7
:1017500030E04AEF54E40E941F02DC01CB018F838A
:101760009887A987BA876F81788589859A8520E0CF
:1017700030E040E85FE30E94250488232CF481E0F8
:1017800090E09E838D833FC06F81788589859A859F
:1017900020E03FEF4FE757E40E94C50318164CF5D1
:1017A0006B857C858D859E8520E030E040E251E4AC
:1017B0000E941F02DC01CB01BC01CD010E94490047
:1017C000DC01CB019E838D830FC088EC90E09C836D
:1017D0008B838B819C810197F1F79C838B838D8117
:1017E0009E8101979E838D838D819E81009769F7ED
:1017F00014C06F81788589859A850E944900DC0133
:10180000CB019E838D838D819E819A83898389817B
:101810009A810197F1F79A8389836D960FB6F894B0
:10182000DEBF0FBECDBFCF91DF9108950F931F9301
:10183000DF93CF93CDB7DEB7C456D0400FB6F89440
:10184000DEBF0FBECDBF83E060E041E00E944F06E7
:1018500083E061E041E00E944F0682E06FEF0E946A
:101860004F07FE01EF59FF4F80E090E0A0E2B2E4A5
:1018700080839183A283B3838E01035A1F4FFE019D
:10188000EF59FF4F608171818281938120E030E0C8
:101890004AEF54E40E941F02DC01CB01F80180836F
:1018A0009183A283B383FE01E35AFF4F608171816C
:1018B0008281938120E030E040E85FE30E942504CC
:1018C000882344F4FE01E55AFF4F81E090E09183C4
:1018D000808364C0FE01E35AFF4F60817181828181
:1018E000938120E03FEF4FE757E40E94C5031816AD
:1018F0000CF043C0FE01EF59FF4F6081718182817E
:10190000938120E030E040E251E40E941F02DC01BC
:10191000CB018E01055A1F4FBC01CD010E94490029
:10192000DC01CB01F801918380831FC0FE01E75ADF
:10193000FF4F88EC90E091838083FE01E75AFF4FD0
:10194000808191810197F1F7FE01E75AFF4F918362
:101950008083DE01A55ABF4FFE01E55AFF4F80810B
:101960009181019711969C938E93FE01E55AFF4F4A
:10197000808191810097D1F627C08E01055A1F4FB3
:10198000FE01E35AFF4F60817181828193810E9441
:101990004900DC01CB01F80191838083DE01A95A63
:1019A000BF4FFE01E55AFF4F808191818D939C933B
:1019B000FE01E95AFF4F808191810197F1F7FE0105
:1019C000E95AFF4F918380838CE30E940B0BFE0149
:1019D000ED5AFF4F80E090E0A0E2B2E48083918373
:1019E000A283B3838E01015B1F4FFE01ED5AFF4FAF
:1019F00060817181828193812BEA3AEA4AE250E464
:101A00000E941F02DC01CB01F80180839183A28335
:101A1000B383FE01E15BFF4F60817181828193811D
:101A200020E030E040E85FE30E942504882334F49E
:101A3000FE01E25BFF4F81E08083E0C0FE01E15BDD
:101A4000FF4F608171818281938120E030E04FE718
:101A500053E40E94C50318160CF0C0C0FE01ED5AF5
:101A6000FF4F608171818281938120E030E04AE7FD
:101A700054E40E941903DC01CB01FE01E65BFF4F39
:101A800080839183A283B3838E010A5B1F4FFE0183
:101A9000E65BFF4F608171818281938120E030E0BD
:101AA0004AEF54E40E941F02DC01CB01F80180835D
:101AB0009183A283B383FE01EA5BFF4F6081718152
:101AC0008281938120E030E040E85FE30E942504BA
:101AD000882344F4FE01EC5BFF4F81E090E09183AA
:101AE000808364C0FE01EA5BFF4F60817181828167
:101AF000938120E03FEF4FE757E40E94C50318169B
:101B00000CF043C0FE01E65BFF4F60817181828172
:101B1000938120E030E040E251E40E941F02DC01AA
:101B2000CB018E010C5B1F4FBC01CD010E9449000F
:101B3000DC01CB01F801918380831FC0FE01EE5BC5
:101B4000FF4F88EC90E091838083FE01EE5BFF4FB6
:101B5000808191810197F1F7FE01EE5BFF4F918348
:101B60008083DE01AC5BBF4FFE01EC5BFF4F8081E9
:101B70009181019711969C938E93FE01EC5BFF4F30
:101B8000808191810097D1F642C08E010C5B1F4F7E
:101B9000FE01EA5BFF4F60817181828193810E9427
:101BA0004900DC01CB01F80191838083DE01A05C58
:101BB000BF4FFE01EC5BFF4F8081918111969C939A
:101BC0008E93FE01E05CFF4F808191810197F1F7D8
:101BD000FE01E05CFF4F9183808319C08E01025BA0
:101BE0001F4FFE01E15BFF4F608171818281938114
:101BF0000E944900DC01CB01F8018083FE01E25B19
:101C0000FF4F80818FAF8FAD8A95F1F78FAF8CE05A
:101C10000E940B0B80E090E0A0E2B2E48BAF9CAF9F
:101C2000ADAFBEAF6BAD7CAD8DAD9EAD2BEA3AEAEC
:101C30004AE250E40E941F02DC01CB018FAB98AF57
:101C4000A9AFBAAF6FA978AD89AD9AAD20E030E009
:101C500040E85FE30E94250488231CF481E08EABFA
:101C600091C06FA978AD89AD9AAD20E030E04FE723
:101C700053E40E94C50318160CF07BC06BAD7CAD1D
:101C80008DAD9EAD20E030E04AE754E40E94190398
:101C9000DC01CB018AAB9BABACABBDAB6AA97BA92A
:101CA0008CA99DA920E030E04AEF54E40E941F0275
:101CB000DC01CB018EA79FA7A8ABB9AB6EA57FA512
:101CC00088A999A920E030E040E85FE30E9425045C
:101CD00088232CF481E090E09DA78CA73FC06EA5DF
:101CE0007FA588A999A920E03FEF4FE757E40E941C
:101CF000C50318164CF56AA97BA98CA99DA920E0FB
:101D000030E040E251E40E941F02DC01CB01BC0143
:101D1000CD010E944900DC01CB019DA78CA70FC01B
:101D200088EC90E09BA78AA78AA59BA50197F1F76D
:101D30009BA78AA78CA59DA501979DA78CA78CA57D
:101D40009DA5009769F724C06EA57FA588A999A9CC
:101D50000E944900DC01CB019DA78CA78CA59DA505
:101D600099A788A788A599A50197F1F799A788A7AA
:101D70000FC06FA978AD89AD9AAD0E944900DC0112
:101D8000CB018EAB8EA98FA38FA18A95F1F78FA37C
:101D900086E00E940B0B80E090E0A0E2B2E48BA30F
:101DA0009CA3ADA3BEA36BA17CA18DA19EA12BEA98
:101DB0003AEA4AE250E40E941F02DC01CB018F8F15
:101DC00098A3A9A3BAA36F8D78A189A19AA120E0B5
:101DD00030E040E85FE30E94250488231CF481E0A2
:101DE0008E8F91C06F8D78A189A19AA120E030E0FB
:101DF0004FE753E40E94C50318160CF07BC06BA19B
:101E00007CA18DA19EA120E030E04AE754E40E942D
:101E10001903DC01CB018A8F9B8FAC8FBD8F6A8D3C
:101E20007B8D8C8D9D8D20E030E04AEF54E40E9444
:101E30001F02DC01CB018E8B9F8BA88FB98F6E891F
:101E40007F89888D998D20E030E040E85FE30E9433
:101E5000250488232CF481E090E09D8B8C8B3FC07F
:101E60006E897F89888D998D20E03FEF4FE757E499
:101E70000E94C50318164CF56A8D7B8D8C8D9D8D47
:101E800020E030E040E251E40E941F02DC01CB017F
:101E9000BC01CD010E944900DC01CB019D8B8C8BE4
:101EA0000FC088EC90E09B8B8A8B8A899B89019775
:101EB000F1F79B8B8A8B8C899D8901979D8B8C8BED
:101EC0008C899D89009769F724C06E897F89888DE8
:101ED000998D0E944900DC01CB019D8B8C8B8C89F4
:101EE0009D89998B888B888999890197F1F7998BBE
:101EF000888B0FC06F8D78A189A19AA10E9449009B
:101F0000DC01CB018E8F8E8D8F878F858A95F1F7BF
:101F10008F8781E00E940B0B80E090E0A0E0B0E4AE
:101F20008B879C87AD87BE876B857C858D859E85DD
:101F300020E030E04AEF54E40E941F02DC01CB01B4
:101F40008F839887A987BA876F81788589859A85D5
:101F500020E030E040E85FE30E94250488232CF471
:101F600081E090E09E838D833FC06F817885898575
:101F70009A8520E03FEF4FE757E40E94C50318160B
:101F80004CF56B857C858D859E8520E030E040E2B8
:101F900051E40E941F02DC01CB01BC01CD010E9473
:101FA0004900DC01CB019E838D830FC088EC90E05B
:101FB0009C838B838B819C810197F1F79C838B831E
:101FC0008D819E8101979E838D838D819E81009757
:101FD00069F714C06F81788589859A850E944900C8
:101FE000DC01CB019E838D838D819E819A838983C1
:101FF00089819A810197F1F79A838983CC59DF4FC0
:102000000FB6F894DEBF0FBECDBFCF91DF911F9109
:102010000F910895DF93CF93CDB7DEB76D970FB6CD
:10202000F894DEBF0FBECDBF8D8F83E060E041E04E
:102030000E94900782E06D8D0E94900883E061E02D
:1020400041E00E94900780E090E0A0E8BFE3898F24
:102050009A8FAB8FBC8F698D7A8D8B8D9C8D20E094
:1020600030E04AEF54E40E941F02DC01CB018D8B6B
:102070009E8BAF8BB88F6D897E898F89988D20E07C
:1020800030E040E85FE30E94250488232CF481E0DF
:1020900090E09C8B8B8B3FC06D897E898F89988D5A
:1020A00020E03FEF4FE757E40E94C50318164CF5B8
:1020B000698D7A8D8B8D9C8D20E030E040E251E47B
:1020C0000E941F02DC01CB01BC01CD010E9449002E
:1020D000DC01CB019C8B8B8B0FC088EC90E09A8B42
:1020E000898B89899A890197F1F79A8B898B8B89DA
:1020F0009C8901979C8B8B8B8B899C89009769F7B6
:1021000014C06D897E898F89988D0E944900DC01F9
:10211000CB019C8B8B8B8B899C89988B8F878F8530
:1021200098890197F1F7988B8F8783E061E040E011
:102130000E94900780E090E0A0E0B0E48B879C874D
:10214000AD87BE876B857C858D859E8520E030E0E0
:102150004AEF54E40E941F02DC01CB018F83988771
:10216000A987BA876F81788589859A8520E030E0D4
:1021700040E85FE30E94250488232CF481E090E08E
:102180009E838D833FC06F81788589859A8520E005
:102190003FEF4FE757E40E94C50318164CF56B85D7
:1021A0007C858D859E8520E030E040E251E40E94F0
:1021B0001F02DC01CB01BC01CD010E944900DC0102
:1021C000CB019E838D830FC088EC90E09C838B8332
:1021D0008B819C810197F1F79C838B838D819E81FC
:1021E00001979E838D838D819E81009769F714C02E
:1021F0006F81788589859A850E944900DC01CB0131
:102200009E838D838D819E819A83898389819A8122
:102210000197F1F79A8389836D960FB6F894DEBF24
:102220000FBECDBFCF91DF910895DF93CF93CDB790
:10223000DEB76B970FB6F894DEBF0FBECDBF9B8F96
:102240008A8F198ED2C0898D8F3019F480EC0E944C
:102250000B0B898D282F30E08A8D9B8DFC01E20FBE
:10226000F31F80810E940A1080E090E0A0E8BFE3A5
:102270008D8B9E8BAF8BB88F6D897E898F89988D62
:102280002BEA3AEA4AE250E40E941F02DC01CB0149
:10229000898B9A8BAB8BBC8B69897A898B899C895A
:1022A00020E030E040E85FE30E94250488231CF42E
:1022B00081E0888B91C069897A898B899C8920E02B
:1022C00030E04FE753E40E94C50318160CF07BC0C2
:1022D0006D897E898F89988D20E030E04AE754E44B
:1022E0000E941903DC01CB018C879D87AE87BF87D5
:1022F0006C857D858E859F8520E030E04AEF54E433
:102300000E941F02DC01CB0188879987AA87BB87BF
:10231000688579858A859B8520E030E040E85FE329
:102320000E94250488232CF481E090E09F838E8313
:102330003FC0688579858A859B8520E03FEF4FE720
:1023400057E40E94C50318164CF56C857D858E8573
:102350009F8520E030E040E251E40E941F02DC0152
:10236000CB01BC01CD010E944900DC01CB019F8360
:102370008E830FC088EC90E09D838C838C819D813F
:102380000197F1F79D838C838E819F8101979F83B5
:102390008E838E819F81009769F724C06885798537
:1023A0008A859B850E944900DC01CB019F838E8337
:1023B0008E819F819B838A838A819B810197F1F71C
:1023C0009B838A830FC069897A898B899C890E9443
:1023D0004900DC01CB01888B8889898389818A95B2
:1023E000F1F78983898D8F5F898F898D282F30E060
:1023F0008A8D9B8DFC01E20FF31F8081882309F0F9
:1024000022CF6B960FB6F894DEBF0FBECDBFCF9133
:10241000DF910895DF93CF9300D000D0CDB7DEB722
:102420008B836C8381E090E09A83898312C08B81D7
:10243000282F30E089819A81AC01429FC001439FDF
:10244000900D529F900D11249A8389838C81815025
:102450008C838C81882359F789819A810F900F9002
:102460000F900F90CF91DF9108950F931F93DF93FB
:10247000CF9300D000D000D0CDB7DEB79E838D8340
:102480008D819E81009721F480E30E940A105DC037
:102490001C821B821A8203C08A818F5F8A838AE032
:1024A0006A810E940A129C018D819E81B9010E945D
:1024B000311ECB01009781F78A818150898327C023
:1024C0008D819E812AE030E0B9010E94311E8C018D
:1024D00099818AE0692F0E940A12089F9001099F42
:1024E000300D189F300D11248B819C81820F931F1A
:1024F0009C838B838D819E812AE030E0B9010E940C
:10250000311ECB019E838D8389818150898389818E
:102510008823B4F617C08B819C812AE030E0B90192
:102520000E94311E805D0E940A108B819C812AE0EE
:1025300030E0B9010E94311ECB019C838B838A81DC
:1025400081508A838A81882331F726960FB6F894C2
:10255000DEBF0FBECDBFCF91DF911F910F910895C8
:10256000DF93CF9300D00F92CDB7DEB78A836B8312
:1025700019828A81882319F480E8898305C08A81B9
:10258000813011F480EC89838B81803120F4898142
:102590009B81890F898389810E940B0B0F900F907B
:1025A0000F90CF91DF910895DF93CF93CDB7DEB732
:1025B00081E00E940B0BCF91DF9108950F931F9341
:1025C000DF93CF93CDB7DEB7CA5CD0400FB6F89497
:1025D000DEBF0FBECDBF83E064E040E00E944F0647
:1025E00083E065E041E00E944F0683E065E040E063
:1025F0000E9490070E94180A82E00E94340A0E94FA
:10260000D0090E94160C83E062E041E00E944F0670
:1026100083E063E040E00E944F0683E062E040E038
:102620000E94900780E40E940B0B84E00E940A1035
:102630008EE00E940A1084E00E940A108EE10E943F
:102640000A108EE10E940A108CE10E940A108AE1B1
:102650000E940A1081E00E940A1080E00E940A1085
:1026600080E00E940A1080E00E940A108EE10E9421
:102670000A108EE10E940A108CE10E940A108AE181
:102680000E940A1081E00E940A1080E00E940A1055
:1026900080E00E940A1080E00E940A1080E00E9400
:1026A0000A1082E00E940A1087E00E940A1087E068
:1026B0000E940A1082E00E940A1080E00E940A1024
:1026C00080E00E940A1080E00E940A1080E00E94D0
:1026D0000A1088E00E940A108CE10E940A108CE126
:1026E0000E940A1088E00E940A1088E00E940A10E6
:1026F0008CE10E940A108CE10E940A1088E00E947E
:102700000A1080E00E940A1080E00E940A1080E017
:102710000E940A1080E00E940A1082E00E940A10C3
:1027200087E00E940A1087E00E940A1082E00E945F
:102730000A1080E00E940A1080E00E940A1080E0E7
:102740000E940A1080E00E940A1081E060E00E946E
:10275000B01281E00E940A10FE01E653FF4F108282
:1027600083E064E00E944E09882309F4AAC183E053
:102770000E946B0ADE01A653BF4FFE01E653FF4FD6
:1027800080818F5F8C930E94D412FE01E753FF4F2C
:1027900010827DC180E064E00E94B012FE01E65329
:1027A000FF4F8081882F90E00E943512FE01EF5389
:1027B000FF4F80E090E0AAEFB3E480839183A2838F
:1027C000B3838E0103541F4FFE01EF53FF4F60810F
:1027D00071818281938120E030E04AEF54E40E94CD
:1027E0001F02DC01CB01F80180839183A283B383B4
:1027F000FE01E354FF4F608171818281938120E06B
:1028000030E040E85FE30E942504882344F4FE01A1
:10281000E554FF4F81E090E09183808364C0FE0126
:10282000E354FF4F608171818281938120E03FEF0B
:102830004FE757E40E94C50318160CF043C0FE0191
:10284000EF53FF4F608171818281938120E030E0FE
:1028500040E251E40E941F02DC01CB018E010554CD
:102860001F4FBC01CD010E944900DC01CB01F801E2
:10287000918380831FC0FE01E754FF4F88EC90E0F6
:1028800091838083FE01E754FF4F808191810197FE
:10289000F1F7FE01E754FF4F91838083DE01A554D9
:1028A000BF4FFE01E554FF4F808191810197119642
:1028B0009C938E93FE01E554FF4F80819181009798
:1028C000D1F627C08E0105541F4FFE01E354FF4F80
:1028D00060817181828193810E944900DC01CB017A
:1028E000F80191838083DE01A954BF4FFE01E554B6
:1028F000FF4F808191818D939C93FE01E954FF4F9E
:10290000808191810197F1F7FE01E954FF4F918396
:1029100080830E94D412FE01ED54FF4F80E090E0CE
:10292000AAEFB3E480839183A283B3838E01015520
:102930001F4FFE01ED54FF4F6081718182819381B1
:1029400020E030E04AEF54E40E941F02DC01CB019A
:10295000F80180839183A283B383FE01E155FF4F89
:10296000608171818281938120E030E040E85FE303
:102970000E942504882344F4FE01E355FF4F81E0C3
:1029800090E09183808364C0FE01E155FF4F608138
:1029900071818281938120E03FEF4FE757E40E94ED
:1029A000C50318160CF043C0FE01ED54FF4F6081C3
:1029B00071818281938120E030E040E251E40E9405
:1029C0001F02DC01CB018E0103551F4FBC01CD015D
:1029D0000E944900DC01CB01F801918380831FC074
:1029E000FE01E555FF4F88EC90E091838083FE0166
:1029F000E555FF4F808191810197F1F7FE01E55583
:102A0000FF4F91838083DE01A355BF4FFE01E35545
:102A1000FF4F80819181019711969C938E93FE01C7
:102A2000E355FF4F808191810097D1F627C08E0139
:102A300003551F4FFE01E155FF4F60817181828177
:102A400093810E944900DC01CB01F80191838083CE
:102A5000DE01A755BF4FFE01E355FF4F80819181F5
:102A60008D939C93FE01E755FF4F808191810197E3
:102A7000F1F7FE01E755FF4F91838083DE01A753F5
:102A8000BF4FFE01E753FF4F80818F5F8C93FE01A4
:102A9000E753FF4F8081833008F47CCE80916A0039
:102AA00090916B00019622E030E0B9010E94451E32
:102AB00060E00E94B01281E00E940A1083E00E9450
:102AC000340A83E063E00E944E09882309F448CE6B
:102AD000D0C080916800982F80E0692F0E94B012CA
:102AE00084E00E940A10FE01EB55FF4F80E090E069
:102AF000A8ECB2E480839183A283B3838E010F5547
:102B00001F4FFE01EB55FF4F6081718182819381E0
:102B100020E030E04AEF54E40E941F02DC01CB01C8
:102B2000F80180839183A283B383FE01EF55FF4FA9
:102B3000608171818281938120E030E040E85FE331
:102B40000E942504882344F4FE01E156FF4F81E0F2
:102B500090E09183808364C0FE01EF55FF4F608158
:102B600071818281938120E03FEF4FE757E40E941B
:102B7000C50318160CF043C0FE01EB55FF4F6081F2
:102B800071818281938120E030E040E251E40E9433
:102B90001F02DC01CB018E0101561F4FBC01CD018C
:102BA0000E944900DC01CB01F801918380831FC0A2
:102BB000FE01E356FF4F88EC90E091838083FE0195
:102BC000E356FF4F808191810197F1F7FE01E356B3
:102BD000FF4F91838083DE01A156BF4FFE01E15676
:102BE000FF4F80819181019711969C938E93FE01F6
:102BF000E156FF4F808191810097D1F627C08E0169
:102C000001561F4FFE01EF55FF4F60817181828198
:102C100093810E944900DC01CB01F80191838083FC
:102C2000DE01A556BF4FFE01E156FF4F8081918125
:102C30008D939C93FE01E556FF4F80819181019712
:102C4000F1F7FE01E556FF4F918380838091680084
:102C5000982F80E0692F0E94B01280E20E940A1033
:102C600080916800853071F0809168008150809378
:102C700068008091680080312CF480916800853074
:102C80000CF027CF80916800982F80E0692F0E9478
:102C9000B01283E00E940A10FE01E956FF4F80E067
:102CA00090E0A8ECB2E480839183A283B3838E0189
:102CB0000D561F4FFE01E956FF4F608171818281E1
:102CC000938120E030E04AEF54E40E941F02DC01CF
:102CD000CB01F80180839183A283B383FE01ED567B
:102CE000FF4F608171818281938120E030E040E874
:102CF0005FE30E942504882344F4FE01EF56FF4F52
:102D000081E090E09183808364C0FE01ED56FF4F27
:102D1000608171818281938120E03FEF4FE757E42A
:102D20000E94C50318160CF043C0FE01E956FF4F80
:102D3000608171818281938120E030E040E251E442
:102D40000E941F02DC01CB018E010F561F4FBC01F8
:102D5000CD010E944900DC01CB01F8019183808301
:102D60001FC0FE01E157FF4F88EC90E09183808304
:102D7000FE01E157FF4F808191810197F1F7FE013C
:102D8000E157FF4F91838083DE01AF56BF4FFE01B5
:102D9000EF56FF4F80819181019711969C938E93FE
:102DA000FE01EF56FF4F808191810097D1F627C039
:102DB0008E010F561F4FFE01ED56FF4F608171814E
:102DC000828193810E944900DC01CB01F80191834B
:102DD0008083DE01A357BF4FFE01EF56FF4F808176
:102DE00091818D939C93FE01E357FF4F80819181E8
:102DF0000197F1F7FE01E357FF4F918380838091A4
:102E00006800982F80E0692F0E94B01280E20E9433
:102E10000A1080916800815080936800809168005A
:102E2000982F81E0692F0E94B01282E00E940A1060
:102E3000FE01E757FF4F80E090E0A8ECB2E480830A
:102E40009183A283B3838E010B571F4FFE01E75777
:102E5000FF4F608171818281938120E030E04AEFF1
:102E600054E40E941F02DC01CB01F80180839183AE
:102E7000A283B383FE01EB57FF4F60817181828192
:102E8000938120E030E040E85FE30E94250488233E
:102E900044F4FE01ED57FF4F81E090E09183808381
:102EA00064C0FE01EB57FF4F608171818281938185
:102EB00020E03FEF4FE757E40E94C50318160CF0DF
:102EC00043C0FE01E757FF4F60817181828193818A
:102ED00020E030E040E251E40E941F02DC01CB011F
:102EE0008E010D571F4FBC01CD010E944900DC012E
:102EF000CB01F801918380831FC0FE01EF57FF4F84
:102F000088EC90E091838083FE01EF57FF4F808132
:102F100091810197F1F7FE01EF57FF4F9183808375
:102F2000DE01AD57BF4FFE01ED57FF4F808191810C
:102F3000019711969C938E93FE01ED57FF4F808170
:102F400091810097D1F627C08E010D571F4FFE01CA
:102F5000EB57FF4F60817181828193810E9449000C
:102F6000DC01CB01F80191838083DE01A158BF4FC2
:102F7000FE01ED57FF4F808191818D939C93FE015F
:102F8000E158FF4F808191810197F1F7FE01E158EF
:102F9000FF4F9183808380916800982F81E0692F93
:102FA0000E94B01280E20E940A1080916800815055
:102FB0008093680080916800982F81E0692F0E94BB
:102FC000B01284E00E940A10FE01E558FF4F80E035
:102FD00090E0A8ECB2E480839183A283B3838E0156
:102FE00009581F4FFE01E558FF4F608171818281B2
:102FF000938120E030E04AEF54E40E941F02DC019C
:10300000CB01F80180839183A283B383FE01E95849
:10301000FF4F608171818281938120E030E040E840
:103020005FE30E942504882344F4FE01EB58FF4F20
:1030300081E090E09183808364C0FE01E958FF4FF6
:10304000608171818281938120E03FEF4FE757E4F7
:103050000E94C50318160CF043C0FE01E558FF4F4F
:10306000608171818281938120E030E040E251E40F
:103070000E941F02DC01CB018E010B581F4FBC01C7
:10308000CD010E944900DC01CB01F80191838083CE
:103090001FC0FE01ED58FF4F88EC90E091838083C4
:1030A000FE01ED58FF4F808191810197F1F7FE01FC
:1030B000ED58FF4F91838083DE01AB58BF4FFE0177
:1030C000EB58FF4F80819181019711969C938E93CD
:1030D000FE01EB58FF4F808191810097D1F627C008
:1030E0008E010B581F4FFE01E958FF4F608171811F
:1030F000828193810E944900DC01CB01F801918318
:103100008083DE01AF58BF4FFE01EB58FF4F808137
:1031100091818D939C93FE01EF58FF4F80819181A7
:103120000197F1F7FE01EF58FF4F91838083809163
:103130006800982F81E0692F0E94B01280E20E94FF
:103140000A1080916800815080936800FE01E85366
:10315000FF4F1082D5C080916800982F81E0692FC1
:103160000E94B01284E00E940A10FE01E359FF4F52
:1031700080E090E0A8ECB2E480839183A283B383E3
:103180008E0107591F4FFE01E359FF4F6081718186
:103190008281938120E030E04AEF54E40E941F02D4
:1031A000DC01CB01F80180839183A283B383FE010C
:1031B000E759FF4F608171818281938120E030E087
:1031C00040E85FE30E942504882344F4FE01E959A6
:1031D000FF4F81E090E09183808364C0FE01E75956
:1031E000FF4F608171818281938120E03FEF4FE743
:1031F00057E40E94C50318160CF043C0FE01E359C2
:10320000FF4F608171818281938120E030E040E254
:1032100051E40E941F02DC01CB018E0109591F4FAE
:10322000BC01CD010E944900DC01CB01F801918372
:1032300080831FC0FE01EB59FF4F88EC90E0918323
:103240008083FE01EB59FF4F808191810197F1F757
:10325000FE01EB59FF4F91838083DE01A959BF4FD7
:10326000FE01E959FF4F80819181019711969C934E
:103270008E93FE01E959FF4F808191810097D1F62D
:1032800027C08E0109591F4FFE01E759FF4F60818A
:103290007181828193810E944900DC01CB01F80198
:1032A00091838083DE01AD59BF4FFE01E959FF4F85
:1032B000808191818D939C93FE01ED59FF4F808118
:1032C00091810197F1F7FE01ED59FF4F91838083C2
:1032D00080916800982F81E0692F0E94B01280E2EF
:1032E0000E940A1080916800815080936800DE017E
:1032F000A853BF4FFE01E853FF4F80818F5F8C932F
:10330000FE01E853FF4F8081882309F424CF809188
:103310006A0090916B00019622E030E0B9010E94B2
:10332000451E8130910509F4ABC183E00E94340A47
:103330000E94D41283E065E041E00E949007FE0104
:10334000E953FF4F10827DC180E064E00E94B0121B
:10335000FE01E653FF4F8081882F90E00E943512D6
:10336000FE01E15AFF4F80E090E0AAEFB3E48083D2
:103370009183A283B3838E01055A1F4FFE01E15A48
:10338000FF4F608171818281938120E030E04AEFBC
:1033900054E40E941F02DC01CB01F8018083918379
:1033A000A283B383FE01E55AFF4F60817181828160
:1033B000938120E030E040E85FE30E942504882309
:1033C00044F4FE01E75AFF4F81E090E0918380834F
:1033D00064C0FE01E55AFF4F608171818281938153
:1033E00020E03FEF4FE757E40E94C50318160CF0AA
:1033F00043C0FE01E15AFF4F608171818281938158
:1034000020E030E040E251E40E941F02DC01CB01E9
:103410008E01075A1F4FBC01CD010E944900DC01FB
:10342000CB01F801918380831FC0FE01E95AFF4F51
:1034300088EC90E091838083FE01E95AFF4F808100
:1034400091810197F1F7FE01E95AFF4F9183808343
:10345000DE01A75ABF4FFE01E75AFF4F80819181DD
:10346000019711969C938E93FE01E75AFF4F80813E
:1034700091810097D1F627C08E01075A1F4FFE0198
:10348000E55AFF4F60817181828193810E944900DA
:10349000DC01CB01F80191838083DE01AB5ABF4F81
:1034A000FE01E75AFF4F808191818D939C93FE012D
:1034B000EB5AFF4F808191810197F1F7FE01EB5AA2
:1034C000FF4F918380830E94D412FE01EF5AFF4F79
:1034D00080E090E0AAEFB3E480839183A283B3837A
:1034E0008E01035B1F4FFE01EF5AFF4F6081718118
:1034F0008281938120E030E04AEF54E40E941F0271
:10350000DC01CB01F80180839183A283B383FE01A8
:10351000E35BFF4F608171818281938120E030E025
:1035200040E85FE30E942504882344F4FE01E55B44
:10353000FF4F81E090E09183808364C0FE01E35BF4
:10354000FF4F608171818281938120E03FEF4FE7DF
:1035500057E40E94C50318160CF043C0FE01EF5A51
:10356000FF4F608171818281938120E030E040E2F1
:1035700051E40E941F02DC01CB018E01055B1F4F4D
:10358000BC01CD010E944900DC01CB01F80191830F
:1035900080831FC0FE01E75BFF4F88EC90E09183C2
:1035A0008083FE01E75BFF4F808191810197F1F7F6
:1035B000FE01E75BFF4F91838083DE01A55BBF4F78
:1035C000FE01E55BFF4F80819181019711969C93ED
:1035D0008E93FE01E55BFF4F808191810097D1F6CC
:1035E00027C08E01055B1F4FFE01E35BFF4F60812B
:1035F0007181828193810E944900DC01CB01F80135
:1036000091838083DE01A95BBF4FFE01E55BFF4F25
:10361000808191818D939C93FE01E95BFF4F8081B6
:1036200091810197F1F7FE01E95BFF4F9183808360
:10363000DE01A953BF4FFE01E953FF4F80818F5F29
:103640008C93FE01E953FF4F8081833008F47CCED8
:1036500083E065E040E00E94900780916A009091CD
:103660006B00019622E030E0B9010E94451E60E047
:103670000E94B01281E00E940A1083E00E94340A86
:1036800081E080936800FE01EA53FF4F1082A7C0DB
:1036900080916800982F81E0692F0E94B01284E029
:1036A0000E940A10FE01ED5BFF4F80E090E0A8EC65
:1036B000B2E480839183A283B3838E01015C1F4FA8
:1036C000FE01ED5BFF4F608171818281938120E07B
:1036D00030E04AEF54E40E941F02DC01CB01F80104
:1036E00080839183A283B383FE01FF966081718101
:1036F0008281938120E030E040E85FE30E9425046E
:1037000088232CF481E090E09EAF8DAF46C0FE018F
:10371000FF96608171818281938120E03FEF4FE7C6
:1037200057E40E94C503181664F5FE01ED5BFF4FD8
:10373000608171818281938120E030E040E251E438
:103740000E941F02DC01CB01BC01CD010E94490097
:10375000DC01CB019EAF8DAF0FC088EC90E09CAF39
:103760008BAF8BAD9CAD0197F1F79CAF8BAF8DAD5F
:103770009EAD01979EAF8DAF8DAD9EAD009769F761
:1037800016C0FE01FF9660817181828193810E9443
:103790004900DC01CB019EAF8DAF8DAD9EAD9AAFE0
:1037A00089AF89AD9AAD0197F1F79AAF89AF809152
:1037B0006800982F81E0692F0E94B01280E20E9479
:1037C0000A10809168008F5F80936800DE01AA5321
:1037D000BF4FFE01EA53FF4F80818F5F8C93FE0144
:1037E000EA53FF4F8081833008F452CFFE01EB5340
:1037F000FF4F81E080831CC1FE01EB53FF4F20810E
:1038000080916800982F822F692F0E94B01283E068
:103810000E940A1080E090E0A8ECB2E48DAB9EAB71
:10382000AFABB8AF6DA97EA98FA998AD20E030E00D
:103830004AEF54E40E941F02DC01CB0189AB9AAB32
:10384000ABABBCAB69A97AA98BA99CA920E030E0FD
:1038500040E85FE30E94250488232CF481E090E097
:1038600098AB8FA73FC069A97AA98BA99CA920E032
:103870003FEF4FE757E40E94C50318164CF56DA9BA
:103880007EA98FA998AD20E030E040E251E40E948B
:103890001F02DC01CB01BC01CD010E944900DC010B
:1038A000CB0198AB8FA70FC088EC90E09EA78DA7A7
:1038B0008DA59EA50197F1F79EA78DA78FA598A925
:1038C000019798AB8FA78FA598A9009769F714C0A7
:1038D00069A97AA98BA99CA90E944900DC01CB01A6
:1038E00098AB8FA78FA598A99CA78BA78BA59CA504
:1038F0000197F1F79CA78BA7FE01EB53FF4F2081A7
:1039000080916800982F822F692F0E94B01285E065
:103910000E940A1080E090E0A8ECB2E48FA398A780
:10392000A9A7BAA76FA178A589A59AA520E030E03C
:103930004AEF54E40E941F02DC01CB018BA39CA33D
:10394000ADA3BEA36BA17CA18DA19EA120E030E020
:1039500040E85FE30E94250488232CF481E090E096
:103960009AA389A33FC06BA17CA18DA19EA120E059
:103970003FEF4FE757E40E94C50318164CF56FA1BF
:1039800078A589A59AA520E030E040E251E40E94A4
:103990001F02DC01CB01BC01CD010E944900DC010A
:1039A000CB019AA389A30FC088EC90E098A38F8FD6
:1039B0008F8D98A10197F1F798A38F8F89A19AA174
:1039C00001979AA389A389A19AA1009769F714C0C6
:1039D0006BA17CA18DA19EA10E944900DC01CB01BD
:1039E0009AA389A389A19AA19E8F8D8F8D8D9E8D7B
:1039F0000197F1F79E8F8D8FFE01EB53FF4F2081D2
:103A000080916800982F822F692F0E94B01280E267
:103A10000E940A10809168008F5F80936800DE0129
:103A2000AB53BF4FFE01EB53FF4F808181508C930E
:103A3000FE01EB53FF4F808188230CF0DDCE8BC05D
:103A400080916800982F80E0692F0E94B01285E075
:103A50000E940A1080E090E0A8ECB2E4898F9A8F6F
:103A6000AB8FBC8F698D7A8D8B8D9C8D20E030E083
:103A70004AEF54E40E941F02DC01CB018D8B9E8B28
:103A8000AF8BB88F6D897E898F89988D20E030E06B
:103A900040E85FE30E94250488232CF481E090E055
:103AA0009C8B8B8B3FC06D897E898F89988D20E0A0
:103AB0003FEF4FE757E40E94C50318164CF5698D98
:103AC0007A8D8B8D9C8D20E030E040E251E40E94A5
:103AD0001F02DC01CB01BC01CD010E944900DC01C9
:103AE000CB019C8B8B8B0FC088EC90E09A8B898BE1
:103AF00089899A890197F1F79A8B898B8B899C899F
:103B000001979C8B8B8B8B899C89009769F714C0DC
:103B10006D897E898F89988D0E944900DC01CB01D7
:103B20009C8B8B8B8B899C89988B8F878F859889B1
:103B30000197F1F7988B8F8780916800982F80E02C
:103B4000692F0E94B01280E20E940A1080916800E2
:103B50008F5F809368008091680080310CF470CF93
:103B60008FE08093680083E062E041E00E9490076C
:103B700080E090E0A8E4B2E48B879C87AD87BE87A5
:103B80006B857C858D859E8520E030E04AEF54E48E
:103B90000E941F02DC01CB018F839887A987BA8717
:103BA0006F81788589859A8520E030E040E85FE381
:103BB0000E94250488232CF481E090E09E838D836D
:103BC0003FC06F81788589859A8520E03FEF4FE778
:103BD00057E40E94C50318164CF56B857C858D85CE
:103BE0009E8520E030E040E251E40E941F02DC01AB
:103BF000CB01BC01CD010E944900DC01CB019E83B9
:103C00008D830FC088EC90E09C838B838B819C819B
:103C10000197F1F79C838B838D819E8101979E8311
:103C20008D838D819E81009769F714C06F8178859F
:103C300089859A850E944900DC01CB019E838D8392
:103C40008D819E819A83898389819A810197F1F779
:103C50009A83898383E062E040E00E9490070C949D
:103C6000B013AA1BBB1B51E107C0AA1FBB1FA6179D
:103C7000B70710F0A61BB70B881F991F5A95A9F715
:103C800080959095BC01CD01089597FB092E0726DC
:103C90000AD077FD04D0E5DF06D000201AF4709535
:103CA00061957F4F0895F6F7909581959F4F089500
:103CB0002F923F924F925F926F927F928F929F923C
:103CC000AF92BF92CF92DF92EF92FF920F931F932A
:103CD000CF93DF93CDB7DEB7CA1BDB0B0FB6F894DB
:103CE000DEBF0FBECDBF09942A88398848885F841B
:103CF0006E847D848C849B84AA84B984C884DF808C
:103D0000EE80FD800C811B81AA81B981CE0FD11D6F
:103D10000FB6F894DEBF0FBECDBFED010895F89445
:023D2000FFCFD3
:0A3D220000000000000000000F0088
:00000001FF
