:100000000C942A000C943F000C943F000C943F0089
:100010000C943F000C943F000C943F000C943F0064
:100020000C943F000C943F000C943F000C943F0054
:100030000C943F000C943F000C943F000C943F0044
:100040000C943F000C943F000C943F000C943F0034
:100050000C943F0011241FBECFE5D8E0DEBFCDBF1A
:1000600011E0A0E6B0E0E6E0FDE402C005900D92EC
:10007000AA37B107D9F70E9412230C9481260C9459
:100080000000A0E3B0E0E7E4F0E00C944A26A8E02A
:100090004E010894811C911CF401BA2F1192BA955B
:1000A000E9F729833A834B835C836D837E838F8357
:1000B0009887CE010996FC011192AA95E9F7A986C5
:1000C000BA86CB86DC86ED86FE860F87188B298163
:1000D0003A814B815C812DA73EA74FA758AB790190
:1000E0008A018FEF9FEFA0E0B0E0E822F9220A2317
:1000F0001B231A014424552429853A854B855C85A8
:1001000029A73AA74BA75CA759016A01A822B922DF
:10011000CA22DB223A0188249924C601B501A8012C
:1001200097010E9409266DA37EA38FA398A7C401FF
:10013000B3010E94092669A37AA38BA39CA3C601DD
:10014000B501A20191010E9409267B018C01C40125
:10015000B3010E9409265B016C0189A19AA1ABA1A0
:10016000BCA18E0D9F1DA01FB11F89A39AA3ABA395
:10017000BCA32DA13EA14FA158A5CA01AA27BB2708
:1001800029A13AA14BA15CA1280F391F4A1F5B1F6F
:1001900029A33AA34BA35CA32E153F0540075107A3
:1001A00040F480E090E0A1E0B0E0A80EB91ECA1EC5
:1001B000DB1E89A19AA1ABA1BCA19D0144275527B3
:1001C0002A0D3B1D4C1D5D1D2D8F3E8F4F8F58A35B
:1001D0006C01BB24AA248DA19EA1AFA1B8A5A070DB
:1001E000B070A80EB91ECA1EDB1EA98EBA8ECB8EA9
:1001F000DC8E9A8C8B8C7C8C9E8D6F8D78A1FE0111
:10020000719688E0DF011D928A95E9F72D8B9E8B10
:100210006F8B788F2D853E854F8558896DA57EA57E
:100220008FA598A90E9409267B018C012D813E8112
:100230004F81588569A57AA58BA59CA50E940926A2
:10024000E60EF71E081F191F6D897E898F89988D0C
:100250006E0D7F1D801F911F6D8B7E8B8F8B988FF6
:10026000EE892A2D392D482D572D7E2F8F89988D77
:10027000E096E2E10C946626EF92FF920F93DF93F3
:10028000CF93CDB7DEB760970FB6F894DEBF0FBE41
:10029000CDBFA82F002309F461C07E010894E11CA2
:1002A000F11C88E0F70111928A95E9F729833A83D6
:1002B0004B835C836D837E83AF83988780E2801B52
:1002C000E82FFF27E7FDF09549815A816B817C81FA
:1002D000181684F019861A861B861C86882799278B
:1002E0008E1B9F0B04C0440F551F661F771F8A95F6
:1002F000D2F728C0202F332727FD3095DB01CA0114
:10030000022E04C0880F991FAA1FBB1F0A94D2F7A0
:1003100089879A87AB87BC8704C076956795579580
:100320004795EA95D2F78D819E81AF81B88504C04B
:10033000880F991FAA1FBB1F2A95D2F7482B592B4C
:100340006A2B7B2B4D875E876F87788B29853A8553
:100350004B855C856D857E85AF8598898A2F6096F3
:100360000FB6F894DEBF0FBECDBFCF91DF910F91D6
:10037000FF90EF900895EF92FF920F931F937B01F0
:100380008C0120E030E040E05FE40E944C128823C2
:100390008CF0C801B70120E030E040E05FE40E944B
:1003A00018100E94AC129B01AC012050304040401C
:1003B000504806C0C801B7010E94AC129B01AC01B5
:1003C000B901CA011F910F91FF90EF900895AEE51A
:1003D000B0E0EDEEF1E00C944A26A8E04E0108945E
:1003E000811C911CF4016A2E11926A94E9F7298309
:1003F0003A834B835C836D837E838F839887CE01A2
:100400000996FC011192AA95E9F7A986BA86CB86CE
:10041000DC86ED86FE860F87188B29843A844B8410
:100420005C84ED84FE840F85188969807A808B80D6
:100430009C806DA67EA68FA698AA6D807E808F80F8
:100440009884E114F1040105110509F0B3C36214A5
:1004500073048404950408F03DC100E0201600E018
:10046000300601E0400600E0500688F41FEF211638
:1004700031044104510439F030F048E0E42EF12C0D
:10048000012D112D18C0EE24FF24870114C020E097
:10049000221620E0320620E0420621E0520630F02B
:1004A00038E1E32EF12C012D112D05C020E1E22EC3
:1004B000F12C012D112DD201C1010E2C04C0B695D5
:1004C000A795979587950A94D2F786589F4FDC0198
:1004D0002C9180E290E0A0E0B0E08E199F09A00B83
:1004E000B10B7C018D01E21AF10801091109E11437
:1004F000F10401051105A1F10E2C04C0220C331CDE
:10050000441C551C0A94D2F7A40193010E2C04C07C
:10051000220F331F441F551F0A94D2F780E290E048
:100520008E199F096DA47EA48FA498A804C09694E8
:100530008794779467948A95D2F7622A732A842ADB
:10054000952AADA4BEA4CFA4D8A804C0AA0CBB1CF5
:10055000CC1CDD1CEA94D2F7ADA6BEA6CFA6D8AAC5
:100560006201EE24FF24CDAADEAAEFAAF8AE920122
:1005700081012070307009AF1AAF2BAF3CAFC401BE
:10058000B301A70196010E9428267B018C01C401BA
:10059000B3012DA93EA94FA958AD0E942826C90133
:1005A000DA013C014D01C401B30129AD3AAD4BADB7
:1005B0005CAD0E9409269B01AC018701FF24EE245B
:1005C000ADA4BEA4CFA4D8A8C601AA27BB275701B3
:1005D0006801A82AB92ACA2ADB2AA216B306C406C9
:1005E000D506E0F408946108710881089108A20C0E
:1005F000B31CC41CD51CA214B304C404D50470F0ED
:10060000A216B306C406D50648F40894610871081A
:1006100081089108A20CB31CC41CD51CA21AB30AF1
:10062000C40AD50AC601B5012DA93EA94FA958ADE6
:100630000E9428267B018C01C601B5012DA93EA987
:100640004FA958AD0E942826C901DA015C016D014D
:10065000C601B50129AD3AAD4BAD5CAD0E9409268E
:100660009B01AC018701FF24EE248DA59EA5AFA5BB
:10067000B8A9A070B070E82AF92A0A2B1B2BE21641
:10068000F30604071507C0F40894A108B108C108CF
:10069000D108E20CF31C041D151DE214F30404053B
:1006A000150550F0E216F3060407150728F4089420
:1006B000A108B108C108D108D3019927882786016C
:1006C0007501E82AF92A0A2B1B2BE9AAFAAA0BAB17
:1006D0001CABCFC4211431044104510471F461E016
:1006E00070E080E090E020E030E040E050E00E94E8
:1006F0002826C901DA011C012D0100E0201600E0C6
:10070000300601E0400600E0500688F41FEF211695
:1007100031044104510431F028F048E050E060E039
:1007200070E017C040E050E060E070E012C020E0F0
:10073000221620E0320620E0420621E0520628F090
:1007400048E150E060E070E004C040E150E060E06B
:1007500070E0D201C101042E04C0B695A79597950B
:1007600087950A94D2F786589F4FDC012C91E0E2DE
:10077000EE2EF12C012D112DD801C701841B950BF4
:10078000A60BB70B821B9109A109B1090097A1051E
:10079000B10561F464015301A218B308C408D50877
:1007A00031E0632E712C812C912C1EC16F968FAF7E
:1007B0006F97082E04C0220C331C441C551C0A944D
:1007C000D2F7EE2DE81B640153010E2E04C0D6941F
:1007D000C794B794A7940A94D2F7A40193016F9693
:1007E0000FAC6F9704C0220F331F441F551F0A948C
:1007F000D2F76DA47EA48FA498A80E2E04C0969460
:100800008794779467940A94D2F784017301E22A5B
:10081000F32A042B152BE9A6FAA60BA71CA7320175
:1008200088249924920181012070307021960CAFA8
:100830001DAF2EAF3FAF2197C601B501A4019301B3
:100840000E9428267B018C01C601B501A4019301F9
:100850000E942826C901DA0125968CAF9DAFAEAF64
:10086000BFAF2597BC01CD0121962CAD3DAD4EAD5E
:100870005FAD21970E9409269B01AC018701FF24EF
:10088000EE24A9A4BAA4CBA4DCA4C601AA27BB2742
:100890005C016D01AE28BF28C02AD12AA216B3067A
:1008A000C406D50660F525966CAD7DAD8EAD9FADC9
:1008B0002597615070408040904025966CAF7DAF89
:1008C0008EAF9FAF2597A20CB31CC41CD51CA214DD
:1008D000B304C404D50498F0A216B306C406D50622
:1008E00070F4615070408040904025966CAF7DAFB1
:1008F0008EAF9FAF2597A20CB31CC41CD51CA21AA7
:10090000B30AC40AD50AC601B501A40193010E9425
:1009100028267B018C01C601B501A40193010E9428
:100920002826C901DA013C014D01C401B301219619
:100930002CAD3DAD4EAD5FAD21970E9409269B01C8
:10094000AC018701FF24EE2489A59AA5ABA5BCA51F
:10095000A070B07057016801A82AB92ACA2ADB2AF8
:10096000A216B306C406D506E0F40894610871081F
:1009700081089108A20CB31CC41CD51CA214B3049A
:10098000C404D50470F0A216B306C406D50648F414
:1009900008946108710881089108A20CB31CC41C5A
:1009A000D51C8DA59EA5AFA5B8A96F960FAC6F9766
:1009B00004C0880F991FAA1FBB1F0A94D2F78DA7E6
:1009C0009EA7AFA7B8ABA21AB30AC40AD50A259648
:1009D000ECACFDAC0EAD1FAD2597D701992788274C
:1009E000682A792A8A2A9B2A820122273327299674
:1009F0000CAF1DAF2EAF3FAF2997A2019101407000
:100A000050702D962CAF3DAF4EAF5FAF2D97C60106
:100A1000B50129962CAD3DAD4EAD5FAD29970E9435
:100A200028267B018C01C601B50129962CAD3DAD70
:100A30004EAD5FAD29970E942826C901DA01619663
:100A40008CAF9DAFAEAFBFAF6197BC01CD012D960E
:100A50002CAD3DAD4EAD5FAD2D970E9409269B019B
:100A6000AC018701FF24EE24ADA4BEA4CFA4D8A876
:100A7000C601AA27BB2757016801A82AB92ACA2A92
:100A8000DB2AA216B306C406D50660F561966CADE6
:100A90007DAD8EAD9FAD61976150704080409040BC
:100AA00061966CAF7DAF8EAF9FAF6197A20CB31C08
:100AB000C41CD51CA214B304C404D50498F0A21617
:100AC000B306C406D50670F4615070408040904073
:100AD00061966CAF7DAF8EAF9FAF6197A20CB31CD8
:100AE000C41CD51CA21AB30AC40AD50AC601B50192
:100AF00029962CAD3DAD4EAD5FAD29970E942826BD
:100B00007B018C01C601B50129962CAD3DAD4EADE2
:100B10005FAD29970E942826C901DA015C016D01A9
:100B2000C601B5012D962CAD3DAD4EAD5FAD2D97F7
:100B30000E9409269B01AC018701FF24EE248DA5AC
:100B40009EA5AFA5B8A9A070B070E82AF92A0A2B13
:100B50001B2BE216F30604071507C0F40894A1083E
:100B6000B108C108D108E20CF31C041D151DE214E4
:100B7000F3040405150550F0E216F3060407150703
:100B800028F40894A108B108C108D1086196ECAC1A
:100B9000FDAC0EAD1FAD6197D7019927882796014F
:100BA0008501082B192B2A2B3B2B09AB1AAB2BAB3E
:100BB0003CAB62C26E147F048006910608F451C2F9
:100BC00020E0E21620E0F20621E0020720E0120712
:100BD00088F43FEFE316F1040105110531F028F028
:100BE00048E050E060E070E017C040E050E060E0B6
:100BF00070E012C040E0E41640E0F40640E0040774
:100C000041E0140728F048E150E060E070E004C0E3
:100C100040E150E060E070E0D801C701042E04C05C
:100C2000B695A795979587950A94D2F786589F4FC2
:100C3000DC012C9130E2A32EB12CC12CD12CD60199
:100C4000C501841B950BA60BB70B821B9109A1094B
:100C5000B1090097A105B10589F4E614F704080568
:100C6000190508F4F2C16DA47EA48FA498A862149B
:100C700073048404950408F0E8C1F3C16E968FAF45
:100C80006E97082E04C0EE0CFF1C001F111F0A9463
:100C9000D2F76A2D681BD201C101062E04C0B69599
:100CA000A795979587950A94D2F75C016D01AE28B8
:100CB000BF28C02AD12AADA2BEA2CFA2D8A6720157
:100CC00061016E960FAC6E9704C0CC0CDD1CEE1C5F
:100CD000FF1C0A94D2F7C9A2DAA2EBA2FCA264011B
:100CE0005301062E04C0D694C794B794A7940A94CF
:100CF000D2F7D401C3016E960FAC6E9704C0880F73
:100D0000991FAA1FBB1F0A94D2F7EDA4FEA40FA53A
:100D100018A904C016950795F794E7946A95D2F739
:100D200037014801682A792A8A2A9B2A6D8E7E8E8D
:100D30008F8E98A2EDA0FEA00FA118A538018824DF
:100D40009924980187012070307065960CAF1DAF13
:100D50002EAF3FAF6597C601B501A40193010E9474
:100D600028267B018C01C601B501A40193010E94D4
:100D70002826C901DA011C012D01C201B1016596C5
:100D80002CAD3DAD4EAD5FAD65970E9409269B0130
:100D9000AC018701FF24EE24AD8CBE8CCF8CD8A093
:100DA000C601AA27BB2757016801A82AB92ACA2A5F
:100DB000DB2AA216B306C406D50600F5089421085E
:100DC000310841085108EDA0FEA00FA118A5AE0CF6
:100DD000BF1CC01ED11EAE14BF04C006D10670F0E9
:100DE000A216B306C406D50648F4089421083108B3
:100DF00041085108AE0CBF1CC01ED11EA21AB30A76
:100E0000C40AD50AC601B501A40193010E9428268F
:100E10007B018C01C601B501A40193010E94282623
:100E2000C901DA013C014D01C401B30165962CAD45
:100E30003DAD4EAD5FAD65970E9409269B01AC01AB
:100E40008701FF24EE248D8D9E8DAF8DB8A1A070FB
:100E5000B07057016801A82AB92ACA2ADB2AA2164B
:100E6000B306C406D50600F5089461087108810828
:100E700091086DA17EA18FA198A5A60EB71EC81ED0
:100E8000D91EA616B706C806D90670F0A216B30674
:100E9000C406D50648F408946108710881089108D1
:100EA000A60EB71EC81ED91ED601C501821B930B04
:100EB000A40BB50B898F9A8FAB8FBC8FD10199276B
:100EC000882764015301A82AB92ACA2ADB2AA9AAB9
:100ED000BAAACBAADCAA860175012FEF3FEF40E04A
:100EE00050E0E222F32204231523A6016627772788
:100EF0006D964CAF5DAF6EAF7FAF6D97A9A0BAA0F6
:100F0000CBA0DCA06FEF7FEF80E090E0A622B722BD
:100F1000C822D92289A19AA1ABA1BCA11D01442458
:100F20005524C801B701A60195010E9409266996BA
:100F30006CAF7DAF8EAF9FAF6997C801B701A201BB
:100F400091010E9409263B014C016D966CAD7DAD6F
:100F50008EAD9FAD6D97A60195010E9409267B017C
:100F60008C016D966CAD7DAD8EAD9FAD6D97A20180
:100F700091010E9409265B016C01A8019701260DD1
:100F8000371D481D591D69966CAC7DAC8EAC9FAC6D
:100F90006997C401AA27BB27280F391F4A1F5B1F67
:100FA0002E153F054007510748F4E12CF12C61E074
:100FB000062F112DAE0CBF1CC01ED11ECA01AA27C0
:100FC000BB27BC01CD016A0D7B1D8C1D9D1D698C4D
:100FD0007A8C8B8C9C8C661677068806990640F175
:100FE000661577058805990509F043C0D901992749
:100FF000882769962CAD3DAD4EAD5FAD69974070C9
:101000005070820F931FA41FB51F2DA53EA54FA59D
:1010100058A96E960FAC6E9704C0220F331F441F61
:10102000551F0A94D2F7281739074A075B0708F5B6
:1010300009A91AA92BA93CA9015010402040304011
:1010400009AB1AAB2BAB3CAB14C06624772443012D
:1010500021E030E040E050E029AB3AAB4BAB5CAB79
:101060000BC066247724430119AA1AAA1BAA1CAA3A
:1010700003C0662477244301FE01719688E0DF01F6
:101080001D928A95E9F7A9A8BAA8CBA8DCA8A98AD5
:10109000BA8ACB8ADC8A6D8A7E8A8F8A988E29A941
:1010A0003A894B895C89662D7E898F89988DC25AD1
:1010B000DF4FE2E10C946626ABE5B0E0E2E6F8E053
:1010C0000C944A26A8E04E010894811C911CF4015E
:1010D0006A2E11926A94E9F729833A834B835C83E1
:1010E0006D837E838F839887CE010996FC011192D0
:1010F000AA95E9F7A986BA86CB86DC86ED86FE86B8
:101100000F87188B29843A844B845C84AD84BE8419
:10111000CF84D88829813A814B815C8169962FAF31
:1011200069976A963FAF6A976B964FAF6B976C96CD
:101130005FAF6C976C966CAC7DAC8EAC9FAC6C97D3
:1011400069AA7AAA8BAA9CAA6D817E818F819885D3
:101150003B014C016DAA7EAA8FAA98AEA114B104DE
:10116000C104D10409F004C3621473048404950417
:1011700008F000C100E0201600E0300601E0400663
:1011800000E0500688F41FEF211631044104510499
:1011900039F030F088E0E82EF12C012D112D18C027
:1011A000EE24FF24870114C040E0241640E03406FA
:1011B00040E0440641E0540630F0B8E1EB2EF12C5B
:1011C000012D112D05C0A0E1EA2EF12C012D112DCC
:1011D000D201C1010E2C04C0B695A79597958795AD
:1011E0000A94D2F786589F4FDC012C9180E290E060
:1011F000A0E0B0E08E199F09A00BB10B5C016D015E
:10120000A21AB108C108D108A9AEBAAECBAEDCAE05
:10121000A114B104C104D10409F43FC069AD062E84
:1012200004C0220C331C441C551C0A94D2F7A401A0
:101230009301062E04C0220F331F441F551F0A942A
:10124000D2F780E290E08A199B096C96CCACDDACB9
:10125000EEACFFAC6C9704C0F694E794D794C794B7
:101260008A95D2F787017601E22AF32A042B152BFF
:10127000EDAAFEAA0FAB18AF6C968CAD9DADAEADCE
:10128000BFAD6C9704C0880F991FAA1FBB1F6A953A
:10129000D2F789AB9AABABABBCAB320188249924B3
:1012A000B201A1016070707021964CAF5DAF6EAF5E
:1012B0007FAF21976DA97EA98FA998ADA401930155
:1012C0000E9428267B018C016DA97EA98FA998AD6B
:1012D000A40193010E942826CA01B90121962CADD0
:1012E0003DAD4EAD5FAD21970E9409269B01AC013B
:1012F0008701FF24EE24A9A8BAA8CBA8DCA8C601C0
:10130000AA27BB2757016801A82AB92ACA2ADB2ABB
:10131000A216B306C406D50690F4A20CB31CC41CD6
:10132000D51CA214B304C404D50448F0A216B30615
:10133000C406D50620F4A20CB31CC41CD51CA21AEA
:10134000B30AC40AD50AC601B501A40193010E94DB
:1013500028267B018C01C601B501A40193010E94DE
:101360002826CA01B90121962CAD3DAD4EAD5FAD29
:101370002197BAC1211431044104510471F461E090
:1013800070E080E090E020E030E040E050E00E943B
:101390002826C901DA011C012D0100E0201600E019
:1013A000300601E0400600E0500688F41FEF2116E9
:1013B00031044104510439F030F068E0E62EF12C9C
:1013C000012D112D18C0EE24FF24870114C040E028
:1013D000241640E0340640E0440641E0540630F074
:1013E00058E1E52EF12C012D112D05C040E1E42E30
:1013F000F12C012D112DD201C1010E2C04C0B69586
:10140000A795979587950A94D2F786589F4FDC0148
:101410002C9130E2A32EB12CC12CD12CD601C501C8
:101420008E199F09A00BB10B7C018D01E21AF10806
:1014300001091109E9AEFAAE0BAF1CAFE114F104DA
:101440000105110539F464015301A218B308C40859
:10145000D508E2C0F9AC6896FFAE68970F2C04C0BF
:10146000220C331C441C551C0A94D2F78A2D8F1968
:1014700064015301082E04C0D694C794B794A7946E
:101480000A94D2F7A401930104C0220F331F441F12
:10149000551FFA94D2F76C966CAC7DAC8EAC9FACB9
:1014A0006C9704C096948794779467948A95D2F742
:1014B00084017301E22AF32A042B152BEDA6FEA664
:1014C0000FA718AB320188249924B201A1016070E2
:1014D000707025964CAF5DAF6EAF7FAF2597C6019C
:1014E000B501A40193010E9428267B018C01C6014D
:1014F000B501A40193010E942826CA01B9012596CD
:101500002CAD3DAD4EAD5FAD25970E9409269B01E8
:10151000AC018701FF24EE24ADA4BEA4CFA4D8A8BB
:10152000C601AA27BB275C016D01AE28BF28C02ACF
:10153000D12AA216B306C406D50690F4A20CB31C99
:10154000C41CD51CA214B304C404D50448F0A216CC
:10155000B306C406D50620F4A20CB31CC41CD51CCB
:10156000A21AB30AC40AD50AC601B501A40193019F
:101570000E9428267B018C01C601B501A4019301BC
:101580000E942826CA01B90125962CAD3DAD4EAD6D
:101590005FAD25970E9409269B01AC018701FF24BE
:1015A000EE248DA59EA5AFA5B8A9A070B070570177
:1015B0006801A82AB92ACA2ADB2AA216B306C406D9
:1015C000D50690F4A20CB31CC41CD51CA214B30401
:1015D000C404D50448F0A216B306C406D50620F408
:1015E000A20CB31CC41CD51C6C96ECACFDAC0EADAF
:1015F0001FAD6C9768960FAC689704C0EE0CFF1C8B
:10160000001F111F0A94D2F7E9AAFAAA0BAB1CAB70
:10161000A21AB30AC40AD50A320188249924B20155
:10162000A1016070707029964CAF5DAF6EAF7FAF57
:101630002997C601B501A40193010E9428267B01C8
:101640008C01C601B501A40193010E942826CA019C
:10165000B90129962CAD3DAD4EAD5FAD29970E94E5
:1016600009269B01AC018701FF24EE24A9A8BAA892
:10167000CBA8DCA8C601AA27BB2757016801A82A66
:10168000B92ACA2ADB2AA216B306C406D50690F4E4
:10169000A20CB31CC41CD51CA214B304C404D504EE
:1016A00048F0A216B306C406D50620F4A20CB31C5B
:1016B000C41CD51CA21AB30AC40AD50AC601B501B6
:1016C000A40193010E9428267B018C01C601B5016B
:1016D000A40193010E942826CA01B90129962CADC4
:1016E0003DAD4EAD5FAD29970E9409269B01AC012F
:1016F0008701FF24EE2489A99AA9ABA9BCA9A070EF
:10170000B070E82AF92A0A2B1B2BE216F30604070D
:10171000150790F4E20CF31C041D151DE214F304EC
:101720000405150548F0E216F3060407150720F432
:10173000E20CF31C041D151DE21AF30A040B150B31
:10174000D801C70109AC04C0B695A79597958795B0
:101750000A94D2F7898B9A8BAB8BBC8B1D8A1E8A1D
:101760001F8A188E282F3A894B895C896D890CC392
:101770006A147B048C049D0408F409C300E0A016DD
:1017800000E0B00601E0C00600E0D00688F41FEFDC
:10179000A116B104C104D10439F030F028E0E22EE2
:1017A000F12C012D112D18C0EE24FF24870114C047
:1017B00040E0A41640E0B40640E0C40641E0D40690
:1017C00030F098E1E92EF12C012D112D05C080E1BA
:1017D000E82EF12C012D112DD601C5010E2C04C0CF
:1017E000B695A795979587950A94D2F786589F4FF7
:1017F000DC012C9180E290E0A0E0B0E08E199F091E
:10180000A00BB10B821B9109A109B1090097A10599
:10181000B10509F04FC0A614B704C804D90458F0A4
:101820006C96ECACFDAC0EAD1FAD6C97E214F304FE
:101830000405150568F16C96ECACFDAC0EAD1FAD62
:101840006C97E218F30804091509A40193012A19F9
:101850003B094C095D09AA24BB2465016C966CAD5B
:101860007DAD8EAD9FAD6C976E157F05800791079E
:1018700028F4B1E0AB2EB12CC12CD12CDA01C90176
:101880008A199B09AC09BD098DAB9EABAFABB8AF54
:10189000E98AFA8A0B8B1C8B6DA87EA88FA898AC5E
:1018A0006D8A7E8A8F8A988E2E2D3A894B895C8923
:1018B0006DA96AC267968FAF6797A6019501082E3A
:1018C00004C0220F331F441F551F0A94D2F7A0E211
:1018D000AA2EA81A6696AFAE6697D201C10104C0BF
:1018E000B695A79597958795AA94D2F76C017D0137
:1018F000C22AD32AE42AF52AC9A6DAA6EBA6FCA6B0
:101900008201710167960FAC679704C0EE0CFF1C53
:10191000001F111F0A94D2F7EDA2FEA20FA318A771
:101920006401530166960FAC669704C0D694C794C1
:10193000B794A7940A94D2F7A401930167960FACC9
:10194000679704C0220F331F441F551F0A94D2F714
:101950006C968CAD9DADAEADBFAD6C9766960FAC81
:10196000669704C0B695A795979587950A94D2F780
:101970003C014D01622A732A842A952A69A27AA21F
:101980008BA29CA26C96ECACFDAC0EAD1FAD6C971F
:1019900067960FAC679704C0EE0CFF1C001F111F69
:1019A0000A94D2F7ED8EFE8E0F8F18A349A55AA583
:1019B0006BA57CA53B0188249924607070702D96DE
:1019C0004CAF5DAF6EAF7FAF2D97C601B501A401DF
:1019D00093010E9428267B018C01C601B501A40158
:1019E00093010E942826C901DA011C012D01C201C0
:1019F000B1012D962CAD3DAD4EAD5FAD2D970E9442
:101A000009269B01AC018701FF24EE24A9A0BAA0FE
:101A1000CBA0DCA0C601AA27BB2757016801A82AD2
:101A2000B92ACA2ADB2AA216B306C406D50600F5CF
:101A300008942108310841085108E9A4FAA40BA52B
:101A40001CA5AE0CBF1CC01ED11EAE14BF04C00628
:101A5000D10670F0A216B306C406D50648F4089461
:101A60002108310841085108AE0CBF1CC01ED11E10
:101A7000A21AB30AC40AD50AC601B501A40193018A
:101A80000E9428267B018C01C601B501A4019301A7
:101A90000E942826C901DA013C014D01C401B301AD
:101AA0002D962CAD3DAD4EAD5FAD2D970E94092614
:101AB0009B01AC018701FF24EE2489A19AA1ABA16F
:101AC000BCA1A070B07057016801A82AB92ACA2A1F
:101AD000DB2AA216B306C406D50600F508946108F1
:101AE00071088108910869A57AA58BA59CA5A60E09
:101AF000B71EC81ED91EA616B706C806D90670F0AE
:101B0000A216B306C406D50648F408946108710805
:101B100081089108A60EB71EC81ED91ED601C501A0
:101B2000821B930BA40BB50B898F9A8FAB8FBC8F45
:101B3000D1019927882784017301E82AF92A0A2B01
:101B40001B2B4FEFA42E4FEFB42EC12CD12CAE2067
:101B5000BF20C022D1227801002711276DA07EA0CE
:101B60008FA098A44FEF5FEF60E070E064227522D1
:101B7000862297228DA19EA1AFA1B8A5BD0188277D
:101B8000992765966CAF7DAF8EAF9FAF6597C60105
:101B9000B501A40193010E94092661966CAF7DAF47
:101BA0008EAF9FAF6197C601B50165962CAD3DAD77
:101BB0004EAD5FAD65970E9409261B012C01C8013F
:101BC000B701A40193010E9409265B016C01C801C1
:101BD000B70165962CAD3DAD4EAD5FAD65970E94EA
:101BE00009267B018C01A6019501220D331D441DA0
:101BF000551D61966CAC7DAC8EAC9FAC6197C401F9
:101C0000AA27BB27280F391F4A1F5B1F2A153B0530
:101C10004C055D0548F4812C912CE1E0AE2EB12CF1
:101C2000E80CF91C0A1D1B1DCA01AA27BB27570176
:101C30006801A80EB91ECA1EDB1EA9013327222780
:101C400061968CAD9DADAEADBFAD6197A070B0702B
:101C5000280F391F4A1F5B1FE98CFA8C0B8D1C8DD6
:101C6000EA14FB040C051D0570F0AE14BF04C00699
:101C7000D10669F56D8D7E8D8F8D98A162177307E2
:101C80008407950720F5DA01C9016DA07EA08FA019
:101C900098A486199709A809B909E9A4FAA40BA57B
:101CA0001CA5AE18BF08C00AD10AEE24FF24870184
:101CB000281739074A075B0728F421E0E22EF12CA8
:101CC000012D112DAE18BF08C00AD10A02C0DA01D9
:101CD000C9016D8C7E8C8F8C98A0681A790A8A0A4B
:101CE0009B0A498D5A8D6B8D7C8D4A195B096C0955
:101CF0007D095A016B012224332421016D8D7E8DD3
:101D00008F8D98A1661577058805990528F481E0DF
:101D1000282E312C412C512C86017501E218F30834
:101D200004091509A801970166960FAC669704C0CF
:101D3000220F331F441F551F0A94D2F7D401C30149
:101D400067960FAC679704C0B695A795979587954A
:101D50000A94D2F7282B392B4A2B5B2B298B3A8BF1
:101D60004B8B5C8B67960FAC679704C016950795F5
:101D7000F794E7940A94D2F7ED8AFE8A0F8B188FB6
:101D80003A894B895C896E2D7E898F89988DC55AD9
:101D9000DF4FE2E10C946626A0E0B0E0E2EDFEE069
:101DA0000C944A26DC012B01FA019C91923008F434
:101DB00039C1EB018881823008F433C1943069F471
:101DC000843009F02FC111969C9111978981981741
:101DD00009F428C1A2E7B0E025C1843009F421C18B
:101DE0008230A9F4923009F01DC19A01AD0188E05A
:101DF000EA010990AE01E90109929E018150C1F703
:101E0000E201898111969C918923818308C19230D6
:101E100009F407C112962D903C901397EB018A812B
:101E20009B811496AD90BD90CD90DC901797EC807F
:101E3000FD800E811F819101281B390BB90137FFED
:101E400004C066277727621B730B603271050CF0A4
:101E500061C0121613066CF537014801062E04C046
:101E600096948794779467940A94D2F721E030E0AF
:101E700040E050E004C0220F331F441F551F6A95F5
:101E8000D2F721503040404050402E213F21402386
:101E90005123211531054105510521F021E030E0A4
:101EA00040E050E079018A01E628F728082919293D
:101EB0003CC0232BD1F1260E371E35014601062EDC
:101EC00004C096948794779467940A94D2F721E09B
:101ED00030E040E050E004C0220F331F441F551F84
:101EE0006A95D2F721503040404050402A213B2192
:101EF0004C215D21211531054105510521F021E0DD
:101F000030E040E050E059016A01A628B728C8280F
:101F1000D9280BC0821593052CF01C01AA24BB24E0
:101F2000650103C0EE24FF24870111969C91D20124
:101F300011968C91981709F445C0992339F0A8019E
:101F400097012A193B094C095D0906C0A6019501B4
:101F50002E193F09400B510B57FD08C011823382E7
:101F6000228224833583468357831DC081E0818389
:101F70003382228288279927DC01821B930BA40BD2
:101F8000B50B84839583A683B7830DC0220F331FBF
:101F9000441F551F24833583468357838281938151
:101FA0000197938382832481358146815781DA01A9
:101FB000C9010197A109B1098F5F9F4FAF4FBF437F
:101FC00028F30BC0918333822282EA0CFB1C0C1D88
:101FD0001D1DE482F5820683178383E080832481BC
:101FE00035814681578157FF1AC0C901AA2797FD3D
:101FF000A095BA2F81709070A070B07056954795DB
:1020000037952795822B932BA42BB52B848395830F
:10201000A683B78382819381019693838283DF01B4
:1020200001C0D201CD01CDB7DEB7E2E10C94662646
:10203000A0E2B0E0EEE1F0E10C94562669837A83E9
:102040008B839C832D833E834F835887E9E0EE2E5C
:10205000F12CEC0EFD1ECE010196B7010E94D513A6
:102060008E010F5E1F4FCE010596B8010E94D51359
:102070008A8991E089278A8BC701B801AE01475E42
:102080005F4F0E94CC0E0E940013A096E6E00C94D5
:102090007226A0E2B0E0EFE4F0E10C9456266983EA
:1020A0007A838B839C832D833E834F835887F9E00B
:1020B000EF2EF12CEC0EFD1ECE010196B7010E9411
:1020C000D5138E010F5E1F4FCE010596B8010E94F9
:1020D000D513C701B801AE01475E5F4F0E94CC0E19
:1020E0000E940013A096E6E00C947226A0E2B0E0F5
:1020F000ECE7F0E10C944A2669837A838B839C8316
:102100002D833E834F835887CE010196BE01675FC2
:102110007F4F0E94D513CE010596BE016F5E7F4FA3
:102120000E94D5139985923088F089898230C8F051
:10213000943019F4823051F404C0843029F4923080
:1021400081F482E790E0C6C0923049F420E09A859D
:102150008A89981321E02A87CE010996BBC0823074
:1021600049F420E09A858A89981321E02A8BCE01D0
:102170004196B0C02D843E844F8458886D887E88F7
:102180008F88988CEE24FF248701AA24BB24650144
:1021900040E050E060E070E0E0E0F0E0C10181701C
:1021A0009070892BE9F0E60CF71C081D191D9A01A7
:1021B000AB012A0D3B1D4C1D5D1D80E090E0A0E0B1
:1021C000B0E0E614F7040805190520F481E090E07A
:1021D000A0E0B0E0BA01A901480F591F6A1F7B1F98
:1021E000AA0CBB1CCC1CDD1C97FE08C081E090E053
:1021F000A0E0B0E0A82AB92ACA2ADB2A3196E03248
:10220000F10549F0660C771C881C991C569447947C
:1022100037942794C3CFFA85EA892B893C898B852B
:102220009C85280F391F2E5F3F4F17C0CA01817050
:102230009070892B61F016950795F794E79480E0EC
:1022400090E0A0E0B0E8E82AF92A0A2B1B2B76954B
:102250006795579547952F5F3F4F77FDE7CF0CC0A8
:10226000440F551F661F771F17FD4160EE0CFF1CC2
:10227000001F111F21503040403090E0590790E07E
:10228000690790E4790760F32B8F3C8FDB01CA016B
:102290008F779070A070B07080349105A105B10562
:1022A00061F447FD0AC0E114F1040105110529F0AC
:1022B000405C5F4F6F4F7F4F40781A8EFE1711F0D2
:1022C00081E08A8F4D8F5E8F6F8F78A383E0898F37
:1022D000CE0149960E940013A096E2E10C94662676
:1022E000A8E1B0E0E6E7F1E10C94522669837A8335
:1022F0008B839C832D833E834F835887B9E0EB2EDD
:10230000F12CEC0EFD1ECE010196B7010E94D513F3
:102310008E010F5E1F4FCE010596B8010E94D513A6
:102320002985223008F47EC03989323010F4B80192
:102330007CC08A859A8989278A87243011F02230C7
:1023400031F4231709F06EC062E770E06EC03430DC
:1023500039F41D861E861F86188A1C861B8604C0BB
:10236000323021F484E08987B7015FC02B853C853A
:102370008B899C89281B390B3C872B87ED84FE8435
:102380000F851889AD88BE88CF88D88CEA14FB04E5
:102390000C051D0540F4EE0CFF1C001F111F215001
:1023A00030403C872B8720E030E040E050E080E088
:1023B00090E0A0E0B0E460E070E0EA14FB040C05FB
:1023C0001D0540F0282B392B4A2B5B2BEA18FB0804
:1023D0000C091D09B695A79597958795EE0CFF1CDE
:1023E000001F111F6F5F7F4F6F31710531F7DA01E9
:1023F000C9018F779070A070B07080349105A105ED
:10240000B10561F427FD0AC0E114F10401051105CD
:1024100029F0205C3F4F4F4F5F4F20782D873E873C
:102420004F87588BBE01675F7F4FCB010E9400131F
:102430006896EAE00C946E26A8E1B0E0E2E2F2E1F0
:102440000C94562669837A838B839C832D833E83E9
:102450004F83588789E0E82EF12CEC0EFD1ECE014B
:102460000196B7010E94D5138E010F5E1F4FCE015A
:102470000596B8010E94D5138985823040F089897C
:10248000823028F0C701B8010E944D1401C08FEFBF
:102490006896E6E00C947226A8E1B0E0E2E5F2E18D
:1024A0000C94562669837A838B839C832D833E8389
:1024B0004F83588789E0E82EF12CEC0EFD1ECE01EB
:1024C0000196B7010E94D5138E010F5E1F4FCE01FA
:1024D0000596B8010E94D5138985823040F089891C
:1024E000823028F0C701B8010E944D1401C08FEF5F
:1024F0006896E6E00C947226A8E1B0E0E2E8F2E12A
:102500000C94562669837A838B839C832D833E8328
:102510004F83588789E0E82EF12CEC0EFD1ECE018A
:102520000196B7010E94D5138E010F5E1F4FCE0199
:102530000596B8010E94D5138985823040F08989BB
:10254000823028F0C701B8010E944D1401C081E01B
:102550006896E6E00C947226ACE0B0E0E2EBF2E1C3
:102560000C945A2669837A838B839C83CE010196CF
:10257000BE016B5F7F4F0E94D5138D81823061F168
:10258000823050F1843021F48E81882351F12EC0A5
:102590002F81388537FD20C06E812F3131051CF029
:1025A0006623F9F023C08EE190E0821B930B29850E
:1025B0003A854B855C8504C0569547953795279598
:1025C0008A95D2F76623B1F05095409530952195C4
:1025D0003F4F4F4F5F4F0EC020E030E040E050E0F3
:1025E00009C02FEF3FEF4FEF5FE704C020E030E07E
:1025F00040E050E8B901CA012C96E2E00C9476263E
:10260000DF92EF92FF920F931F93FC01E480F5801D
:1026100006811781D1808081823048F480E090E08B
:10262000A0E1B0E0E82AF92A0A2B1B2BA5C08430D0
:1026300009F49FC0823021F4EE24FF24870105C0F5
:10264000E114F1040105110519F4E0E0F0E096C091
:10265000628173819FEF623879070CF05BC022E8DA
:102660003FEF261B370B2A3131052CF020E030E0FC
:1026700040E050E02AC0B801A701022E04C07695C0
:102680006795579547950A94D2F781E090E0A0E0CE
:10269000B0E004C0880F991FAA1FBB1F2A95D2F76C
:1026A0000197A109B1098E219F21A023B123009791
:1026B000A105B10521F081E090E0A0E0B0E09A0131
:1026C000AB01282B392B4A2B5B2BDA01C9018F7701
:1026D0009070A070B07080349105A105B10539F4F7
:1026E00027FF09C0205C3F4F4F4F5F4F04C0215C64
:1026F0003F4F4F4F5F4FE0E0F0E02030A0E03A075F
:10270000A0E04A07A0E45A0710F0E1E0F0E0790108
:102710008A0127C06038710564F5FB01E158FF4F5D
:10272000D801C7018F779070A070B0708034910588
:10273000A105B10539F4E7FE0DC080E490E0A0E00A
:10274000B0E004C08FE390E0A0E0B0E0E80EF91E36
:102750000A1F1B1F17FF05C016950795F794E794EE
:10276000319687E016950795F794E7948A95D1F707
:1027700005C0EE24FF248701EFEFF0E06E2F679590
:1027800066276795902F9F77D794DD24D7948E2F57
:102790008695492F462B582F5D29B701CA011F91F5
:1027A0000F91FF90EF90DF900895FC01DB014081D5
:1027B00051812281622F6F7770E0221F2227221F12
:1027C0009381892F880F822B282F30E0991F99271A
:1027D000991F11969C93119721153105A9F5411563
:1027E00051056105710511F482E037C082E89FEF61
:1027F00013969C938E9312979A01AB0167E0220F78
:10280000331F441F551F6A95D1F783E08C930DC089
:10281000220F331F441F551F12968D919C911397C1
:10282000019713969C938E931297203080E038077F
:1028300080E0480780E4580758F314962D933D93A1
:102840004D935C93179708952F3F310579F4411507
:1028500051056105710519F484E08C93089564FFB6
:1028600003C081E08C9312C01C9210C02F573040DF
:1028700013963C932E93129783E08C9387E0440F3A
:10288000551F661F771F8A95D1F7706414964D9374
:102890005D936D937C93179708951F93DC01FB0163
:1028A0009C91923008F447C08081823008F443C084
:1028B000943051F411961C91843099F58181682FE0
:1028C00070E0611B71093FC0843021F0923031F417
:1028D0008230B9F18181882389F12DC011961C9134
:1028E00011978230F1F081811817D9F412962D9149
:1028F0003C911397828193818217930794F0281754
:102900003907BCF014968D919D910D90BC91A02D2E
:102910002481358146815781281739074A075B078B
:1029200018F4112341F00AC082179307A407B507D2
:1029300040F4112319F061E070E005C06FEF7FEF04
:1029400002C060E070E0CB011F910895DF93CF9348
:10295000CDB7DEB7E7E2F0E080E48083E6E2F0E0C6
:1029600087E88083A7E2B0E0E7E2F0E080818F7D36
:102970008C93CF91DF9108952F923F924F925F9267
:102980006F927F928F929F92AF92BF92CF92DF927F
:10299000EF92FF920F931F93DF93CF930F92CDB7D8
:1029A000DEB78983A7E2B0E0E7E2F0E08081807ED5
:1029B0008C93A7E2B0E0E7E2F0E08081982F898174
:1029C0008F71892B8C93A6E2B0E0E6E2F0E0808183
:1029D00080648C93A6E2B0E0E6E2F0E080818F7D37
:1029E0008C93E6E2F0E0808182958F70882F90E0F2
:1029F000817090700097A9F3A6E2B0E0E6E2F0E003
:102A0000808180618C93E4E2F0E0808191815C01BF
:102A1000CC24DD24EE24FF2487012A2D3B2D4C2DD0
:102A20005D2D6E2D7F2D802F912F0F2EF8E8AF2E6C
:102A3000F02D0F2EF3E1BF2EF02DCC24DD24EE245B
:102A4000FF2400E010E00E944100222E332E442E8D
:102A5000552E662E772E882E992EA22CB32CC42CA0
:102A6000D52CE62CF72C082D192D2A2D3B2D4C2D7D
:102A70005D2D6E2D7F2D802F912FAA24AA940F2ECD
:102A8000F3E0BF2EF02DCC24DD24EE24FF2400E063
:102A900010E00E94E701A22EB32EC42ED52EE62E02
:102AA000F72E082F192F2A2D3B2D4C2D5D2D6E2D25
:102AB0007F2D802F912FC9010F90CF91DF911F9112
:102AC0000F91FF90EF90DF90CF90BF90AF909F90CD
:102AD0008F907F906F905F904F903F902F900895D0
:102AE000DF93CF93CDB7DEB7A6E2B0E0E6E2F0E049
:102AF00080818F778C93E7E2F0E01082CF91DF91B5
:102B00000895DF93CF93CDB7DEB727970FB6F8942C
:102B1000DEBF0FBECDBF89836A834B838B8181303B
:102B200009F06FC08981282F30E03F832E838E818A
:102B30009F818130910549F12E813F8122303105FD
:102B40002CF48E819F81009761F0D2C02E813F814D
:102B50002230310571F18E819F8183309105E9F139
:102B6000C7C0AAE3B0E0EAE3F0E08081482F8A81A1
:102B7000282F30E081E090E0022E02C0880F991FDC
:102B80000A94E2F7842B8C93B3C0A7E3B0E0E7E3A9
:102B9000F0E08081482F8A81282F30E081E090E0AA
:102BA000022E02C0880F991F0A94E2F7842B8C939F
:102BB0009FC0A4E3B0E0E4E3F0E08081482F8A8185
:102BC000282F30E081E090E0022E02C0880F991F8C
:102BD0000A94E2F7842B8C938BC0A1E3B0E0E1E38D
:102BE000F0E08081482F8A81282F30E081E090E05A
:102BF000022E02C0880F991F0A94E2F7842B8C934F
:102C000077C08B81882309F073C08981282F30E039
:102C10003D832C838C819D818130910559F12C81DC
:102C20003D81223031052CF48C819D81009769F023
:102C30005FC02C813D812230310589F18C819D81DD
:102C40008330910509F440C053C0AAE3B0E0EAE341
:102C5000F0E08081482F8A81282F30E081E090E0E9
:102C6000022E02C0880F991F0A94E2F780958423F0
:102C70008C933EC0A7E3B0E0E7E3F0E08081482F0B
:102C80008A81282F30E081E090E0022E02C0880F78
:102C9000991F0A94E2F7809584238C9329C0A4E3BA
:102CA000B0E0E4E3F0E08081482F8A81282F30E013
:102CB00081E090E0022E02C0880F991F0A94E2F78B
:102CC000809584238C9314C0A1E3B0E0E1E3F0E0AD
:102CD0008081482F8A81282F30E081E090E0022E09
:102CE00002C0880F991F0A94E2F7809584238C9381
:102CF00027960FB6F894DEBF0FBECDBFCF91DF9100
:102D00000895DF93CF9300D000D0CDB7DEB789838D
:102D10006A838981282F30E03C832B838B819C81BF
:102D200081309105D1F02B813C81223031052CF48A
:102D30008B819C81009761F01EC02B813C812230E9
:102D4000310581F08B819C818330910581F013C026
:102D5000EAE3F0E08A8180830EC0E7E3F0E08A8155
:102D6000808309C0E4E3F0E08A81808304C0E1E36A
:102D7000F0E08A8180830F900F900F900F90CF9199
:102D8000DF910895DF93CF93CDB7DEB727970FB6C6
:102D9000F894DEBF0FBECDBF89836A834B838B81DE
:102DA000813009F06FC08981282F30E03F832E8366
:102DB0008E819F818130910549F12E813F812230A2
:102DC00031052CF48E819F81009761F0D2C02E8155
:102DD0003F812230310571F18E819F8183309105D1
:102DE000E9F1C7C0ABE3B0E0EBE3F0E08081482F4E
:102DF0008A81282F30E081E090E0022E02C0880F07
:102E0000991F0A94E2F7842B8C93B3C0A8E3B0E037
:102E1000E8E3F0E08081482F8A81282F30E081E0CC
:102E200090E0022E02C0880F991F0A94E2F7842BCB
:102E30008C939FC0A5E3B0E0E5E3F0E08081482FEC
:102E40008A81282F30E081E090E0022E02C0880FB6
:102E5000991F0A94E2F7842B8C938BC0A2E3B0E015
:102E6000E2E3F0E08081482F8A81282F30E081E082
:102E700090E0022E02C0880F991F0A94E2F7842B7B
:102E80008C9377C08B81882309F073C08981282FA8
:102E900030E03D832C838C819D818130910559F1F7
:102EA0002C813D81223031052CF48C819D8100974D
:102EB00069F05FC02C813D812230310589F18C8120
:102EC0009D818330910509F440C053C0ABE3B0E06D
:102ED000EBE3F0E08081482F8A81282F30E081E009
:102EE00090E0022E02C0880F991F0A94E2F78095A5
:102EF00084238C933EC0A8E3B0E0E8E3F0E0808157
:102F0000482F8A81282F30E081E090E0022E02C015
:102F1000880F991F0A94E2F7809584238C9329C027
:102F2000A5E3B0E0E5E3F0E08081482F8A81282F17
:102F300030E081E090E0022E02C0880F991F0A94D1
:102F4000E2F7809584238C9314C0A2E3B0E0E2E31F
:102F5000F0E08081482F8A81282F30E081E090E0E6
:102F6000022E02C0880F991F0A94E2F780958423ED
:102F70008C9327960FB6F894DEBF0FBECDBFCF91CE
:102F8000DF910895DF93CF9300D000D0CDB7DEB7A7
:102F900089836A838981282F30E03C832B838B814E
:102FA0009C8181309105D1F02B813C81223031050B
:102FB0002CF48B819C81009761F01EC02B813C8199
:102FC0002230310581F08B819C818330910581F025
:102FD00013C0EBE3F0E08A8180830EC0E8E3F0E009
:102FE0008A81808309C0E5E3F0E08A81808304C0A0
:102FF000E2E3F0E08A8180830F900F900F900F90B2
:10300000CF91DF910895DF93CF9300D000D0CDB75B
:10301000DEB789836A838981282F30E03C832B8344
:103020008B819C818130910549F12B813C8122303B
:1030300031052CF48B819C81009761F05AC02B8163
:103040003C812230310571F18B819C818330910567
:10305000E9F14FC0ABE3B0E0EBE3F0E08081482F53
:103060008A81282F30E081E090E0022E02C0880F94
:10307000991F0A94E2F784278C933BC0A8E3B0E041
:10308000E8E3F0E08081482F8A81282F30E081E05A
:1030900090E0022E02C0880F991F0A94E2F784275D
:1030A0008C9327C0A5E3B0E0E5E3F0E08081482FF2
:1030B0008A81282F30E081E090E0022E02C0880F44
:1030C000991F0A94E2F784278C9313C0A2E3B0E01F
:1030D000E2E3F0E08081482F8A81282F30E081E010
:1030E00090E0022E02C0880F991F0A94E2F784270D
:1030F0008C930F900F900F900F90CF91DF910895C8
:10310000DF93CF9300D000D000D0CDB7DEB7898356
:103110006A838981282F30E03D832C834C815D8137
:103120004130510549F18C819D818230910534F403
:103130002C813D812115310561F057C04C815D81A5
:103140004230510561F18C819D8183309105D1F12F
:103150004CC0E9E3F0E08081282F30E08A81882F9D
:1031600090E0A90102C0559547958A95E2F7CA01FA
:10317000582F51705B833AC0E6E3F0E08081282F3E
:1031800030E08A81882F90E0A90102C055954795CB
:103190008A95E2F7CA01582F51705B8327C0E3E399
:1031A000F0E08081282F30E08A81882F90E0A9010B
:1031B00002C0559547958A95E2F7CA01582F51707C
:1031C0005B8314C0E0E3F0E08081282F30E08A8147
:1031D000882F90E0A90102C0559547958A95E2F79E
:1031E000CA01582F51705B8301C002C08B818E834E
:1031F0008E8126960FB6F894DEBF0FBECDBFCF915D
:10320000DF910895DF93CF93CDB7DEB7AFE5B0E0A0
:10321000EFE5F0E0808180688C93CF91DF91089595
:10322000DF93CF93CDB7DEB7AFE5B0E0EFE5F0E0E9
:1032300080818F778C93CF91DF910895DF93CF9327
:10324000CDB7DEB76D970FB6F894DEBF0FBECDBF1A
:103250008D8F83E060E040E00E94C21682E06D8DB9
:103260000E94C21783E061E041E00E94C21680E044
:1032700090E0A0E8BFE3898F9A8FAB8FBC8F698DF8
:103280007A8D8B8D9C8D20E030E04AEF54E40E94D3
:103290007610DC01CB018D8B9E8BAF8BB88F6D8947
:1032A0007E898F89988D20E030E040E85FE30E94BE
:1032B0007C1288232CF481E090E09C8B8B8B3FC0A8
:1032C0006D897E898F89988D20E03FEF4FE757E425
:1032D0000E941C1218164CF5698D7A8D8B8D9C8D71
:1032E00020E030E040E251E40E947610DC01CB01A6
:1032F000BC01CD010E94BB01DC01CB019C8B8B8BFF
:103300000FC088EC90E09A8B898B89899A89019704
:10331000F1F79A8B898B8B899C8901979C8B8B8B7E
:103320008B899C89009769F714C06D897E898F8984
:10333000988D0E94BB01DC01CB019C8B8B8B8B8910
:103340009C89988B8F878F8598890197F1F7988B47
:103350008F8783E061E040E00E94C21680E090E049
:10336000A0E0B0E48B879C87AD87BE876B857C85AA
:103370008D859E8520E030E04AEF54E40E9476106F
:10338000DC01CB018F839887A987BA876F81788505
:1033900089859A8520E030E040E85FE30E947C1256
:1033A00088232CF481E090E09E838D833FC06F8161
:1033B000788589859A8520E03FEF4FE757E40E94A2
:1033C0001C1218164CF56B857C858D859E8520E03A
:1033D00030E040E251E40E947610DC01CB01BC01F8
:1033E000CD010E94BB01DC01CB019E838D830FC008
:1033F00088EC90E09C838B838B819C810197F1F713
:103400009C838B838D819E8101979E838D838D818B
:103410009E81009769F714C06F81788589859A85A8
:103420000E94BB01DC01CB019E838D838D819E8137
:103430009A83898389819A810197F1F79A83898395
:103440006D960FB6F894DEBF0FBECDBFCF91DF9162
:1034500008950F931F93DF93CF93CDB7DEB7C45674
:10346000D0400FB6F894DEBF0FBECDBF83E060E062
:1034700041E00E94811583E061E041E00E948115F6
:1034800082E06FEF0E948116FE01EF59FF4F80E04E
:1034900090E0A0E2B2E480839183A283B3838E01A3
:1034A000035A1F4FFE01EF59FF4F608171818281E6
:1034B000938120E030E04AEF54E40E947610DC0172
:1034C000CB01F80180839183A283B383FE01E35A89
:1034D000FF4F608171818281938120E030E040E87C
:1034E0005FE30E947C12882344F4FE01E55AFF4FFB
:1034F00081E090E09183808364C0FE01E35AFF4F36
:10350000608171818281938120E03FEF4FE757E432
:103510000E941C1218160CF043C0FE01EF59FF4F19
:10352000608171818281938120E030E040E251E44A
:103530000E947610DC01CB018E01055A1F4FBC01A1
:10354000CD010E94BB01DC01CB01F8019183808396
:103550001FC0FE01E75AFF4F88EC90E09183808303
:10356000FE01E75AFF4F808191810197F1F7FE013B
:10357000E75AFF4F91838083DE01A55ABF4FFE01BA
:10358000E55AFF4F80819181019711969C938E930C
:10359000FE01E55AFF4F808191810097D1F627C047
:1035A0008E01055A1F4FFE01E35AFF4F6081718162
:1035B000828193810E94BB01DC01CB01F8019183E0
:1035C0008083DE01A95ABF4FFE01E55AFF4F80817B
:1035D00091818D939C93FE01E95AFF4F80819181E7
:1035E0000197F1F7FE01E95AFF4F918380838CE345
:1035F0000E941E19FE01ED5AFF4F80E090E0A0E20C
:10360000B2E480839183A283B3838E01015B1F4F59
:10361000FE01ED5AFF4F60817181828193812BEA17
:103620003AEA4AE250E40E947610DC01CB01F8014C
:1036300080839183A283B383FE01E15BFF4F6081AE
:1036400071818281938120E030E040E85FE30E9455
:103650007C12882334F4FE01E25BFF4F81E080831B
:10366000E0C0FE01E15BFF4F608171818281938147
:1036700020E030E04FE753E40E941C1218160CF0D3
:10368000C0C0FE01ED5AFF4F60817181828193813C
:1036900020E030E04AE754E40E947011DC01CB01E5
:1036A000FE01E65BFF4F80839183A283B3838E018B
:1036B0000A5B1F4FFE01E65BFF4F608171818281D3
:1036C000938120E030E04AEF54E40E947610DC0160
:1036D000CB01F80180839183A283B383FE01EA5B6F
:1036E000FF4F608171818281938120E030E040E86A
:1036F0005FE30E947C12882344F4FE01EC5BFF4FE1
:1037000081E090E09183808364C0FE01EA5BFF4F1B
:10371000608171818281938120E03FEF4FE757E420
:103720000E941C1218160CF043C0FE01E65BFF4F0E
:10373000608171818281938120E030E040E251E438
:103740000E947610DC01CB018E010C5B1F4FBC0187
:10375000CD010E94BB01DC01CB01F8019183808384
:103760001FC0FE01EE5BFF4F88EC90E091838083E9
:10377000FE01EE5BFF4F808191810197F1F7FE0121
:10378000EE5BFF4F91838083DE01AC5BBF4FFE0198
:10379000EC5BFF4F80819181019711969C938E93F2
:1037A000FE01EC5BFF4F808191810097D1F642C012
:1037B0008E010C5B1F4FFE01EA5BFF4F6081718140
:1037C000828193810E94BB01DC01CB01F8019183CE
:1037D0008083DE01A05CBF4FFE01EC5BFF4F808168
:1037E000918111969C938E93FE01E05CFF4F808146
:1037F00091810197F1F7FE01E05CFF4F9183808397
:1038000019C08E01025B1F4FFE01E15BFF4F60811B
:103810007181828193810E94BB01DC01CB01F8019F
:103820008083FE01E25BFF4F80818FAF8FAD8A9571
:10383000F1F78FAF8CE00E941E1980E090E0A0E2CB
:10384000B2E48BAF9CAFADAFBEAF6BAD7CAD8DAD19
:103850009EAD2BEA3AEA4AE250E40E947610DC017F
:10386000CB018FAB98AFA9AFBAAF6FA978AD89ADD7
:103870009AAD20E030E040E85FE30E947C128823AC
:103880001CF481E08EAB91C06FA978AD89AD9AAD83
:1038900020E030E04FE753E40E941C1218160CF0B1
:1038A0007BC06BAD7CAD8DAD9EAD20E030E04AE7D6
:1038B00054E40E947011DC01CB018AAB9BABACAB32
:1038C000BDAB6AA97BA98CA99DA920E030E04AEF95
:1038D00054E40E947610DC01CB018EA79FA7A8AB11
:1038E000B9AB6EA57FA588A999A920E030E040E892
:1038F0005FE30E947C1288232CF481E090E09DA776
:103900008CA73FC06EA57FA588A999A920E03FEFAD
:103910004FE757E40E941C1218164CF56AA97BA9C0
:103920008CA99DA920E030E040E251E40E9476108D
:10393000DC01CB01BC01CD010E94BB01DC01CB014C
:103940009DA78CA70FC088EC90E09BA78AA78AA5AB
:103950009BA50197F1F79BA78AA78CA59DA5019729
:103960009DA78CA78CA59DA5009769F724C06EA57F
:103970007FA588A999A90E94BB01DC01CB019DA765
:103980008CA78CA59DA599A788A788A599A501971F
:10399000F1F799A788A70FC06FA978AD89AD9AAD47
:1039A0000E94BB01DC01CB018EAB8EA98FA38FA13E
:1039B0008A95F1F78FA386E00E941E1980E090E0BF
:1039C000A0E2B2E48BA39CA3ADA3BEA36BA17CA198
:1039D0008DA19EA12BEA3AEA4AE250E40E947610B9
:1039E000DC01CB018F8F98A3A9A3BAA36F8D78A117
:1039F00089A19AA120E030E040E85FE30E947C12B8
:103A000088231CF481E08E8F91C06F8D78A189A1ED
:103A10009AA120E030E04FE753E40E941C121816F0
:103A20000CF07BC06BA17CA18DA19EA120E030E0B9
:103A30004AE754E40E947011DC01CB018A8F9B8F0E
:103A4000AC8FBD8F6A8D7B8D8C8D9D8D20E030E09D
:103A50004AEF54E40E947610DC01CB018E8B9F8BE1
:103A6000A88FB98F6E897F89888D998D20E030E08D
:103A700040E85FE30E947C1288232CF481E090E010
:103A80009D8B8C8B3FC06E897F89888D998D20E0BE
:103A90003FEF4FE757E40E941C1218164CF56A8D51
:103AA0007B8D8C8D9D8D20E030E040E251E40E94C2
:103AB0007610DC01CB01BC01CD010E94BB01DC0111
:103AC000CB019D8B8C8B0FC088EC90E09B8B8A8BFD
:103AD0008A899B890197F1F79B8B8A8B8C899D89B9
:103AE00001979D8B8C8B8C899D89009769F724C0E9
:103AF0006E897F89888D998D0E94BB01DC01CB0185
:103B00009D8B8C8B8C899D89998B888B88899989D1
:103B10000197F1F7998B888B0FC06F8D78A189A1E0
:103B20009AA10E94BB01DC01CB018E8F8E8D8F8705
:103B30008F858A95F1F78F8781E00E941E1980E0BA
:103B400090E0A0E0B0E48B879C87AD87BE876B8553
:103B50007C858D859E8520E030E04AEF54E40E940C
:103B60007610DC01CB018F839887A987BA876F8194
:103B7000788589859A8520E030E040E85FE30E94FF
:103B80007C1288232CF481E090E09E838D833FC0DB
:103B90006F81788589859A8520E03FEF4FE757E46C
:103BA0000E941C1218164CF56B857C858D859E85B0
:103BB00020E030E040E251E40E947610DC01CB01CD
:103BC000BC01CD010E94BB01DC01CB019E838D8332
:103BD0000FC088EC90E09C838B838B819C81019744
:103BE000F1F79C838B838D819E8101979E838D83CA
:103BF0008D819E81009769F714C06F8178858985D2
:103C00009A850E94BB01DC01CB019E838D838D814F
:103C10009E819A83898389819A810197F1F79A839A
:103C20008983CC59DF4F0FB6F894DEBF0FBECDBFEE
:103C3000CF91DF911F910F910895DF93CF93CDB76F
:103C4000DEB76D970FB6F894DEBF0FBECDBF8D8F78
:103C500083E060E041E00E94C21682E06D8D0E9428
:103C6000C21783E061E041E00E94C21680E090E06C
:103C7000A0E8BFE3898F9A8FAB8FBC8F698D7A8D57
:103C80008B8D9C8D20E030E04AEF54E40E9476104A
:103C9000DC01CB018D8B9E8BAF8BB88F6D897E89BC
:103CA0008F89988D20E030E040E85FE30E947C122D
:103CB00088232CF481E090E09C8B8B8B3FC06D8936
:103CC0007E898F89988D20E03FEF4FE757E40E946F
:103CD0001C1218164CF5698D7A8D8B8D9C8D20E009
:103CE00030E040E251E40E947610DC01CB01BC01DF
:103CF000CD010E94BB01DC01CB019C8B8B8B0FC0E3
:103D000088EC90E09A8B898B89899A890197F1F7E1
:103D10009A8B898B8B899C8901979C8B8B8B8B8948
:103D20009C89009769F714C06D897E898F89988D69
:103D30000E94BB01DC01CB019C8B8B8B8B899C8906
:103D4000988B8F878F8598890197F1F7988B8F874C
:103D500083E061E040E00E94C21680E090E0A0E0D5
:103D6000B0E48B879C87AD87BE876B857C858D850E
:103D70009E8520E030E04AEF54E40E947610DC019A
:103D8000CB018F839887A987BA876F8178858985CA
:103D90009A8520E030E040E85FE30E947C128823AF
:103DA0002CF481E090E09E838D833FC06F81788505
:103DB00089859A8520E03FEF4FE757E40E941C1267
:103DC00018164CF56B857C858D859E8520E030E04E
:103DD00040E251E40E947610DC01CB01BC01CD0130
:103DE0000E94BB01DC01CB019E838D830FC088EC58
:103DF00090E09C838B838B819C810197F1F79C835E
:103E00008B838D819E8101979E838D838D819E8181
:103E1000009769F714C06F81788589859A850E941B
:103E2000BB01DC01CB019E838D838D819E819A83B2
:103E3000898389819A810197F1F79A8389836D96A5
:103E40000FB6F894DEBF0FBECDBFCF91DF910895BE
:103E5000DF93CF93CDB7DEB76B970FB6F894DEBF85
:103E60000FBECDBF9B8F8A8F198ED2C0898D8F30A8
:103E700019F480EC0E941E19898D282F30E08A8D5C
:103E80009B8DFC01E20FF31F80810E941D1E80E0CC
:103E900090E0A0E8BFE38D8B9E8BAF8BB88F6D89D0
:103EA0007E898F89988D2BEA3AEA4AE250E40E9493
:103EB0007610DC01CB01898B9A8BAB8BBC8B69892B
:103EC0007A898B899C8920E030E040E85FE30E949A
:103ED0007C1288231CF481E0888B91C069897A89DF
:103EE0008B899C8920E030E04FE753E40E941C124C
:103EF00018160CF07BC06D897E898F89988D20E023
:103F000030E04AE754E40E947011DC01CB018C8759
:103F10009D87AE87BF876C857D858E859F8520E0D8
:103F200030E04AEF54E40E947610DC01CB01888730
:103F30009987AA87BB87688579858A859B8520E0D4
:103F400030E040E85FE30E947C1288232CF481E09B
:103F500090E09F838E833FC0688579858A859B85A5
:103F600020E03FEF4FE757E40E941C1218164CF573
:103F70006C857D858E859F8520E030E040E251E4B0
:103F80000E947610DC01CB01BC01CD010E94BB0177
:103F9000DC01CB019F838E830FC088EC90E09D8372
:103FA0008C838C819D810197F1F79D838C838E8119
:103FB0009F8101979F838E838E819F81009769F7F0
:103FC00024C0688579858A859B850E94BB01DC01B8
:103FD000CB019F838E838E819F819B838A838A817D
:103FE0009B810197F1F79B838A830FC069897A8946
:103FF0008B899C890E94BB01DC01CB01888B88895D
:10400000898389818A95F1F78983898D8F5F898F6B
:10401000898D282F30E08A8D9B8DFC01E20FF31FE4
:104020008081882309F022CF6B960FB6F894DEBF0B
:104030000FBECDBFCF91DF910895DF93CF9300D016
:1040400000D0CDB7DEB78B836C8381E090E09A839C
:10405000898312C08B81282F30E089819A81AC013D
:10406000429FC001439F900D529F900D11249A834F
:1040700089838C8181508C838C81882359F7898135
:104080009A810F900F900F900F90CF91DF9108952C
:104090002F923F924F925F926F927F928F929F9258
:1040A000AF92BF92CF92DF92EF92FF920F931F9346
:1040B000DF93CF93CDB7DEB7C554D0400FB6F89499
:1040C000DEBF0FBECDBF2B873C874D875E876F87D6
:1040D000788B898B9A8B1B821C821D821E821F8289
:1040E000188619861A861A828B859C85892B9D8550
:1040F000892B9E85892B9F85892B9889892B998966
:10410000892B9A89892B882339F480E30E941D1E0C
:1041100041C28A818F5F8A838AE06A810E941D2062
:104120001C01442455246624772443012B853C85B7
:104130004D855E856F85788989899A89A22CB32CF3
:10414000C42CD52CE62CF72C082D192D0E94E70144
:10415000A22EB32EC42ED52EE62EF72E082F192F01
:104160002A2D3B2D4C2D5D2D6E2D7F2D802F912FD7
:10417000E22FE32BE42BE52BE62BE72BE82BE92BB7
:10418000EE2339F68A81815089839AC1AB84BC843D
:10419000CD84DE84EF84F88809891A892A2D3B2D85
:1041A0004C2D5D2D6E2D7F2D802F912F0F2EFAE03F
:1041B000AF2EF02DBB24CC24DD24EE24FF2400E020
:1041C00010E00E945C08A22EB32EC42ED52EE62E3F
:1041D000F72E082F192F2A2C3B2C4C2C5D2C6E2CE3
:1041E0007F2C802E912E99818AE0692F0E941D20BC
:1041F0008C0120E030E040E050E060E070E00B8FA8
:104200001C8F2D8F3E8F4F8F58A369A37AA3222D29
:10421000332D442D552D662D772D882D992DAB8C62
:10422000BC8CCD8CDE8CEF8CF8A009A11AA10E9469
:104230004100A22EB32EC42ED52EE62EF72E082F27
:10424000192FAB8ABC8ACD8ADE8AEF8AF88E098F55
:104250001A8F1B811BA32C812CA33D813DA34E8172
:104260004EA35F815FA3688568A7798579A78A8552
:104270008AA79BA10B89900F9BA711E01BAB2BA5D5
:104280003BA1231708F01BAA4CA15C89450F4CA742
:1042900061E06CAB7CA58CA1781708F01CAA9BA9E7
:1042A0000CA5900F9DAB11E01EAB2DA93CA52317CB
:1042B00008F01EAA4CA95EA9452B4CAB6DA96CA7B2
:1042C0007DA18D89780F7DA791E09FAB0DA51DA1E4
:1042D000011708F01FAA2CA93DA5230F28AF41E024
:1042E00049AF58AD6DA5561708F019AE7FA989AD35
:1042F000782B7FAB98AD9DA70EA11E89010F0EA74D
:1043000021E02AAF3EA54EA1341708F01AAE5FA9EE
:104310006EA5560F5BAF71E07CAF8BAD9EA5891784
:1043200008F01CAE0AAD1CAD012B0AAF2BAD2EA7B9
:104330003FA14F89340F3FA751E05DAF6FA57FA12B
:10434000671708F01DAE8AAD9FA5890F8EAF01E0FB
:104350000FAF1EAD2FA5121708F01FAE3DAD4FAD2C
:10436000342B3DAF5EAD5FA768A5788D670F68AB56
:1043700081E021968FAF219798A908A5901718F092
:1043800021961FAE21971DAD28A9120F22961FAFAF
:10439000229731E023963FAF239722964FAD229785
:1043A00058A9451718F023961FAE239721966FAD95
:1043B000219723967FAD2397672B21966FAF219787
:1043C00022968FAD229788AB99A5098D900F99AB56
:1043D00011E024961FAF249729A939A5231718F0B7
:1043E00024961FAE249721964FAD219759A9450FCA
:1043F00025964FAF259761E026966FAF26972596B5
:104400007FAD259789A9781718F026961FAE2697B5
:1044100024969FAD249726960FAD2697902B249631
:104420009FAF249725961FAD259719AB2AA53A8DE6
:10443000230F2AAB24968FAD24974AA9840F8AAB09
:104440005BA55B836CA56C837DA57D838EA58E8328
:104450009FA59F8308A9088719A919872AA92A87D0
:10446000AB84BC84CD84DE84EF84F88809891A8902
:104470002A2D3B2D4C2D5D2D6E2D7F2D802F912FC4
:104480000F2EFAE0AF2EF02DBB24CC24DD24EE2439
:10449000FF2400E010E00E94E701A22EB32EC42EFC
:1044A000D52EE62EF72E082F192FAB86BC86CD868B
:1044B000DE86EF86F88A098B1A8B89818150898381
:1044C000898188230CF062CE61C0AB80BC80CD8036
:1044D000DE80EF80F88409851A852A2D3B2D4C2D2E
:1044E0005D2D6E2D7F2D802F912F0F2EFAE0AF2E98
:1044F000F02DBB24CC24DD24EE24FF2400E010E0CA
:104500000E945C08A22EB32EC42ED52EE62EF72EC6
:10451000082F192F2A2D3B2D4C2D5D2D6E2D7F2D13
:10452000802F912F822F805D0E941D1EAB80BC804A
:10453000CD80DE80EF80F88409851A852A2D3B2DF9
:104540004C2D5D2D6E2D7F2D802F912F0F2EFAE09B
:10455000AF2EF02DBB24CC24DD24EE24FF2400E07C
:1045600010E00E94E701A22EB32EC42ED52EE62E17
:10457000F72E082F192FAB82BC82CD82DE82EF820C
:10458000F88609871A878A8181508A838A818823DD
:1045900009F09BCFCB5BDF4F0FB6F894DEBF0FBEA9
:1045A000CDBFCF91DF911F910F91FF90EF90DF90E2
:1045B000CF90BF90AF909F908F907F906F905F90C3
:1045C0004F903F902F900895DF93CF9300D00F929C
:1045D000CDB7DEB78A836B8319828A81882319F469
:1045E00080E8898305C08A81813011F480EC898359
:1045F0008B81803120F489819B81890F8983898116
:104600000E941E190F900F900F90CF91DF91089587
:10461000DF93CF93CDB7DEB781E00E941E19CF9113
:10462000DF910895AF92BF92CF92DF92EF92FF9207
:104630000F931F93DF93CF93CDB7DEB7C055D04014
:104640000FB6F894DEBF0FBECDBF0E94291A0E949C
:10465000A61480E060E00E94E42280E690E00E94E0
:10466000281F80E00E94BC145C01CC24DD24EE24D1
:10467000FF2487012A2D3B2D4C2D5D2D6E2D7F2D86
:10468000802F912F0E94482085E690E00E94281FED
:1046900088E690E00E94281F80E00E94BC148C01F4
:1046A00020E030E040E050E060E070E00B831C83ED
:1046B0002D833E834F83588769877A87AB80BC8080
:1046C000CD80DE80EF80F88409851A852A2D3B2D68
:1046D0004C2D5D2D6E2D7F2D802F912F05E00E949A
:1046E0003C012B873C874D875E876F87788B898B52
:1046F0009A8B1B852B81121B1B8B31E03B8F4B89C7
:104700005B85541708F01B8E6C857C81671B6C8B56
:1047100081E08C8F9C890C85091708F01C8E1C8900
:104720002B8D121B1D8F31E03E8F4D8D5C895417F0
:1047300008F01E8E6C8D7E8D672B6C8F8D8D8C8B13
:104740009D850D81901B9D8B11E01F8F2D893D85CF
:10475000321708F01F8E4D895C8D451B48A361E020
:1047600069A378A18D89871708F019A29F8D09A1E7
:10477000902B9F8F18A11D8B2E853E81231B2E8B86
:1047800041E04AA35E896E85651708F01AA27E890A
:104790008F8D781B7BA391E09CA30BA11E89101722
:1047A00008F01CA22AA13CA1232B2AA34BA14E8BCB
:1047B0005F856F81561B5F8B71E07DA38F899F851D
:1047C000981708F01DA20F891AA1011B0EA321E062
:1047D0002FA33EA14F89431708F01FA25DA16FA12F
:1047E000562B5DA37EA17F8B88899885891B888F36
:1047F00001E008A7188D2889211708F018A6388D20
:104800004DA1341B39A751E05AA769A5788D7617B9
:1048100008F01AA688A59AA5892B88A709A5088F4C
:1048200019892985121B198F31E03BA7498D5989B8
:10483000541708F01BA6698D78A5671B6CA781E04B
:104840008DA79CA5098D091708F01DA61BA52DA5F0
:10485000122B1BA73CA5398F4A895A85451B4A8FC5
:104860008A8D6BA5861B8A8F7B897B878C898C8739
:104870009D899D870E890E871F891F87288D288B0C
:10488000398D398B4A8D4A8B2B853C854D855E85CC
:104890006F85788989899A8905E00E943C012EA755
:1048A0003FA748AB59AB6AAB7BAB8CAB9DAB5B8591
:1048B0006EA5560F5EAB71E07EAF8EA99B85891702
:1048C00008F01EAE0C851FA5010F0FAB21E02FAF26
:1048D0003FA94C85341708F01FAE5EAD6FA9560F87
:1048E00021965FAF219771E022967FAF22972196A4
:1048F0008FAD21979FA9891718F022961FAE229796
:104900000FAD22961FAD2297012B0FAF21962FAD31
:1049100021972FAB3D8548A9340F38AF51E023963E
:104920005FAF239768AD7D85671718F023961FAE9C
:1049300023978FAD98AD890F24968FAF249701E010
:1049400025960FAF259724961FAD249728AD1217F3
:1049500018F025961FAE259723963FAD23972596F1
:104960004FAD2597342B23963FAF239724965FAD09
:10497000249758AF6E8579A9670F69AF81E02696B5
:104980008FAF269799AD0E85901718F026961FAE1B
:10499000269723961FAD239729AD120F27961FAF99
:1049A000279731E028963FAF289727964FAD279756
:1049B00059AD451718F028961FAE289726966FAD6B
:1049C000269728967FAD2897672B26966FAF269758
:1049D00027968FAD279789AF9F850AA9900F9AAF29
:1049E00011E029961FAF29972AAD3F85231718F0AC
:1049F00029961FAE299726964FAD26975AAD450F9B
:104A00002A964FAF2A9761E02B966FAF2B972A9685
:104A10007FAD2A978AAD781718F02B961FAE2B978B
:104A200029969FAD29972B960FAD2B97902B299602
:104A30009FAF29972A961FAD2A971AAF28893BA9BD
:104A4000230F2BAF41E02C964FAF2C975BAD6889BD
:104A5000561718F02C961FAE2C9729967FAD2997E4
:104A60008BAD780F2D967FAF2D9791E02E969FAF4F
:104A70002E972D960FAD2D971BAD011718F02E9682
:104A80001FAE2E972C962FAD2C972E963FAD2E97BE
:104A9000232B2C962FAF2C972D964FAD2D974BAFE8
:104AA00059896CA9560F5CAF71E02F967FAF2F9795
:104AB0008CAD9989891718F02F961FAE2F972C96D9
:104AC0000FAD2C971CAD010F60960FAF609721E0E2
:104AD00061962FAF619760963FAD60974CAD3417EC
:104AE00018F061961FAE61972F965FAD2F97619674
:104AF0006FAD6197562B2F965FAF2F9760967FAD66
:104B000060977CAF8A899DA9890F8DAF2F968FAD55
:104B10002F970DAD800F8DAFAEA8BFA8C8ACD9AC94
:104B2000EAACFBAC0CAD1DAD2A2D3B2D4C2D5D2D03
:104B30006E2D7F2D802F912F0F2EF8E8AF2EF02DA8
:104B40000F2EF3E1BF2EF02DCC24DD24EE24FF2424
:104B500000E010E00E94E701A22EB32EC42ED52E55
:104B6000E62EF72E082F192F2A2D3B2D4C2D5D2DCB
:104B70006E2D7F2D802F912F3A83298389819A81F1
:104B80005C01CC24DD24EE24FF2487012A2D3B2D5B
:104B90004C2D5D2D6E2D7F2D802F912F0E94482052
:104BA00081E060E00E94E4228CE690E00E94281FF1
:104BB00080E00E94BC142AE030E0B9010E94F52593
:104BC000CB015C01CC24DD24EE24FF2487012A2DB7
:104BD0003B2D4C2D5D2D6E2D7F2D802F912F0E9412
:104BE000482083E40E941D1E34CDAA1BBB1B51E14B
:104BF00007C0AA1FBB1FA617B70710F0A61BB70B4D
:104C0000881F991F5A95A9F780959095BC01CD01F1
:104C10000895629FD001739FF001829FE00DF11D06
:104C2000649FE00DF11D929FF00D839FF00D749F26
:104C3000F00D659FF00D9927729FB00DE11DF91FD2
:104C4000639FB00DE11DF91FBD01CF01112408952F
:104C5000A1E21A2EAA1BBB1BFD010DC0AA1FBB1F80
:104C6000EE1FFF1FA217B307E407F50720F0A21BF2
:104C7000B30BE40BF50B661F771F881F991F1A945F
:104C800069F760957095809590959B01AC01BD0189
:104C9000CF0108952F923F924F925F926F927F9231
:104CA0008F929F92AF92BF92CF92DF92EF92FF923C
:104CB0000F931F93CF93DF93CDB7DEB7CA1BDB0BE8
:104CC0000FB6F894DEBF0FBECDBF09942A8839888D
:104CD00048885F846E847D848C849B84AA84B98494
:104CE000C884DF80EE80FD800C811B81AA81B981A0
:104CF000CE0FD11D0FB6F894DEBF0FBECDBFED01B4
:064D00000895F894FFCFB6
:104D0600414E413A006D560020443A0054454D50FC
:104D16003A00000000000000000000010202030348
:104D26000303040404040404040405050505050539
:104D36000505050505050505050506060606060617
:104D460006060606060606060606060606060606FD
:104D560006060606060606060606070707070707E7
:104D660007070707070707070707070707070707CD
:104D760007070707070707070707070707070707BD
:104D860007070707070707070707070707070707AD
:104D96000707070707070707070708080808080897
:104DA600080808080808080808080808080808087D
:104DB600080808080808080808080808080808086D
:104DC600080808080808080808080808080808085D
:104DD600080808080808080808080808080808084D
:104DE600080808080808080808080808080808083D
:104DF600080808080808080808080808080808082D
:104E0600080808080808080808080808080808081C
:0A4E16000808080808080808080842
:00000001FF
