:100000000C942A000C9447000C9447000C94470071
:100010000C9447000C9447000C9447000C94470044
:100020000C9447000C9447000C9447000C94470034
:100030000C9447000C9447000C9447000C94470024
:100040000C9447000C9447000C9447000C94470014
:100050000C94470011241FBECFE5D8E0DEBFCDBF12
:1000600010E0A0E6B0E0E4E9F2E302C005900D92F2
:10007000A83DB107D9F710E0A8EDB0E001C01D928E
:10008000A33EB107E1F70E944F140C9448190C9459
:100090000000EF92FF920F931F937B018C0120E0F1
:1000A00030E040E05FE40E94F50388238CF0C80153
:1000B000B70120E030E040E05FE40E94C1010E940F
:1000C00055049B01AC01205030404040504806C0D0
:1000D000C801B7010E9455049B01AC01B901CA01D6
:1000E0001F910F91FF90EF900895A0E0B0E0EBE733
:1000F000F0E00C945418DC012B01FA019C91923031
:1001000008F439C1EB018881823008F433C194309E
:1001100069F4843009F02FC111969C91119789815F
:10012000981709F428C1ACE6B0E025C1843009F481
:1001300021C18230A9F4923009F01DC19A01AD01AC
:1001400088E0EA010990AE01E90109929E0181501F
:10015000C1F7E201898111969C918923818308C1AD
:10016000923009F407C112962D903C901397EB0141
:100170008A819B811496AD90BD90CD90DC901797AD
:10018000EC80FD800E811F819101281B390BB90184
:1001900037FF04C066277727621B730B6032710537
:1001A0000CF061C0121613066CF537014801062EDB
:1001B00004C096948794779467940A94D2F721E0C8
:1001C00030E040E050E004C0220F331F441F551FB1
:1001D0006A95D2F721503040404050402E213F21B7
:1001E00040235123211531054105510521F021E01E
:1001F00030E040E050E079018A01E628F72808293C
:1002000019293CC0232BD1F1260E371E350146019A
:10021000062E04C096948794779467940A94D2F734
:1002200021E030E040E050E004C0220F331F441FC3
:10023000551F6A95D2F721503040404050402A2146
:100240003B214C215D21211531054105510521F04E
:1002500021E030E040E050E059016A01A628B728CB
:10026000C828D9280BC0821593052CF01C01AA249C
:10027000BB24650103C0EE24FF24870111969C91E5
:10028000D20111968C91981709F445C0992339F041
:10029000A80197012A193B094C095D0906C0A6016E
:1002A00095012E193F09400B510B57FD08C01182D3
:1002B0003382228224833583468357831DC081E0A5
:1002C00081833382228288279927DC01821B930B4A
:1002D000A40BB50B84839583A683B7830DC0220F2F
:1002E000331F441F551F24833583468357838281E0
:1002F000938101979383828324813581468157813D
:10030000DA01C9010197A109B1098F5F9F4FAF4F72
:10031000BF4328F30BC0918333822282EA0CFB1C7B
:100320000C1D1D1DE482F5820683178383E0808304
:10033000248135814681578157FF1AC0C901AA27F8
:1003400097FDA095BA2F81709070A070B0705695EF
:10035000479537952795822B932BA42BB52B848318
:100360009583A683B7838281938101969383828349
:10037000DF0101C0D201CD01CDB7DEB7E2E10C94BF
:100380007018A0E2B0E0E7ECF1E00C94601869832B
:100390007A838B839C832D833E834F835887E9E048
:1003A000EE2EF12CEC0EFD1ECE010196B7010E943F
:1003B0007E058E010F5E1F4FCE010596B8010E948B
:1003C0007E058A8991E089278A8BC701B801AE0131
:1003D000475E5F4F0E9475000E94A904A096E6E068
:1003E0000C947C18A0E2B0E0E8EFF1E00C94601807
:1003F00069837A838B839C832D833E834F835887C5
:10040000F9E0EF2EF12CEC0EFD1ECE010196B701A6
:100410000E947E058E010F5E1F4FCE010596B8012A
:100420000E947E05C701B801AE01475E5F4F0E9482
:1004300075000E94A904A096E6E00C947C18A0E246
:10044000B0E0E5E2F2E00C94541869837A838B8380
:100450009C832D833E834F835887CE010196BE0136
:10046000675F7F4F0E947E05CE010596BE016F5EDD
:100470007F4F0E947E059985923088F0898982306D
:10048000C8F0943019F4823051F404C0843029F457
:10049000923081F48CE690E0C6C0923049F420E0BE
:1004A0009A858A89981321E02A87CE010996BBC0D4
:1004B000823049F420E09A858A89981321E02A8BBA
:1004C000CE014196B0C02D843E844F8458886D88FB
:1004D0007E888F88988CEE24FF248701AA24BB2471
:1004E000650140E050E060E070E0E0E0F0E0C10174
:1004F00081709070892BE9F0E60CF71C081D191D1E
:100500009A01AB012A0D3B1D4C1D5D1D80E090E062
:10051000A0E0B0E0E614F7040805190520F481E036
:1005200090E0A0E0B0E0BA01A901480F591F6A1F8E
:100530007B1FAA0CBB1CCC1CDD1C97FE08C081E0F5
:1005400090E0A0E0B0E0A82AB92ACA2ADB2A3196B6
:10055000E032F10549F0660C771C881C991C569412
:10056000479437942794C3CFFA85EA892B893C892D
:100570008B859C85280F391F2E5F3F4F17C0CA01FE
:1005800081709070892B61F016950795F794E79428
:1005900080E090E0A0E0B0E8E82AF92A0A2B1B2BC3
:1005A00076956795579547952F5F3F4F77FDE7CF36
:1005B0000CC0440F551F661F771F17FD4160EE0CDE
:1005C000FF1C001F111F21503040403090E05907A0
:1005D00090E0690790E4790760F32B8F3C8FDB0193
:1005E000CA018F779070A070B07080349105A1051A
:1005F000B10561F447FD0AC0E114F10401051105DC
:1006000029F0405C5F4F6F4F7F4F40781A8EFE1786
:1006100011F081E08A8F4D8F5E8F6F8F78A383E01A
:10062000898FCE0149960E94A904A096E2E10C941C
:100630007018A8E1B0E0EFE1F3E00C945C18698376
:100640007A838B839C832D833E834F835887B9E0C5
:10065000EB2EF12CEC0EFD1ECE010196B7010E948F
:100660007E058E010F5E1F4FCE010596B8010E94D8
:100670007E052985223008F47EC03989323010F495
:10068000B8017CC08A859A8989278A87243011F02D
:10069000223031F4231709F06EC06CE670E06EC0B2
:1006A000343039F41D861E861F86188A1C861B86E8
:1006B00004C0323021F484E08987B7015FC02B8504
:1006C0003C858B899C89281B390B3C872B87ED84C3
:1006D000FE840F851889AD88BE88CF88D88CEA142F
:1006E000FB040C051D0540F4EE0CFF1C001F111F40
:1006F000215030403C872B8720E030E040E050E044
:1007000080E090E0A0E0B0E460E070E0EA14FB0478
:100710000C051D0540F0282B392B4A2B5B2BEA18C2
:10072000FB080C091D09B695A79597958795EE0CC2
:10073000FF1C001F111F6F5F7F4F6F31710531F775
:10074000DA01C9018F779070A070B0708034910584
:10075000A105B10561F427FD0AC0E114F10401050A
:10076000110529F0205C3F4F4F4F5F4F20782D87B8
:100770003E874F87588BBE01675F7F4FCB010E943A
:10078000A9046896EAE00C947818A8E1B0E0EBECD4
:10079000F3E00C94601869837A838B839C832D83A8
:1007A0003E834F83588789E0E82EF12CEC0EFD1E26
:1007B000CE010196B7010E947E058E010F5E1F4F8C
:1007C000CE010596B8010E947E058985823040F0F1
:1007D0008989823028F0C701B8010E94F60501C05E
:1007E0008FEF6896E6E00C947C18A8E1B0E0EBEFA0
:1007F000F3E00C94601869837A838B839C832D8348
:100800003E834F83588789E0E82EF12CEC0EFD1EC5
:10081000CE010196B7010E947E058E010F5E1F4F2B
:10082000CE010596B8010E947E058985823040F090
:100830008989823028F0C701B8010E94F60501C0FD
:100840008FEF6896E6E00C947C18A8E1B0E0EBE24C
:10085000F4E00C94601869837A838B839C832D83E6
:100860003E834F83588789E0E82EF12CEC0EFD1E65
:10087000CE010196B7010E947E058E010F5E1F4FCB
:10088000CE010596B8010E947E058985823040F030
:100890008989823028F0C701B8010E94F60501C09D
:1008A00081E06896E6E00C947C18ACE0B0E0EBE503
:1008B000F4E00C94641869837A838B839C83CE0163
:1008C0000196BE016B5F7F4F0E947E058D81823055
:1008D00061F1823050F1843021F48E81882351F10E
:1008E0002EC02F81388537FD20C06E812F31310514
:1008F0001CF06623F9F023C08EE190E0821B930B7D
:1009000029853A854B855C8504C056954795379572
:1009100027958A95D2F76623B1F05095409530958A
:1009200021953F4F4F4F5F4F0EC020E030E040E039
:1009300050E009C02FEF3FEF4FEF5FE704C020E02A
:1009400030E040E050E8B901CA012C96E2E00C9496
:100950008018DF92EF92FF920F931F93FC01E480C7
:10096000F58006811781D1808081823048F480E053
:1009700090E0A0E1B0E0E82AF92A0A2B1B2BA5C0E1
:10098000843009F49FC0823021F4EE24FF248701D3
:1009900005C0E114F1040105110519F4E0E0F0E0EF
:1009A00096C0628173819FEF623879070CF05BC05B
:1009B00022E83FEF261B370B2A3131052CF020E0CF
:1009C00030E040E050E02AC0B801A701022E04C088
:1009D00076956795579547950A94D2F781E090E010
:1009E000A0E0B0E004C0880F991FAA1FBB1F2A9582
:1009F000D2F70197A109B1098E219F21A023B1232C
:100A00000097A105B10521F081E090E0A0E0B0E001
:100A10009A01AB01282B392B4A2B5B2BDA01C90138
:100A20008F779070A070B07080349105A105B105EA
:100A300039F427FF09C0205C3F4F4F4F5F4F04C080
:100A4000215C3F4F4F4F5F4FE0E0F0E02030A0E0EF
:100A50003A07A0E04A07A0E45A0710F0E1E0F0E00E
:100A600079018A0127C06038710564F5FB01E158FE
:100A7000FF4FD801C7018F779070A070B07080349D
:100A80009105A105B10539F4E7FE0DC080E490E0C1
:100A9000A0E0B0E004C08FE390E0A0E0B0E0E80E9A
:100AA000F91E0A1F1B1F17FF05C016950795F7941F
:100AB000E794319687E016950795F794E7948A9521
:100AC000D1F705C0EE24FF248701EFEFF0E06E2F91
:100AD000679566276795902F9F77D794DD24D794E5
:100AE0008E2F8695492F462B582F5D29B701CA01B5
:100AF0001F910F91FF90EF90DF900895FC01DB01B3
:100B0000408151812281622F6F7770E0221F22275E
:100B1000221F9381892F880F822B282F30E0991F65
:100B20009927991F11969C93119721153105A9F5C5
:100B3000411551056105710511F482E037C082E865
:100B40009FEF13969C938E9312979A01AB0167E0E7
:100B5000220F331F441F551F6A95D1F783E08C93F2
:100B60000DC0220F331F441F551F12968D919C916B
:100B70001397019713969C938E931297203080E0E1
:100B8000380780E0480780E4580758F314962D93FF
:100B90003D934D935C93179708952F3F310579F45A
:100BA000411551056105710519F484E08C93089590
:100BB00064FF03C081E08C9312C01C9210C02F57B9
:100BC000304013963C932E93129783E08C9387E0EA
:100BD000440F551F661F771F8A95D1F770641496CE
:100BE0004D935D936D937C93179708951F93DC014C
:100BF000FB019C91923008F447C08081823008F458
:100C000043C0943051F411961C91843099F5818140
:100C1000682F70E0611B71093FC0843021F0923071
:100C200031F48230B9F18181882389F12DC0119688
:100C30001C9111978230F1F081811817D9F4129626
:100C40002D913C911397828193818217930794F0A1
:100C500028173907BCF014968D919D910D90BC9189
:100C6000A02D2481358146815781281739074A07ED
:100C70005B0718F4112341F00AC082179307A407F9
:100C8000B50740F4112319F061E070E005C06FEF83
:100C90007FEF02C060E070E0CB011F910895DF9309
:100CA000CF93CDB7DEB727970FB6F894DEBF0FBE50
:100CB000CDBF89836A834B838B81813009F06FC0FC
:100CC0008981282F30E03F832E838E819F81813060
:100CD000910549F12E813F81223031052CF48E811E
:100CE0009F81009761F0D2C02E813F812230310573
:100CF00071F18E819F8183309105E9F1C7C0AAE32C
:100D0000B0E0EAE3F0E08081482F8A81282F30E0CC
:100D100081E090E0022E02C0880F991F0A94E2F74A
:100D2000842B8C93B3C0A7E3B0E0E7E3F0E08081CD
:100D3000482F8A81282F30E081E090E0022E02C007
:100D4000880F991F0A94E2F7842B8C939FC0A4E329
:100D5000B0E0E4E3F0E08081482F8A81282F30E082
:100D600081E090E0022E02C0880F991F0A94E2F7FA
:100D7000842B8C938BC0A1E3B0E0E1E3F0E08081B1
:100D8000482F8A81282F30E081E090E0022E02C0B7
:100D9000880F991F0A94E2F7842B8C9377C08B817C
:100DA000882309F073C08981282F30E03D832C838C
:100DB0008C819D818130910559F12C813D812230BA
:100DC00031052CF48C819D81009769F05FC02C81E6
:100DD0003D812230310589F18C819D8183309105DF
:100DE00009F440C053C0AAE3B0E0EAE3F0E0808138
:100DF000482F8A81282F30E081E090E0022E02C047
:100E0000880F991F0A94E2F7809584238C933EC043
:100E1000A7E3B0E0E7E3F0E08081482F8A81282F44
:100E200030E081E090E0022E02C0880F991F0A9402
:100E3000E2F7809584238C9329C0A4E3B0E0E4E337
:100E4000F0E08081482F8A81282F30E081E090E017
:100E5000022E02C0880F991F0A94E2F7809584231E
:100E60008C9314C0A1E3B0E0E1E3F0E08081482F6F
:100E70008A81282F30E081E090E0022E02C0880FA6
:100E8000991F0A94E2F7809584238C9327960FB6D6
:100E9000F894DEBF0FBECDBFCF91DF910895DF93F1
:100EA000CF9300D000D0CDB7DEB789836A83898124
:100EB000282F30E03C832B838B819C8181309105EE
:100EC000D1F02B813C81223031052CF48B819C8127
:100ED000009761F01EC02B813C812230310581F0EA
:100EE0008B819C818330910581F013C0EAE3F0E0AF
:100EF0008A8180830EC0E7E3F0E08A81808309C0A5
:100F0000E4E3F0E08A81808304C0E1E3F0E08A81D9
:100F100080830F900F900F900F90CF91DF910895E5
:100F2000DF93CF93CDB7DEB727970FB6F894DEBF28
:100F30000FBECDBF89836A834B838B81813009F0DB
:100F40006FC08981282F30E03F832E838E819F815F
:100F50008130910549F12E813F81223031052CF4F9
:100F60008E819F81009761F0D2C02E813F81223017
:100F7000310571F18E819F8183309105E9F1C7C000
:100F8000ABE3B0E0EBE3F0E08081482F8A81282FCB
:100F900030E081E090E0022E02C0880F991F0A9491
:100FA000E2F7842B8C93B3C0A8E3B0E0E8E3F0E071
:100FB0008081482F8A81282F30E081E090E0022E46
:100FC00002C0880F991F0A94E2F7842B8C939FC06C
:100FD000A5E3B0E0E5E3F0E08081482F8A81282F87
:100FE00030E081E090E0022E02C0880F991F0A9441
:100FF000E2F7842B8C938BC0A2E3B0E0E2E3F0E055
:101000008081482F8A81282F30E081E090E0022EF5
:1010100002C0880F991F0A94E2F7842B8C9377C043
:101020008B81882309F073C08981282F30E03D83AC
:101030002C838C819D818130910559F12C813D81DA
:10104000223031052CF48C819D81009769F05FC0BE
:101050002C813D812230310589F18C819D81833045
:10106000910509F440C053C0ABE3B0E0EBE3F0E01E
:101070008081482F8A81282F30E081E090E0022E85
:1010800002C0880F991F0A94E2F7809584238C93FD
:101090003EC0A8E3B0E0E8E3F0E08081482F8A8119
:1010A000282F30E081E090E0022E02C0880F991FC7
:1010B0000A94E2F7809584238C9329C0A5E3B0E0DD
:1010C000E5E3F0E08081482F8A81282F30E081E03D
:1010D00090E0022E02C0880F991F0A94E2F78095D3
:1010E00084238C9314C0A2E3B0E0E2E3F0E08081BB
:1010F000482F8A81282F30E081E090E0022E02C044
:10110000880F991F0A94E2F7809584238C93279681
:101110000FB6F894DEBF0FBECDBFCF91DF9108951B
:10112000DF93CF9300D000D0CDB7DEB789836A8339
:101130008981282F30E03C832B838B819C818130F7
:101140009105D1F02B813C81223031052CF48B812B
:101150009C81009761F01EC02B813C8122303105BB
:1011600081F08B819C818330910581F013C0EBE38A
:10117000F0E08A8180830EC0E8E3F0E08A8180831A
:1011800009C0E5E3F0E08A81808304C0E2E3F0E097
:101190008A8180830F900F900F900F90CF91DF91F5
:1011A0000895DF93CF9300D000D0CDB7DEB7898309
:1011B0006A838981282F30E03C832B838B819C813B
:1011C0008130910549F12B813C81223031052CF48D
:1011D0008B819C81009761F05AC02B813C81223029
:1011E000310571F18B819C8183309105E9F14FC00C
:1011F000ABE3B0E0EBE3F0E08081482F8A81282F59
:1012000030E081E090E0022E02C0880F991F0A941E
:10121000E2F784278C933BC0A8E3B0E0E8E3F0E07A
:101220008081482F8A81282F30E081E090E0022ED3
:1012300002C0880F991F0A94E2F784278C9327C075
:10124000A5E3B0E0E5E3F0E08081482F8A81282F14
:1012500030E081E090E0022E02C0880F991F0A94CE
:10126000E2F784278C9313C0A2E3B0E0E2E3F0E05E
:101270008081482F8A81282F30E081E090E0022E83
:1012800002C0880F991F0A94E2F784278C930F906D
:101290000F900F900F90CF91DF910895DF93CF9330
:1012A00000D000D000D0CDB7DEB789836A838981B2
:1012B000282F30E03D832C834C815D8141305105E6
:1012C00049F18C819D818230910534F42C813D81DE
:1012D0002115310561F057C04C815D8142305105C7
:1012E00061F18C819D8183309105D1F14CC0E9E39E
:1012F000F0E08081282F30E08A81882F90E0A901DA
:1013000002C0559547958A95E2F7CA01582F51704A
:101310005B833AC0E6E3F0E08081282F30E08A81E9
:10132000882F90E0A90102C0559547958A95E2F76C
:10133000CA01582F51705B8327C0E3E3F0E080813E
:10134000282F30E08A81882F90E0A90102C05595AE
:1013500047958A95E2F7CA01582F51705B8314C0F4
:10136000E0E3F0E08081282F30E08A81882F90E050
:10137000A90102C0559547958A95E2F7CA01582FF1
:1013800051705B8301C002C08B818E838E81269653
:101390000FB6F894DEBF0FBECDBFCF91DF91089599
:1013A000DF93CF93CDB7DEB780E090E060EF70E0E1
:1013B0000E944F0780E090E06FEF70E00E9490087D
:1013C000CF91DF910895DF93CF9300D000D0CDB7B8
:1013D000DEB789838981282F30E03C832B838B8182
:1013E0009C818730910509F46FC02B813C812830A6
:1013F000310554F58B819C818330910509F458C0E7
:101400002B813C812430310594F48B819C81813087
:10141000910509F447C02B813C81223031050CF045
:1014200044C08B819C81009709F439C067C02B812F
:101430003C812530310509F441C08B819C81863087
:1014400091050CF03EC037C02B813C812B3031051B
:1014500009F446C08B819C818C3091055CF42B8112
:101460003C8129303105B1F18B819C818A30910515
:10147000A4F52DC02B813C812D303105B9F18B8134
:101480009C818D3091057CF12B813C812E30310582
:1014900079F18B819C818F30910569F12FC091E0AA
:1014A0009A832EC022E02A832BC033E03A8328C0DF
:1014B0008FE28A8325C094E09A8322C025E02A83A4
:1014C0001FC036E03A831CC08AE28A8319C097E0C5
:1014D0009A8316C028E02A8313C039E03A8310C0EB
:1014E0008DE28A830DC092E39A830AC01A8208C0F3
:1014F0002DE32A8305C03BE23A8302C089818A83B7
:101500008A810F900F900F900F90CF91DF910895E7
:10151000DF93CF93CDB7DEB762970FB6F894DEBFF7
:101520000FBECDBF82E38A8B198ABDC08989882FFF
:1015300090E09C012C5F3F4F80E090E0B90140E0DB
:1015400050E00E949007188A9AC08889282F30E0BE
:1015500080E090E0B9010E944E098F878F85882333
:1015600009F08AC08889882F90E0880F991F880F1A
:10157000991F982F8989890F8A8B09C08889282FFC
:1015800030E080E090E0B9010E944E098F878F859E
:101590008823A1F380E090E0A0EAB0E48B879C87E9
:1015A000AD87BE876B857C858D859E8520E030E08C
:1015B0004AEF54E40E941F02DC01CB018F8398871D
:1015C000A987BA876F81788589859A8520E030E080
:1015D00040E85FE30E94250488232CF481E090E03A
:1015E0009E838D833FC06F81788589859A8520E0B1
:1015F0003FEF4FE757E40E94C50318164CF56B8583
:101600007C858D859E8520E030E040E251E40E949B
:101610001F02DC01CB01BC01CD010E944900DC01AD
:10162000CB019E838D830FC088EC90E09C838B83DD
:101630008B819C810197F1F79C838B838D819E81A7
:1016400001979E838D838D819E81009769F714C0D9
:101650006F81788589859A850E944900DC01CB01DC
:101660009E838D838D819E819A83898389819A81CE
:101670000197F1F79A83898388898F5F888B88899E
:10168000843008F462CF8989882F90E09C012C5F18
:101690003F4F80E090E0B90141E050E00E949007A8
:1016A00089898F5F898B8989843008F43FCF8A8943
:1016B0000E94E3098A8B8A8962960FB6F894DEBF8E
:1016C0000FBECDBFCF91DF910895DF93CF93CDB7FC
:1016D000DEB76D970FB6F894DEBF0FBECDBF8D8F0E
:1016E00083E060E040E00E94900782E06D8D0E9400
:1016F000900883E061E041E00E94900780E090E084
:10170000A0E8BFE3898F9A8FAB8FBC8F698D7A8DEC
:101710008B8D9C8D20E030E04AEF54E40E941F0244
:10172000DC01CB018D8B9E8BAF8BB88F6D897E8951
:101730008F89988D20E030E040E85FE30E94250427
:1017400088232CF481E090E09C8B8B8B3FC06D89CB
:101750007E898F89988D20E03FEF4FE757E40E9404
:10176000C50318164CF5698D7A8D8B8D9C8D20E004
:1017700030E040E251E40E941F02DC01CB01BC01D9
:10178000CD010E944900DC01CB019C8B8B8B0FC0EB
:1017900088EC90E09A8B898B89899A890197F1F777
:1017A0009A8B898B8B899C8901979C8B8B8B8B89DE
:1017B0009C89009769F714C06D897E898F89988DFF
:1017C0000E944900DC01CB019C8B8B8B8B899C890F
:1017D000988B8F878F8598890197F1F7988B8F87E2
:1017E00083E061E040E00E94900780E090E0A0E0AC
:1017F000B0E48B879C87AD87BE876B857C858D85A4
:101800009E8520E030E04AEF54E40E941F02DC0194
:10181000CB018F839887A987BA876F81788589855F
:101820009A8520E030E040E85FE30E9425048823A9
:101830002CF481E090E09E838D833FC06F8178859A
:1018400089859A8520E03FEF4FE757E40E94C50362
:1018500018164CF56B857C858D859E8520E030E0E3
:1018600040E251E40E941F02DC01CB01BC01CD012A
:101870000E944900DC01CB019E838D830FC088EC60
:1018800090E09C838B838B819C810197F1F79C83F3
:101890008B838D819E8101979E838D838D819E8117
:1018A000009769F714C06F81788589859A850E94B1
:1018B0004900DC01CB019E838D838D819E819A83BB
:1018C000898389819A810197F1F79A8389836D963B
:1018D0000FB6F894DEBF0FBECDBFCF91DF91089554
:1018E0000F931F93DF93CF93CDB7DEB7C456D0408D
:1018F0000FB6F894DEBF0FBECDBF83E060E041E0DD
:101900000E944F0683E061E041E00E944F0682E0C2
:101910006FEF0E944F07FE01EF59FF4F80E090E00C
:10192000A0E2B2E480839183A283B3838E01035A41
:101930001F4FFE01EF59FF4F6081718182819381BA
:1019400020E030E04AEF54E40E941F02DC01CB01AA
:10195000F80180839183A283B383FE01E35AFF4F92
:10196000608171818281938120E030E040E85FE313
:101970000E942504882344F4FE01E55AFF4F81E0CC
:1019800090E09183808364C0FE01E35AFF4F608141
:1019900071818281938120E03FEF4FE757E40E94FD
:1019A000C50318160CF043C0FE01EF59FF4F6081CC
:1019B00071818281938120E030E040E251E40E9415
:1019C0001F02DC01CB018E01055A1F4FBC01CD0166
:1019D0000E944900DC01CB01F801918380831FC084
:1019E000FE01E75AFF4F88EC90E091838083FE016F
:1019F000E75AFF4F808191810197F1F7FE01E75A85
:101A0000FF4F91838083DE01A55ABF4FFE01E55A47
:101A1000FF4F80819181019711969C938E93FE01D7
:101A2000E55AFF4F808191810097D1F627C08E0142
:101A3000055A1F4FFE01E35AFF4F60817181828179
:101A400093810E944900DC01CB01F80191838083DE
:101A5000DE01A95ABF4FFE01E55AFF4F80819181F7
:101A60008D939C93FE01E95AFF4F808191810197EC
:101A7000F1F7FE01E95AFF4F918380838CE30E94C6
:101A8000650BFE01ED5AFF4F80E090E0A0E2B2E46A
:101A900080839183A283B3838E01015B1F4FFE017C
:101AA000ED5AFF4F60817181828193812BEA3AEA7E
:101AB0004AE250E40E941F02DC01CB01F80180835E
:101AC0009183A283B383FE01E15BFF4F608171814B
:101AD0008281938120E030E040E85FE30E942504AA
:101AE000882334F4FE01E25BFF4F81E08083E0C095
:101AF000FE01E15BFF4F608171818281938120E073
:101B000030E04FE753E40E94C50318160CF0C0C044
:101B1000FE01ED5AFF4F608171818281938120E047
:101B200030E04AE754E40E941903DC01CB01FE01D6
:101B3000E65BFF4F80839183A283B3838E010A5BB0
:101B40001F4FFE01E65BFF4F6081718182819381AF
:101B500020E030E04AEF54E40E941F02DC01CB0198
:101B6000F80180839183A283B383FE01EA5BFF4F78
:101B7000608171818281938120E030E040E85FE301
:101B80000E942504882344F4FE01EC5BFF4F81E0B2
:101B900090E09183808364C0FE01EA5BFF4F608127
:101BA00071818281938120E03FEF4FE757E40E94EB
:101BB000C50318160CF043C0FE01E65BFF4F6081C1
:101BC00071818281938120E030E040E251E40E9403
:101BD0001F02DC01CB018E010C5B1F4FBC01CD014C
:101BE0000E944900DC01CB01F801918380831FC072
:101BF000FE01EE5BFF4F88EC90E091838083FE0155
:101C0000EE5BFF4F808191810197F1F7FE01EE5B62
:101C1000FF4F91838083DE01AC5BBF4FFE01EC5B25
:101C2000FF4F80819181019711969C938E93FE01C5
:101C3000EC5BFF4F808191810097D1F642C08E010D
:101C40000C5B1F4FFE01EA5BFF4F60817181828157
:101C500093810E944900DC01CB01F80191838083CC
:101C6000DE01A05CBF4FFE01EC5BFF4F80819181E4
:101C700011969C938E93FE01E05CFF4F80819181D1
:101C80000197F1F7FE01E05CFF4F9183808319C05B
:101C90008E01025B1F4FFE01E15BFF4F608171818E
:101CA000828193810E944900DC01CB01F80180838D
:101CB000FE01E25BFF4F80818FAF8FAD8A95F1F718
:101CC0008FAF8CE00E94650B80E090E0A0E2B2E470
:101CD0008BAF9CAFADAFBEAF6BAD7CAD8DAD9EADF0
:101CE0002BEA3AEA4AE250E40E941F02DC01CB01EF
:101CF0008FAB98AFA9AFBAAF6FA978AD89AD9AADE8
:101D000020E030E040E85FE30E94250488231CF4D3
:101D100081E08EAB91C06FA978AD89AD9AAD20E01E
:101D200030E04FE753E40E94C50318160CF07BC067
:101D30006BAD7CAD8DAD9EAD20E030E04AE754E464
:101D40000E941903DC01CB018AAB9BABACABBDABF2
:101D50006AA97BA98CA99DA920E030E04AEF54E450
:101D60000E941F02DC01CB018EA79FA7A8ABB9ABD5
:101D70006EA57FA588A999A920E030E040E85FE33F
:101D80000E94250488232CF481E090E09DA78CA775
:101D90003FC06EA57FA588A999A920E03FEF4FE736
:101DA00057E40E94C50318164CF56AA97BA98CA9B3
:101DB0009DA920E030E040E251E40E941F02DC01D6
:101DC000CB01BC01CD010E944900DC01CB019DA7E4
:101DD0008CA70FC088EC90E09BA78AA78AA59BA53B
:101DE0000197F1F79BA78AA78CA59DA501979DA7B1
:101DF0008CA78CA59DA5009769F724C06EA57FA52B
:101E000088A999A90E944900DC01CB019DA78CA754
:101E10008CA59DA599A788A788A599A50197F1F7F5
:101E200099A788A70FC06FA978AD89AD9AAD0E9418
:101E30004900DC01CB018EAB8EA98FA38FA18A95BF
:101E4000F1F78FA386E00E94650B80E090E0A0E2AE
:101E5000B2E48BA39CA3ADA3BEA36BA17CA18DA177
:101E60009EA12BEA3AEA4AE250E40E941F02DC01FA
:101E7000CB018F8F98A3A9A3BAA36F8D78A189A155
:101E80009AA120E030E040E85FE30E942504882327
:101E90001CF481E08E8F91C06F8D78A189A19AA1E9
:101EA00020E030E04FE753E40E94C50318160CF021
:101EB0007BC06BA17CA18DA19EA120E030E04AE710
:101EC00054E40E941903DC01CB018A8F9B8FAC8FF5
:101ED000BD8F6A8D7B8D8C8D9D8D20E030E04AEF2B
:101EE00054E40E941F02DC01CB018E8B9F8BA88FD4
:101EF000B98F6E897F89888D998D20E030E040E828
:101F00005FE30E94250488232CF481E090E09D8B00
:101F10008C8B3FC06E897F89888D998D20E03FEF43
:101F20004FE757E40E94C50318164CF56A8D7B8D68
:101F30008C8D9D8D20E030E040E251E40E941F0234
:101F4000DC01CB01BC01CD010E944900DC01CB01C9
:101F50009D8B8C8B0FC088EC90E09B8B8A8B8A8941
:101F60009B890197F1F79B8B8A8B8C899D890197BF
:101F70009D8B8C8B8C899D89009769F724C06E8915
:101F80007F89888D998D0E944900DC01CB019D8B52
:101F90008C8B8C899D89998B888B888999890197ED
:101FA000F1F7998B888B0FC06F8D78A189A19AA1C9
:101FB0000E944900DC01CB018E8F8E8D8F878F852B
:101FC0008A95F1F78F8781E00E94650B80E090E0B1
:101FD000A0E0B0E48B879C87AD87BE876B857C854E
:101FE0008D859E8520E030E04AEF54E40E941F0278
:101FF000DC01CB018F839887A987BA876F817885A9
:1020000089859A8520E030E040E85FE30E9425045E
:1020100088232CF481E090E09E838D833FC06F8104
:10202000788589859A8520E03FEF4FE757E40E9445
:10203000C50318164CF56B857C858D859E8520E043
:1020400030E040E251E40E941F02DC01CB01BC0100
:10205000CD010E944900DC01CB019E838D830FC01E
:1020600088EC90E09C838B838B819C810197F1F7B6
:102070009C838B838D819E8101979E838D838D812F
:102080009E81009769F714C06F81788589859A854C
:102090000E944900DC01CB019E838D838D819E814E
:1020A0009A83898389819A810197F1F79A83898339
:1020B000CC59DF4F0FB6F894DEBF0FBECDBFCF9126
:1020C000DF911F910F910895DF93CF93CDB7DEB7C6
:1020D0006D970FB6F894DEBF0FBECDBF8D8F83E036
:1020E00060E041E00E94900782E06D8D0E949008C0
:1020F00083E061E041E00E94900780E090E0A0E88A
:10210000BFE3898F9A8FAB8FBC8F698D7A8D8B8D52
:102110009C8D20E030E04AEF54E40E941F02DC0175
:10212000CB018D8B9E8BAF8BB88F6D897E898F890C
:10213000988D20E030E040E85FE30E94250488238A
:102140002CF481E090E09C8B8B8B3FC06D897E8965
:102150008F89988D20E03FEF4FE757E40E94C50339
:1021600018164CF5698D7A8D8B8D9C8D20E030E0B2
:1021700040E251E40E941F02DC01CB01BC01CD0111
:102180000E944900DC01CB019C8B8B8B0FC088EC3B
:1021900090E09A8B898B89899A890197F1F79A8BBC
:1021A000898B8B899C8901979C8B8B8B8B899C89D4
:1021B000009769F714C06D897E898F89988D0E9478
:1021C0004900DC01CB019C8B8B8B8B899C89988B84
:1021D0008F878F8598890197F1F7988B8F8783E098
:1021E00061E040E00E94900780E090E0A0E0B0E471
:1021F0008B879C87AD87BE876B857C858D859E850B
:1022000020E030E04AEF54E40E941F02DC01CB01E1
:102210008F839887A987BA876F81788589859A8502
:1022200020E030E040E85FE30E94250488232CF49E
:1022300081E090E09E838D833FC06F8178858985A2
:102240009A8520E03FEF4FE757E40E94C503181638
:102250004CF56B857C858D859E8520E030E040E2E5
:1022600051E40E941F02DC01CB01BC01CD010E94A0
:102270004900DC01CB019E838D830FC088EC90E088
:102280009C838B838B819C810197F1F79C838B834B
:102290008D819E8101979E838D838D819E81009784
:1022A00069F714C06F81788589859A850E944900F5
:1022B000DC01CB019E838D838D819E819A838983EE
:1022C00089819A810197F1F79A8389836D960FB678
:1022D000F894DEBF0FBECDBFCF91DF910895DF939D
:1022E000CF93CDB7DEB761970FB6F894DEBF0FBEC0
:1022F000CDBF998B888B1F8686C08F858F3019F450
:1023000080EC0E94650B8F85282F30E088899989A1
:10231000FC01E20FF31F80810E94641080E090E0D6
:10232000A8E4B2E48B879C87AD87BE876B857C85EC
:102330008D859E8520E030E04AEF54E40E941F0224
:10234000DC01CB018F839887A987BA876F81788555
:1023500089859A8520E030E040E85FE30E9425040B
:1023600088232CF481E090E09E838D833FC06F81B1
:10237000788589859A8520E03FEF4FE757E40E94F2
:10238000C50318164CF56B857C858D859E8520E0F0
:1023900030E040E251E40E941F02DC01CB01BC01AD
:1023A000CD010E944900DC01CB019E838D830FC0CB
:1023B00088EC90E09C838B838B819C810197F1F763
:1023C0009C838B838D819E8101979E838D838D81DC
:1023D0009E81009769F714C06F81788589859A85F9
:1023E0000E944900DC01CB019E838D838D819E81FB
:1023F0009A83898389819A810197F1F79A838983E6
:102400008F858F5F8F878F85282F30E08889998906
:10241000FC01E20FF31F8081882309F06ECF6196E3
:102420000FB6F894DEBF0FBECDBFCF91DF910895F8
:10243000DF93CF9300D000D0CDB7DEB78B836C8312
:1024400081E090E09A83898312C08B81282F30E04D
:1024500089819A81AC01429FC001439F900D529F98
:10246000900D11249A8389838C8181508C838C8177
:10247000882359F789819A810F900F900F900F90C0
:10248000CF91DF9108950F931F93DF93CF9300D0E7
:1024900000D000D0CDB7DEB79E838D838D819E8125
:1024A000009721F480E30E9464105DC01C821B82AF
:1024B0001A8203C08A818F5F8A838AE06A810E94C0
:1024C00018129C018D819E81B9010E942D18CB01AB
:1024D000009781F78A818150898327C08D819E81F1
:1024E0002AE030E0B9010E942D188C0199818AE020
:1024F000692F0E941812089F9001099F300D189FA4
:10250000300D11248B819C81820F931F9C838B83C0
:102510008D819E812AE030E0B9010E942D18CB0107
:102520009E838D8389818150898389818823B4F634
:1025300017C08B819C812AE030E0B9010E942D18E0
:10254000805D0E9464108B819C812AE030E0B9019B
:102550000E942D18CB019C838B838A8181508A83B2
:102560008A81882331F726960FB6F894DEBF0FBE16
:10257000CDBFCF91DF911F910F910895DF93CF933E
:1025800000D00F92CDB7DEB78A836B8319828A8120
:10259000882319F480E8898305C08A81813011F489
:1025A00080EC89838B81803120F489819B81890F24
:1025B000898389810E94650B0F900F900F90CF91B6
:1025C000DF910895DF93CF93CDB7DEB72F970FB686
:1025D000F894DEBF0FBECDBF9F878E871D861B86FA
:1025E0001A86198612C1188638C089858F8325C03E
:1025F0008885282F30E080E590E0A901489F900170
:10260000499F300D589F300D11248E859F85280FCE
:10261000391F8F81882F90E0F901E80FF91F808121
:10262000813041F481E08D878885883080F081E0B9
:102630008C870DC08F818F5F8F838F81282F30E033
:102640008985882F90E00596281739078CF28D85AB
:10265000813031F088858F5F88878885803128F2C6
:102660008D85813009F0CEC01E8249C084E08D8303
:1026700089858C832EC08E81282F30E080E590E004
:10268000A901489F9001499F300D589F300D11249A
:102690008E859F85280F391F8C81882F90E0F90146
:1026A000E80FF91F8081813071F48D81282F30E08F
:1026B00081E090E002C0880F991F2A95E2F7982FD9
:1026C0008B85892B8B878D8181508D838C818F5F4A
:1026D0008C838C81282F30E08985882F90E00596A7
:1026E0002817390744F28E81882F90E0FC01E552CB
:1026F000FF4F8B8580831B868E818F5F8E838E81BB
:10270000893008F4B3CF2BED30E08A85B9010E94FF
:102710001314898595E0692F0E942118982F80E075
:10272000692F0E94BE128A850E9464108A858F5F7D
:102730008A871B824CC084E08A838985898331C063
:102740008B81282F30E080E590E0AC01249FC00110
:10275000259F900D349F900D11249C0120583D4FD2
:102760008E859F85280F391F8981882F90E0F90178
:10277000E80FF91F8081813071F48A81282F30E0C1
:1027800081E090E002C0880F991F2A95E2F7982F08
:102790008B85892B8B878A8181508A8389818F5F82
:1027A00089838981282F30E08985882F90E00596DC
:1027B000281739072CF28B81882F90E0FC01E55215
:1027C000FF4F8B8580831B868B818F5F8B838B81F3
:1027D000893008F4B0CF2BED30E08A85B9010E9432
:1027E0001314898595E0692F0E942118982F81E0A4
:1027F000692F0E94BE128A850E9464108A858F5FAD
:102800008A871D8689858B5F89878985803508F44D
:10281000EACE1A862F960FB6F894DEBF0FBECDBF54
:10282000CF91DF910895DF93CF9300D000D0CDB743
:10283000DEB78A837C836B838A818830F8F48A814F
:10284000882F90E00896880F991F880F991F880F8E
:10285000991F0E94650B19820EC08981282F30E0D4
:102860008B819C81FC01E20FF31F80810E94641028
:1028700089818F5F89838981883078F30F900F90E9
:102880000F900F90CF91DF910895DF93CF93CDB745
:10289000DEB781E00E94650BCF91DF910895DF9351
:1028A000CF93CDB7DEB7C852D5400FB6F894DEBF90
:1028B0000FBECDBF0E94700C0E94D00980E095E051
:1028C000FE01B996DF019C011D9221503040E1F7D5
:1028D00018A61FA21EA282E08DA31CA21BA288A57F
:1028E000882F90E00E94E11888A58F5F88A70E943A
:1028F000DC1820E130E0B9010E9441188AA30E944F
:10290000DC182BE430E0B9010E94411889A380E073
:1029100090E0A8ECB2E4898F9A8FAB8FBC8F698D61
:102920007A8D8B8D9C8D20E030E04AEF54E40E943C
:102930001F02DC01CB018D8B9E8BAF8BB88F6D8915
:102940007E898F89988D20E030E040E85FE30E9427
:10295000250488232CF481E090E09C8B8B8B3FC076
:102960006D897E898F89988D20E03FEF4FE757E48E
:102970000E94C50318164CF5698D7A8D8B8D9C8D40
:1029800020E030E040E251E40E941F02DC01CB0174
:10299000BC01CD010E944900DC01CB019C8B8B8BDB
:1029A0000FC088EC90E09A8B898B89899A8901976E
:1029B000F1F79A8B898B8B899C8901979C8B8B8BE8
:1029C0008B899C89009769F714C06D897E898F89EE
:1029D000988D0E944900DC01CB019C8B8B8B8B89ED
:1029E0009C89988B8F878F8598890197F1F7988BB1
:1029F0008F870E9445148DA1992787FD9095FC0132
:102A0000E758FF4F808180314CF08DA1992787FDD9
:102A10009095FC01E758FF4F10823AC08DA199278D
:102A200087FD9095FC01E758FF4F8081882354F47F
:102A30008DA1992787FD9095FC01E758FF4F8FE006
:102A4000808326C08DA1992787FD9095FC01E857CA
:102A5000FF4F808180354CF08DA1992787FD90959F
:102A6000FC01E857FF4F108213C08DA1992787FD05
:102A70009095FC01E857FF4F808188234CF48DA18D
:102A8000992787FD9095FC01E857FF4F8FE48083DD
:102A90008CA188A32DC088A1882F90E0FC01E75865
:102AA000FF4F8081282F332727FD309588A1882F5D
:102AB00090E0FC01E857FF4F8081482F552747FDE4
:102AC000509580E590E0B901689F9001699F300DB5
:102AD000789F300D1124CE010196820F931F840F31
:102AE000951FFC01B89681E0808388A18F5F88A341
:102AF00088A1282F30E08DA1992787FD9095821716
:102B000093074CF64EC01F8E88A5882F90E00E9438
:102B1000E11888A58F5F88A70E94DC1820E130E0CB
:102B2000B9010E9441188AA30E94DC182BE430E00E
:102B3000B9010E94411889A31E8E26C08AA1882F40
:102B400090E0FC01E857FF4F20818E8D882F90E0A8
:102B5000FC01E857FF4F8081281799F08AA1882F40
:102B600090E0FC01E758FF4F20818E8D882F90E088
:102B7000FC01E758FF4F8081281719F081E08F8F03
:102B80000DC08E8D8F5F8E8F8E8D282F30E08DA1A2
:102B9000992787FD90958217930784F68F8D813052
:102BA00021F08FA1882309F4AECF81E08FA38AA101
:102BB000282F30E089A1482F50E080E590E0D9012E
:102BC000A89F9001A99F300DB89F300D1124CE0110
:102BD0000196820F931F840F951FFC01B89681E028
:102BE0008083CE0189960E94E2128AA1282F30E0CC
:102BF0008DA1992787FD9095FC01E758FF4F8081B3
:102C0000992787FD90952817390709F056C089A1A3
:102C1000282F30E08DA1992787FD9095FC01E8577A
:102C2000FF4F8081992787FD90952817390709F074
:102C300044C08FA1813009F040C088A5882F90E062
:102C40000E94E11888A58F5F88A70E94DC1820E108
:102C500030E0B9010E9441188AA30E94DC182BE4DD
:102C600030E0B9010E94411889A38DA18F5F8DA327
:102C70008DA1282F332727FD30958DA1992787FD1A
:102C800090950197FC01E758FF4F8081F901E758C3
:102C9000FF4F80838DA1282F332727FD30958DA1ED
:102CA000992787FD90950197FC01E857FF4F808198
:102CB000F901E857FF4F80831FA28CA1992787FD58
:102CC0009095FC01E758FF4F8081282F332727FD7F
:102CD00030958CA1992787FD9095FC01E857FF4F0F
:102CE0008081482F552747FD509580E590E0B90138
:102CF000689F9001699F300D789F300D1124CE019F
:102D00000196820F931F840F951FFC01B8961082C5
:102D10008CA18D8F21C08D8D282F30E08D8D882F37
:102D200090E00196FC01E857FF4F8081F901E857D8
:102D3000FF4F80838D8D282F30E08D8D882F90E080
:102D40000196FC01E758FF4F8081F901E758FF4FDA
:102D500080838D8D8F5F8D8F8D8D282F30E08DA19D
:102D6000992787FD909528173907ACF20E94880AA9
:102D70008EA38EA1843019F40E94A61711C08EA1D3
:102D8000823019F40E94C6170BC08EA1863019F448
:102D90000E94B61705C08EA1883011F40E94D61784
:102DA00080917800882379F08DA1282F332727FD83
:102DB0003095F901E857FF4F80818F5FF901E8579F
:102DC000FF4F808338C08091D800882379F08DA18F
:102DD000282F332727FD3095F901E857FF4F8081D1
:102DE0008150F901E857FF4F808325C08091D900B9
:102DF000882379F08DA1282F332727FD3095F901FD
:102E0000E758FF4F80818150F901E758FF4F8083D9
:102E100012C08091DA00882371F08DA1282F33270A
:102E200027FD3095F901E758FF4F80818F5FF90149
:102E3000E758FF4F80838DA10E94E6178BA38BA1DB
:102E4000882309F464CD80E060E00E94BE1280E631
:102E500090E00E946F1181E060E00E94BE1280E667
:102E600090E00E946F1180E090E0AAEFB4E48B87BD
:102E70009C87AD87BE876B857C858D859E8520E090
:102E800030E04AEF54E40E941F02DC01CB018F8343
:102E90009887A987BA876F81788589859A8520E088
:102EA00030E040E85FE30E94250488232CF481E0B1
:102EB00090E09E838D833FC06F81788589859A8558
:102EC00020E03FEF4FE757E40E94C50318164CF58A
:102ED0006B857C858D859E8520E030E040E251E465
:102EE0000E941F02DC01CB01BC01CD010E94490000
:102EF000DC01CB019E838D830FC088EC90E09C8326
:102F00008B838B819C810197F1F79C838B838D81CF
:102F10009E8101979E838D838D819E81009769F7A5
:102F2000F6CC6F81788589859A850E944900DC01FD
:102F3000CB019E838D838D819E819A838983898134
:102F40009A810197F1F79A838983E1CCDF93CF933C
:102F5000CDB7DEB71092780081E08093D800109250
:102F6000D9001092DA00CF91DF910895DF93CF93CB
:102F7000CDB7DEB781E0809378001092D800109230
:102F8000D9001092DA00CF91DF910895DF93CF93AB
:102F9000CDB7DEB7109278001092D80081E0809310
:102FA000D9001092DA00CF91DF910895DF93CF938B
:102FB000CDB7DEB7109278001092D8001092D900E9
:102FC00081E08093DA00CF91DF910895DF93CF9372
:102FD00000D00F92CDB7DEB78A83198226C08A81CE
:102FE000882F90E0FC01E857FF4F20818981882FCE
:102FF00090E0FC01E857FF4F8081281799F48A81FF
:10300000882F90E0FC01E758FF4F20818981882FAD
:1030100090E0FC01E758FF4F8081281719F481E008
:103020008B8308C089818F5F898399818A819817F2
:10303000B0F21B828B810F900F900F90CF91DF9198
:103040000895991B79E004C0991F961708F0961B04
:10305000881F7A95C9F780950895AA1BBB1B51E17B
:1030600007C0AA1FBB1FA617B70710F0A61BB70BF8
:10307000881F991F5A95A9F780959095BC01CD019D
:10308000089597FB092E07260AD077FD04D0E5DFC7
:1030900006D000201AF4709561957F4F0895F6F7D9
:1030A000909581959F4F08952F923F924F925F92F6
:1030B0006F927F928F929F92AF92BF92CF92DF9248
:1030C000EF92FF920F931F93CF93DF93CDB7DEB7AD
:1030D000CA1BDB0B0FB6F894DEBF0FBECDBF099441
:1030E0002A88398848885F846E847D848C849B8498
:1030F000AA84B984C884DF80EE80FD800C811B81A6
:10310000AA81B981CE0FD11D0FB6F894DEBF0FBED4
:10311000CDBFED010895A0E0B0E0E1E9F8E10C9445
:103120005C18EC01A880B980CA80DB80A114B104CE
:10313000C104D10441F484E2A82E89EDB82E8BE5B8
:10314000C82E87E0D82EC601B5012DE133EF41E04E
:1031500050E00E940B1927EA31E440E050E00E9461
:10316000EC187B018C01C601B5012DE133EF41E084
:1031700050E00E940B19CA01B9012CEE34EF4FEF59
:103180005FEF0E94EC186E0D7F1D801F911F97FF4F
:1031900004C06150704080409048688379838A837E
:1031A0009B839B013F77C901CDB7DEB7EAE00C9462
:1031B00078180E948B18089584E790E00E948B187D
:1031C0000895A0E0B0E08093740090937500A09300
:1031D0007600B09377000895629FD001739FF0014D
:1031E000829FE00DF11D649FE00DF11D929FF00D97
:1031F000839FF00D749FF00D659FF00D9927729FCE
:10320000B00DE11DF91F639FB00DE11DF91FBD0158
:10321000CF011124089597FB092E05260ED057FDE6
:1032200004D014D00AD0001C38F450954095309545
:1032300021953F4F4F4F5F4F0895F6F7909580953A
:10324000709561957F4F8F4F9F4F0895A1E21A2E81
:10325000AA1BBB1BFD010DC0AA1FBB1FEE1FFF1F3A
:10326000A217B307E407F50720F0A21BB30BE40B8A
:10327000F50B661F771F881F991F1A9469F76095D1
:103280007095809590959B01AC01BD01CF0108958B
:04329000F894FFCFE0
:103294002047414D45204F56455220000000000074
:1032A4000000000001000000010707070000000003
:1032B4000000000000000000000102000000000007
:1032C40000000000000000000000000000000000FA
:1032D40000000000000000000000000000000000EA
:1032E40000000000000000000000000000000000DA
:1032F40000000000000000000000000000000000CA
:083304000000000000000000C1
:00000001FF
