:100000000C942A000C943F000C943F000C943F0089
:100010000C943F000C943F000C943F000C943F0064
:100020000C943F000C943F000C943F000C943F0054
:100030000C943F000C943F000C943F000C943F0044
:100040000C943F000C943F000C943F000C943F0034
:100050000C943F0011241FBECFE5D8E0DEBFCDBF1A
:1000600010E0A0E6B0E0E8E1F6E202C005900D92F3
:10007000A836B107D9F70E949B110C940A130C946F
:100080000000EF92FF920F931F937B018C0120E001
:1000900030E040E05FE40E94ED0388238CF0C8016B
:1000A000B70120E030E040E05FE40E94B9010E9427
:1000B0004D049B01AC01205030404040504806C0E8
:1000C000C801B7010E944D049B01AC01B901CA01EE
:1000D0001F910F91FF90EF900895A0E0B0E0E3E74B
:1000E000F0E00C94D312DC012B01FA019C919230C8
:1000F00008F439C1EB018881823008F433C19430AF
:1001000069F4843009F02FC111969C91119789816F
:10011000981709F428C1A0E6B0E025C1843009F49D
:1001200021C18230A9F4923009F01DC19A01AD01BC
:1001300088E0EA010990AE01E90109929E0181502F
:10014000C1F7E201898111969C918923818308C1BD
:10015000923009F407C112962D903C901397EB0151
:100160008A819B811496AD90BD90CD90DC901797BD
:10017000EC80FD800E811F819101281B390BB90194
:1001800037FF04C066277727621B730B6032710547
:100190000CF061C0121613066CF537014801062EEB
:1001A00004C096948794779467940A94D2F721E0D8
:1001B00030E040E050E004C0220F331F441F551FC1
:1001C0006A95D2F721503040404050402E213F21C7
:1001D00040235123211531054105510521F021E02E
:1001E00030E040E050E079018A01E628F72808294C
:1001F00019293CC0232BD1F1260E371E35014601AB
:10020000062E04C096948794779467940A94D2F744
:1002100021E030E040E050E004C0220F331F441FD3
:10022000551F6A95D2F721503040404050402A2156
:100230003B214C215D21211531054105510521F05E
:1002400021E030E040E050E059016A01A628B728DB
:10025000C828D9280BC0821593052CF01C01AA24AC
:10026000BB24650103C0EE24FF24870111969C91F5
:10027000D20111968C91981709F445C0992339F051
:10028000A80197012A193B094C095D0906C0A6017E
:1002900095012E193F09400B510B57FD08C01182E3
:1002A0003382228224833583468357831DC081E0B5
:1002B00081833382228288279927DC01821B930B5A
:1002C000A40BB50B84839583A683B7830DC0220F3F
:1002D000331F441F551F24833583468357838281F0
:1002E000938101979383828324813581468157814D
:1002F000DA01C9010197A109B1098F5F9F4FAF4F83
:10030000BF4328F30BC0918333822282EA0CFB1C8B
:100310000C1D1D1DE482F5820683178383E0808314
:10032000248135814681578157FF1AC0C901AA2708
:1003300097FDA095BA2F81709070A070B0705695FF
:10034000479537952795822B932BA42BB52B848328
:100350009583A683B7838281938101969383828359
:10036000DF0101C0D201CD01CDB7DEB7E2E10C94CF
:10037000EF12A0E2B0E0EFEBF1E00C94DF12698342
:100380007A838B839C832D833E834F835887E9E058
:10039000EE2EF12CEC0EFD1ECE010196B7010E944F
:1003A00076058E010F5E1F4FCE010596B8010E94A3
:1003B00076058A8991E089278A8BC701B801AE0149
:1003C000475E5F4F0E946D000E94A104A096E6E088
:1003D0000C94FB12A0E2B0E0E0EFF1E00C94DF122D
:1003E00069837A838B839C832D833E834F835887D5
:1003F000F9E0EF2EF12CEC0EFD1ECE010196B701B7
:100400000E9476058E010F5E1F4FCE010596B80142
:100410000E947605C701B801AE01475E5F4F0E949A
:100420006D000E94A104A096E6E00C94FB12A0E2ED
:10043000B0E0EDE1F2E00C94D31269837A838B8310
:100440009C832D833E834F835887CE010196BE0146
:10045000675F7F4F0E947605CE010596BE016F5EF5
:100460007F4F0E9476059985923088F08989823085
:10047000C8F0943019F4823051F404C0843029F467
:10048000923081F480E690E0C6C0923049F420E0DA
:100490009A858A89981321E02A87CE010996BBC0E4
:1004A000823049F420E09A858A89981321E02A8BCA
:1004B000CE014196B0C02D843E844F8458886D880B
:1004C0007E888F88988CEE24FF248701AA24BB2481
:1004D000650140E050E060E070E0E0E0F0E0C10184
:1004E00081709070892BE9F0E60CF71C081D191D2E
:1004F0009A01AB012A0D3B1D4C1D5D1D80E090E073
:10050000A0E0B0E0E614F7040805190520F481E046
:1005100090E0A0E0B0E0BA01A901480F591F6A1F9E
:100520007B1FAA0CBB1CCC1CDD1C97FE08C081E005
:1005300090E0A0E0B0E0A82AB92ACA2ADB2A3196C6
:10054000E032F10549F0660C771C881C991C569422
:10055000479437942794C3CFFA85EA892B893C893D
:100560008B859C85280F391F2E5F3F4F17C0CA010E
:1005700081709070892B61F016950795F794E79438
:1005800080E090E0A0E0B0E8E82AF92A0A2B1B2BD3
:1005900076956795579547952F5F3F4F77FDE7CF46
:1005A0000CC0440F551F661F771F17FD4160EE0CEE
:1005B000FF1C001F111F21503040403090E05907B0
:1005C00090E0690790E4790760F32B8F3C8FDB01A3
:1005D000CA018F779070A070B07080349105A1052A
:1005E000B10561F447FD0AC0E114F10401051105EC
:1005F00029F0405C5F4F6F4F7F4F40781A8EFE1797
:1006000011F081E08A8F4D8F5E8F6F8F78A383E02A
:10061000898FCE0149960E94A104A096E2E10C9434
:10062000EF12A8E1B0E0E7E1F3E00C94DB1269839C
:100630007A838B839C832D833E834F835887B9E0D5
:10064000EB2EF12CEC0EFD1ECE010196B7010E949F
:1006500076058E010F5E1F4FCE010596B8010E94F0
:1006600076052985223008F47EC03989323010F4AD
:10067000B8017CC08A859A8989278A87243011F03D
:10068000223031F4231709F06EC060E670E06EC0CE
:10069000343039F41D861E861F86188A1C861B86F8
:1006A00004C0323021F484E08987B7015FC02B8514
:1006B0003C858B899C89281B390B3C872B87ED84D3
:1006C000FE840F851889AD88BE88CF88D88CEA143F
:1006D000FB040C051D0540F4EE0CFF1C001F111F50
:1006E000215030403C872B8720E030E040E050E054
:1006F00080E090E0A0E0B0E460E070E0EA14FB0489
:100700000C051D0540F0282B392B4A2B5B2BEA18D2
:10071000FB080C091D09B695A79597958795EE0CD2
:10072000FF1C001F111F6F5F7F4F6F31710531F785
:10073000DA01C9018F779070A070B0708034910594
:10074000A105B10561F427FD0AC0E114F10401051A
:10075000110529F0205C3F4F4F4F5F4F20782D87C8
:100760003E874F87588BBE01675F7F4FCB010E944A
:10077000A1046896EAE00C94F712A8E1B0E0E3EC7B
:10078000F3E00C94DF1269837A838B839C832D833F
:100790003E834F83588789E0E82EF12CEC0EFD1E36
:1007A000CE010196B7010E9476058E010F5E1F4FA4
:1007B000CE010596B8010E9476058985823040F009
:1007C0008989823028F0C701B8010E94EE0501C076
:1007D0008FEF6896E6E00C94FB12A8E1B0E0E3EF3F
:1007E000F3E00C94DF1269837A838B839C832D83DF
:1007F0003E834F83588789E0E82EF12CEC0EFD1ED6
:10080000CE010196B7010E9476058E010F5E1F4F43
:10081000CE010596B8010E9476058985823040F0A8
:100820008989823028F0C701B8010E94EE0501C015
:100830008FEF6896E6E00C94FB12A8E1B0E0E3E2EB
:10084000F4E00C94DF1269837A838B839C832D837D
:100850003E834F83588789E0E82EF12CEC0EFD1E75
:10086000CE010196B7010E9476058E010F5E1F4FE3
:10087000CE010596B8010E9476058985823040F048
:100880008989823028F0C701B8010E94EE0501C0B5
:1008900081E06896E6E00C94FB12ACE0B0E0E3E5A2
:1008A000F4E00C94E31269837A838B839C83CE01FA
:1008B0000196BE016B5F7F4F0E9476058D8182306D
:1008C00061F1823050F1843021F48E81882351F11E
:1008D0002EC02F81388537FD20C06E812F31310524
:1008E0001CF06623F9F023C08EE190E0821B930B8D
:1008F00029853A854B855C8504C056954795379583
:1009000027958A95D2F76623B1F05095409530959A
:1009100021953F4F4F4F5F4F0EC020E030E040E049
:1009200050E009C02FEF3FEF4FEF5FE704C020E03A
:1009300030E040E050E8B901CA012C96E2E00C94A6
:10094000FF12DF92EF92FF920F931F93FC01E4805E
:10095000F58006811781D1808081823048F480E063
:1009600090E0A0E1B0E0E82AF92A0A2B1B2BA5C0F1
:10097000843009F49FC0823021F4EE24FF248701E3
:1009800005C0E114F1040105110519F4E0E0F0E0FF
:1009900096C0628173819FEF623879070CF05BC06B
:1009A00022E83FEF261B370B2A3131052CF020E0DF
:1009B00030E040E050E02AC0B801A701022E04C098
:1009C00076956795579547950A94D2F781E090E020
:1009D000A0E0B0E004C0880F991FAA1FBB1F2A9592
:1009E000D2F70197A109B1098E219F21A023B1233C
:1009F0000097A105B10521F081E090E0A0E0B0E012
:100A00009A01AB01282B392B4A2B5B2BDA01C90148
:100A10008F779070A070B07080349105A105B105FA
:100A200039F427FF09C0205C3F4F4F4F5F4F04C090
:100A3000215C3F4F4F4F5F4FE0E0F0E02030A0E0FF
:100A40003A07A0E04A07A0E45A0710F0E1E0F0E01E
:100A500079018A0127C06038710564F5FB01E1580E
:100A6000FF4FD801C7018F779070A070B0708034AD
:100A70009105A105B10539F4E7FE0DC080E490E0D1
:100A8000A0E0B0E004C08FE390E0A0E0B0E0E80EAA
:100A9000F91E0A1F1B1F17FF05C016950795F7942F
:100AA000E794319687E016950795F794E7948A9531
:100AB000D1F705C0EE24FF248701EFEFF0E06E2FA1
:100AC000679566276795902F9F77D794DD24D794F5
:100AD0008E2F8695492F462B582F5D29B701CA01C5
:100AE0001F910F91FF90EF90DF900895FC01DB01C3
:100AF000408151812281622F6F7770E0221F22276F
:100B0000221F9381892F880F822B282F30E0991F75
:100B10009927991F11969C93119721153105A9F5D5
:100B2000411551056105710511F482E037C082E875
:100B30009FEF13969C938E9312979A01AB0167E0F7
:100B4000220F331F441F551F6A95D1F783E08C9302
:100B50000DC0220F331F441F551F12968D919C917B
:100B60001397019713969C938E931297203080E0F1
:100B7000380780E0480780E4580758F314962D930F
:100B80003D934D935C93179708952F3F310579F46A
:100B9000411551056105710519F484E08C930895A0
:100BA00064FF03C081E08C9312C01C9210C02F57C9
:100BB000304013963C932E93129783E08C9387E0FA
:100BC000440F551F661F771F8A95D1F770641496DE
:100BD0004D935D936D937C93179708951F93DC015C
:100BE000FB019C91923008F447C08081823008F468
:100BF00043C0943051F411961C91843099F5818151
:100C0000682F70E0611B71093FC0843021F0923081
:100C100031F48230B9F18181882389F12DC0119698
:100C20001C9111978230F1F081811817D9F4129636
:100C30002D913C911397828193818217930794F0B1
:100C400028173907BCF014968D919D910D90BC9199
:100C5000A02D2481358146815781281739074A07FD
:100C60005B0718F4112341F00AC082179307A40709
:100C7000B50740F4112319F061E070E005C06FEF93
:100C80007FEF02C060E070E0CB011F910895DF9319
:100C9000CF93CDB7DEB727970FB6F894DEBF0FBE60
:100CA000CDBF89836A834B838B81813009F06FC00C
:100CB0008981282F30E03F832E838E819F81813070
:100CC000910549F12E813F81223031052CF48E812E
:100CD0009F81009761F0D2C02E813F812230310583
:100CE00071F18E819F8183309105E9F1C7C0AAE33C
:100CF000B0E0EAE3F0E08081482F8A81282F30E0DD
:100D000081E090E0022E02C0880F991F0A94E2F75A
:100D1000842B8C93B3C0A7E3B0E0E7E3F0E08081DD
:100D2000482F8A81282F30E081E090E0022E02C017
:100D3000880F991F0A94E2F7842B8C939FC0A4E339
:100D4000B0E0E4E3F0E08081482F8A81282F30E092
:100D500081E090E0022E02C0880F991F0A94E2F70A
:100D6000842B8C938BC0A1E3B0E0E1E3F0E08081C1
:100D7000482F8A81282F30E081E090E0022E02C0C7
:100D8000880F991F0A94E2F7842B8C9377C08B818C
:100D9000882309F073C08981282F30E03D832C839C
:100DA0008C819D818130910559F12C813D812230CA
:100DB00031052CF48C819D81009769F05FC02C81F6
:100DC0003D812230310589F18C819D8183309105EF
:100DD00009F440C053C0AAE3B0E0EAE3F0E0808148
:100DE000482F8A81282F30E081E090E0022E02C057
:100DF000880F991F0A94E2F7809584238C933EC054
:100E0000A7E3B0E0E7E3F0E08081482F8A81282F54
:100E100030E081E090E0022E02C0880F991F0A9412
:100E2000E2F7809584238C9329C0A4E3B0E0E4E347
:100E3000F0E08081482F8A81282F30E081E090E027
:100E4000022E02C0880F991F0A94E2F7809584232E
:100E50008C9314C0A1E3B0E0E1E3F0E08081482F7F
:100E60008A81282F30E081E090E0022E02C0880FB6
:100E7000991F0A94E2F7809584238C9327960FB6E6
:100E8000F894DEBF0FBECDBFCF91DF910895DF9301
:100E9000CF9300D000D0CDB7DEB789836A83898134
:100EA000282F30E03C832B838B819C8181309105FE
:100EB000D1F02B813C81223031052CF48B819C8137
:100EC000009761F01EC02B813C812230310581F0FA
:100ED0008B819C818330910581F013C0EAE3F0E0BF
:100EE0008A8180830EC0E7E3F0E08A81808309C0B5
:100EF000E4E3F0E08A81808304C0E1E3F0E08A81EA
:100F000080830F900F900F900F90CF91DF910895F5
:100F1000DF93CF93CDB7DEB727970FB6F894DEBF38
:100F20000FBECDBF89836A834B838B81813009F0EB
:100F30006FC08981282F30E03F832E838E819F816F
:100F40008130910549F12E813F81223031052CF409
:100F50008E819F81009761F0D2C02E813F81223027
:100F6000310571F18E819F8183309105E9F1C7C010
:100F7000ABE3B0E0EBE3F0E08081482F8A81282FDB
:100F800030E081E090E0022E02C0880F991F0A94A1
:100F9000E2F7842B8C93B3C0A8E3B0E0E8E3F0E081
:100FA0008081482F8A81282F30E081E090E0022E56
:100FB00002C0880F991F0A94E2F7842B8C939FC07C
:100FC000A5E3B0E0E5E3F0E08081482F8A81282F97
:100FD00030E081E090E0022E02C0880F991F0A9451
:100FE000E2F7842B8C938BC0A2E3B0E0E2E3F0E065
:100FF0008081482F8A81282F30E081E090E0022E06
:1010000002C0880F991F0A94E2F7842B8C9377C053
:101010008B81882309F073C08981282F30E03D83BC
:101020002C838C819D818130910559F12C813D81EA
:10103000223031052CF48C819D81009769F05FC0CE
:101040002C813D812230310589F18C819D81833055
:10105000910509F440C053C0ABE3B0E0EBE3F0E02E
:101060008081482F8A81282F30E081E090E0022E95
:1010700002C0880F991F0A94E2F7809584238C930D
:101080003EC0A8E3B0E0E8E3F0E08081482F8A8129
:10109000282F30E081E090E0022E02C0880F991FD7
:1010A0000A94E2F7809584238C9329C0A5E3B0E0ED
:1010B000E5E3F0E08081482F8A81282F30E081E04D
:1010C00090E0022E02C0880F991F0A94E2F78095E3
:1010D00084238C9314C0A2E3B0E0E2E3F0E08081CB
:1010E000482F8A81282F30E081E090E0022E02C054
:1010F000880F991F0A94E2F7809584238C93279692
:101100000FB6F894DEBF0FBECDBFCF91DF9108952B
:10111000DF93CF9300D000D0CDB7DEB789836A8349
:101120008981282F30E03C832B838B819C81813007
:101130009105D1F02B813C81223031052CF48B813B
:101140009C81009761F01EC02B813C8122303105CB
:1011500081F08B819C818330910581F013C0EBE39A
:10116000F0E08A8180830EC0E8E3F0E08A8180832A
:1011700009C0E5E3F0E08A81808304C0E2E3F0E0A7
:101180008A8180830F900F900F900F90CF91DF9105
:101190000895DF93CF9300D000D0CDB7DEB7898319
:1011A0006A838981282F30E03C832B838B819C814B
:1011B0008130910549F12B813C81223031052CF49D
:1011C0008B819C81009761F05AC02B813C81223039
:1011D000310571F18B819C8183309105E9F14FC01C
:1011E000ABE3B0E0EBE3F0E08081482F8A81282F69
:1011F00030E081E090E0022E02C0880F991F0A942F
:10120000E2F784278C933BC0A8E3B0E0E8E3F0E08A
:101210008081482F8A81282F30E081E090E0022EE3
:1012200002C0880F991F0A94E2F784278C9327C085
:10123000A5E3B0E0E5E3F0E08081482F8A81282F24
:1012400030E081E090E0022E02C0880F991F0A94DE
:10125000E2F784278C9313C0A2E3B0E0E2E3F0E06E
:101260008081482F8A81282F30E081E090E0022E93
:1012700002C0880F991F0A94E2F784278C930F907D
:101280000F900F900F90CF91DF910895DF93CF9340
:1012900000D000D000D0CDB7DEB789836A838981C2
:1012A000282F30E03D832C834C815D8141305105F6
:1012B00049F18C819D818230910534F42C813D81EE
:1012C0002115310561F057C04C815D8142305105D7
:1012D00061F18C819D8183309105D1F14CC0E9E3AE
:1012E000F0E08081282F30E08A81882F90E0A901EA
:1012F00002C0559547958A95E2F7CA01582F51705B
:101300005B833AC0E6E3F0E08081282F30E08A81F9
:10131000882F90E0A90102C0559547958A95E2F77C
:10132000CA01582F51705B8327C0E3E3F0E080814E
:10133000282F30E08A81882F90E0A90102C05595BE
:1013400047958A95E2F7CA01582F51705B8314C004
:10135000E0E3F0E08081282F30E08A81882F90E060
:10136000A90102C0559547958A95E2F7CA01582F01
:1013700051705B8301C002C08B818E838E81269663
:101380000FB6F894DEBF0FBECDBFCF91DF910895A9
:10139000DF93CF93CDB7DEB76D970FB6F894DEBF6E
:1013A0000FBECDBF8D8F83E060E040E00E948807D4
:1013B00080E06D8D0E94880883E061E041E00E943A
:1013C000880780E090E0A0E8BFE3898F9A8FAB8F19
:1013D000BC8F698D7A8D8B8D9C8D20E030E04AEF3B
:1013E00054E40E941702DC01CB018D8B9E8BAF8BE6
:1013F000B88F6D897E898F89988D20E030E040E834
:101400005FE30E941D0488232CF481E090E09C8B14
:101410008B8B3FC06D897E898F89988D20E03FEF4F
:101420004FE757E40E94BD0318164CF5698D7A8D7D
:101430008B8D9C8D20E030E040E251E40E94170249
:10144000DC01CB01BC01CD010E944100DC01CB01DC
:101450009C8B8B8B0FC088EC90E09A8B898B898951
:101460009A890197F1F79A8B898B8B899C890197CF
:101470009C8B8B8B8B899C89009769F714C06D8935
:101480007E898F89988D0E944100DC01CB019C8B65
:101490008B8B8B899C89988B8F878F8598890197F7
:1014A000F1F7988B8F8783E061E040E00E94880726
:1014B00080E090E0A0E0B0E48B879C87AD87BE879A
:1014C0006B857C858D859E8520E030E04AEF54E475
:1014D0000E941702DC01CB018F839887A987BA8706
:1014E0006F81788589859A8520E030E040E85FE368
:1014F0000E941D0488232CF481E090E09E838D835C
:101500003FC06F81788589859A8520E03FEF4FE75E
:1015100057E40E94BD0318164CF56B857C858D85BC
:101520009E8520E030E040E251E40E941702DC0199
:10153000CB01BC01CD010E944100DC01CB019E83A7
:101540008D830FC088EC90E09C838B838B819C8182
:101550000197F1F79C838B838D819E8101979E83F8
:101560008D838D819E81009769F714C06F81788586
:1015700089859A850E944100DC01CB019E838D8381
:101580008D819E819A83898389819A810197F1F760
:101590009A8389836D960FB6F894DEBF0FBECDBFD8
:1015A000CF91DF9108950F931F93DF93CF93CDB722
:1015B000DEB7C456D0400FB6F894DEBF0FBECDBF25
:1015C00083E060E041E00E94470683E061E041E0A3
:1015D0000E94470680E06FEF0E944707FE01EF5927
:1015E000FF4F80E090E0A0E2B2E480839183A28389
:1015F000B3838E01035A1F4FFE01EF59FF4F6081E5
:1016000071818281938120E030E04AEF54E40E94AE
:101610001702DC01CB01F80180839183A283B3839D
:10162000FE01E35AFF4F608171818281938120E046
:1016300030E040E85FE30E941D04882344F4FE018B
:10164000E55AFF4F81E090E09183808364C0FE0102
:10165000E35AFF4F608171818281938120E03FEFE7
:101660004FE757E40E94BD0318160CF043C0FE017B
:10167000EF59FF4F608171818281938120E030E0DA
:1016800040E251E40E941702DC01CB018E01055AB1
:101690001F4FBC01CD010E944100DC01CB01F801CC
:1016A000918380831FC0FE01E75AFF4F88EC90E0D2
:1016B00091838083FE01E75AFF4F808191810197DA
:1016C000F1F7FE01E75AFF4F91838083DE01A55AAF
:1016D000BF4FFE01E55AFF4F80819181019711961E
:1016E0009C938E93FE01E55AFF4F80819181009774
:1016F000D1F627C08E01055A1F4FFE01E35AFF4F56
:1017000060817181828193810E944100DC01CB0163
:10171000F80191838083DE01A95ABF4FFE01E55A8B
:10172000FF4F808191818D939C93FE01E95AFF4F79
:10173000808191810197F1F7FE01E95AFF4F918372
:1017400080838CE30E94C809FE01ED5AFF4F80E0C0
:1017500090E0A0E2B2E480839183A283B3838E0100
:10176000015B1F4FFE01ED5AFF4F60817181828145
:1017700093812BEA3AEA4AE250E40E941702DC0124
:10178000CB01F80180839183A283B383FE01E15BE7
:10179000FF4F608171818281938120E030E040E8D9
:1017A0005FE30E941D04882334F4FE01E25BFF4FD7
:1017B00081E08083E0C0FE01E15BFF4F60817181C9
:1017C0008281938120E030E04FE753E40E94BD0323
:1017D00018160CF0C0C0FE01ED5AFF4F60817181F8
:1017E0008281938120E030E04AE754E40E941103B3
:1017F000DC01CB01FE01E65BFF4F80839183A28376
:10180000B3838E010A5B1F4FFE01E65BFF4F6081D1
:1018100071818281938120E030E04AEF54E40E949C
:101820001702DC01CB01F80180839183A283B3838B
:10183000FE01EA5BFF4F608171818281938120E02C
:1018400030E040E85FE30E941D04882344F4FE0179
:10185000EC5BFF4F81E090E09183808364C0FE01E8
:10186000EA5BFF4F608171818281938120E03FEFCD
:101870004FE757E40E94BD0318160CF043C0FE0169
:10188000E65BFF4F608171818281938120E030E0CF
:1018900040E251E40E941702DC01CB018E010C5B97
:1018A0001F4FBC01CD010E944100DC01CB01F801BA
:1018B000918380831FC0FE01EE5BFF4F88EC90E0B8
:1018C00091838083FE01EE5BFF4F808191810197C0
:1018D000F1F7FE01EE5BFF4F91838083DE01AC5B8D
:1018E000BF4FFE01EC5BFF4F808191810197119604
:1018F0009C938E93FE01EC5BFF4F8081918100975A
:10190000D1F642C08E010C5B1F4FFE01EA5BFF4F18
:1019100060817181828193810E944100DC01CB0151
:10192000F80191838083DE01A05CBF4FFE01EC5B78
:10193000FF4F8081918111969C938E93FE01E05C14
:10194000FF4F808191810197F1F7FE01E05CFF4F2D
:101950009183808319C08E01025B1F4FFE01E15B02
:10196000FF4F60817181828193810E944100DC017F
:10197000CB01F8018083FE01E25BFF4F80818FAFD6
:101980008FAD8A95F1F78FAF8CE00E94C80980E097
:1019900090E0A0E2B2E48BAF9CAFADAFBEAF6BAD59
:1019A0007CAD8DAD9EAD2BEA3AEA4AE250E40E944E
:1019B0001702DC01CB018FAB98AFA9AFBAAF6FA90B
:1019C00078AD89AD9AAD20E030E040E85FE30E9459
:1019D0001D0488231CF481E08EAB91C06FA978AD03
:1019E00089AD9AAD20E030E04FE753E40E94BD039B
:1019F00018160CF07BC06BAD7CAD8DAD9EAD20E0BC
:101A000030E04AE754E40E941103DC01CB018AABC9
:101A10009BABACABBDAB6AA97BA98CA99DA920E00F
:101A200030E04AEF54E40E941702DC01CB018EA79C
:101A30009FA7A8ABB9AB6EA57FA588A999A920E0FF
:101A400030E040E85FE30E941D0488232CF481E02D
:101A500090E09DA78CA73FC06EA57FA588A999A9F6
:101A600020E03FEF4FE757E40E94BD0318164CF506
:101A70006AA97BA98CA99DA920E030E040E251E44D
:101A80000E941702DC01CB01BC01CD010E94410084
:101A9000DC01CB019DA78CA70FC088EC90E09BA731
:101AA0008AA78AA59BA50197F1F79BA78AA78CA572
:101AB0009DA501979DA78CA78CA59DA5009769F76B
:101AC00024C06EA57FA588A999A90E944100DC01C8
:101AD000CB019DA78CA78CA59DA599A788A788A5B4
:101AE00099A50197F1F799A788A70FC06FA978ADBD
:101AF00089AD9AAD0E944100DC01CB018EAB8EA96D
:101B00008FA38FA18A95F1F78FA386E00E94C80961
:101B100080E090E0A0E2B2E48BA39CA3ADA3BEA3BF
:101B20006BA17CA18DA19EA12BEA3AEA4AE250E486
:101B30000E941702DC01CB018F8F98A3A9A3BAA33F
:101B40006F8D78A189A19AA120E030E040E85FE3A1
:101B50000E941D0488231CF481E08E8F91C06F8D3C
:101B600078A189A19AA120E030E04FE753E40E94D8
:101B7000BD0318160CF07BC06BA17CA18DA19EA1AA
:101B800020E030E04AE754E40E941103DC01CB017D
:101B90008A8F9B8FAC8FBD8F6A8D7B8D8C8D9D8D39
:101BA00020E030E04AEF54E40E941702DC01CB0150
:101BB0008E8B9F8BA88FB98F6E897F89888D998D29
:101BC00020E030E040E85FE30E941D0488232CF40D
:101BD00081E090E09D8B8C8B3FC06E897F89888DE2
:101BE000998D20E03FEF4FE757E40E94BD031816A0
:101BF0004CF56A8D7B8D8C8D9D8D20E030E040E230
:101C000051E40E941702DC01CB01BC01CD010E940E
:101C10004100DC01CB019D8B8C8B0FC088EC90E0E8
:101C20009B8B8A8B8A899B890197F1F79B8B8A8B87
:101C30008C899D8901979D8B8C8B8C899D890097C0
:101C400069F724C06E897F89888D998D0E94410033
:101C5000DC01CB019D8B8C8B8C899D89998B888B2A
:101C6000888999890197F1F7998B888B0FC06F8DBF
:101C700078A189A19AA10E944100DC01CB018E8F3D
:101C80008E8D8F878F858A95F1F78F8781E00E94EF
:101C9000C80980E090E0A0E0B0E48B879C87AD8726
:101CA000BE876B857C858D859E8520E030E04AEF80
:101CB00054E40E941702DC01CB018F839887A98727
:101CC000BA876F81788589859A8520E030E040E881
:101CD0005FE30E941D0488232CF481E090E09E8342
:101CE0008D833FC06F81788589859A8520E03FEF9D
:101CF0004FE757E40E94BD0318164CF56B857C85B1
:101D00008D859E8520E030E040E251E40E9417027C
:101D1000DC01CB01BC01CD010E944100DC01CB0103
:101D20009E838D830FC088EC90E09C838B838B8196
:101D30009C810197F1F79C838B838D819E81019714
:101D40009E838D838D819E81009769F714C06F817A
:101D5000788589859A850E944100DC01CB019E83AC
:101D60008D838D819E819A83898389819A81019750
:101D7000F1F79A838983CC59DF4F0FB6F894DEBF11
:101D80000FBECDBFCF91DF911F910F910895DF93CB
:101D9000CF93CDB7DEB76D970FB6F894DEBF0FBE09
:101DA000CDBF8D8F83E060E041E00E94880780E036
:101DB0006D8D0E94880883E061E041E00E94880701
:101DC00080E090E0A0E8BFE3898F9A8FAB8FBC8F53
:101DD000698D7A8D8B8D9C8D20E030E04AEF54E444
:101DE0000E941702DC01CB018D8B9E8BAF8BB88FCD
:101DF0006D897E898F89988D20E030E040E85FE32F
:101E00000E941D0488232CF481E090E09C8B8B8B36
:101E10003FC06D897E898F89988D20E03FEF4FE725
:101E200057E40E94BD0318164CF5698D7A8D8B8D91
:101E30009C8D20E030E040E251E40E941702DC017A
:101E4000CB01BC01CD010E944100DC01CB019C8B88
:101E50008B8B0FC088EC90E09A8B898B89899A894B
:101E60000197F1F79A8B898B8B899C8901979C8BC1
:101E70008B8B8B899C89009769F714C06D897E894B
:101E80008F89988D0E944100DC01CB019C8B8B8B4C
:101E90008B899C89988B8F878F8598890197F1F71B
:101EA000988B8F8783E061E040E00E94880780E0A4
:101EB00090E0A0E0B0E48B879C87AD87BE876B8500
:101EC0007C858D859E8520E030E04AEF54E40E94B9
:101ED0001702DC01CB018F839887A987BA876F81AE
:101EE000788589859A8520E030E040E85FE30E94AC
:101EF0001D0488232CF481E090E09E838D833FC0F5
:101F00006F81788589859A8520E03FEF4FE757E418
:101F10000E94BD0318164CF56B857C858D859E85CA
:101F200020E030E040E251E40E941702DC01CB01E6
:101F3000BC01CD010E944100DC01CB019E838D8359
:101F40000FC088EC90E09C838B838B819C810197F0
:101F5000F1F79C838B838D819E8101979E838D8376
:101F60008D819E81009769F714C06F81788589857E
:101F70009A850E944100DC01CB019E838D838D8177
:101F80009E819A83898389819A810197F1F79A8347
:101F900089836D960FB6F894DEBF0FBECDBFCF918B
:101FA000DF910895DF93CF93CDB7DEB76B970FB670
:101FB000F894DEBF0FBECDBF9B8F8A8F198ED2C023
:101FC000898D8F3019F480EC0E94C809898D282FE3
:101FD00030E08A8D9B8DFC01E20FF31F80810E940F
:101FE000C70E80E090E0A0E8BFE38D8B9E8BAF8BA7
:101FF000B88F6D897E898F89988D2BEA3AEA4AE2FB
:1020000050E40E941702DC01CB01898B9A8BAB8BC9
:10201000BC8B69897A898B899C8920E030E040E813
:102020005FE30E941D0488231CF481E0888B91C02B
:1020300069897A898B899C8920E030E04FE753E4F5
:102040000E94BD0318160CF07BC06D897E898F89B4
:10205000988D20E030E04AE754E40E941103DC014F
:10206000CB018C879D87AE87BF876C857D858E85EC
:102070009F8520E030E04AEF54E40E941702DC0123
:10208000CB0188879987AA87BB87688579858A85E8
:102090009B8520E030E040E85FE30E941D04882338
:1020A0002CF481E090E09F838E833FC06885798522
:1020B0008A859B8520E03FEF4FE757E40E94BD03F0
:1020C00018164CF56C857D858E859F8520E030E067
:1020D00040E251E40E941702DC01CB01BC01CD01BA
:1020E0000E944100DC01CB019F838E830FC088ECEE
:1020F00090E09D838C838C819D810197F1F79D8376
:102100008C838E819F8101979F838E838E819F8197
:10211000009769F724C0688579858A859B850E9428
:102120004100DC01CB019F838E838E819F819B8345
:102130008A838A819B810197F1F79B838A830FC0F1
:1021400069897A898B899C890E944100DC01CB01D5
:10215000888B8889898389818A95F1F78983898D1C
:102160008F5F898F898D282F30E08A8D9B8DFC01B0
:10217000E20FF31F8081882309F022CF6B960FB600
:10218000F894DEBF0FBECDBFCF91DF910895DF93EE
:10219000CF9300D000D0CDB7DEB78B836C8381E0C6
:1021A00090E09A83898312C08B81282F30E0898147
:1021B0009A81AC01429FC001439F900D529F900DA8
:1021C00011249A8389838C8181508C838C8188230C
:1021D00059F789819A810F900F900F900F90CF91AE
:1021E000DF9108950F931F93DF93CF9300D000D01A
:1021F00000D0CDB7DEB79E838D838D819E81009701
:1022000021F480E30E94C70E5DC01C821B821A82EB
:1022100003C08A818F5F8A838AE06A810E94C71027
:102220009C018D819E81B9010E94BF12CB01009754
:1022300081F78A818150898327C08D819E812AE020
:1022400030E0B9010E94BF128C0199818AE0692FA8
:102250000E94C710089F9001099F300D189F300DF4
:1022600011248B819C81820F931F9C838B838D8192
:102270009E812AE030E0B9010E94BF12CB019E830B
:102280008D8389818150898389818823B4F617C021
:102290008B819C812AE030E0B9010E94BF12805DF1
:1022A0000E94C70E8B819C812AE030E0B9010E9418
:1022B000BF12CB019C838B838A8181508A838A8160
:1022C000882331F726960FB6F894DEBF0FBECDBF38
:1022D000CF91DF911F910F910895DF93CF9300D09D
:1022E0000F92CDB7DEB78A836B8319828A818823E8
:1022F00019F480E8898305C08A81813011F480EC6B
:1023000089838B81803120F489819B81890F898326
:1023100089810E94C8090F900F900F90CF91DF9193
:102320000895DF93CF93CDB7DEB781E00E94C8094F
:10233000CF91DF910895DF93CF93CDB7DEB760974C
:102340000FB6F894DEBF0FBECDBF0E94D30A80E463
:102350000E94C80984E00E94C70E81E10E94C70E56
:1023600080E00E94C70E85E10E94C70E85E10E94B1
:10237000C70E8AE10E94C70E80E00E94C70E80E06F
:102380000E94C70E80E00E94C70E80E00E94C70E28
:1023900080E00E94C70E84E00E94C70E8AE00E947F
:1023A000C70E8FE10E94C70E8AE00E94C70E84E02C
:1023B0000E94C70E84E00E94C70E84E00E94C70EF0
:1023C00084E00E94C70E84E00E94C70E84E00E9451
:1023D000C70E87E00E94C70E80E00E94C70E80E013
:1023E0000E94C70E80E00E94C70E80E00E94C70EC8
:1023F00081E10E94C70E81E10E94C70E8FE10E9419
:10240000C70E84E00E94C70E80E00E94C70E80E0E5
:102410000E94C70E188A1F8688898D3021F4188A79
:102420008F858F5F8F878F85282F21709FE0888908
:10243000981B822F692F0E946D1180E00E94C70EA9
:102440008F85282F21709EE08889981B822F692F05
:102450000E946D1181E00E94C70E8F85282F217088
:102460009DE08889981B822F692F0E946D1182E060
:102470000E94C70E8F85282F21709CE08889981BA9
:10248000822F692F0E946D1183E00E94C70E8889F8
:102490008F5F888B80E090E0AAE7B3E48B879C870E
:1024A000AD87BE876B857C858D859E8520E030E07D
:1024B0004AEF54E40E941702DC01CB018F83988716
:1024C000A987BA876F81788589859A8520E030E071
:1024D00040E85FE30E941D0488232CF481E090E033
:1024E0009E838D833FC06F81788589859A8520E0A2
:1024F0003FEF4FE757E40E94BD0318164CF56B857C
:102500007C858D859E8520E030E040E251E40E948C
:102510001702DC01CB01BC01CD010E944100DC01AE
:10252000CB019E838D830FC088EC90E09C838B83CE
:102530008B819C810197F1F79C838B838D819E8198
:1025400001979E838D838D819E81009769F714C0CA
:102550006F81788589859A850E944100DC01CB01D5
:102560009E838D838D819E819A83898389819A81BF
:102570000197F1F79A8389830E9491114DCFAA1B8D
:10258000BB1B51E107C0AA1FBB1FA617B70710F05E
:10259000A61BB70B881F991F5A95A9F78095909590
:1025A000BC01CD0108952F923F924F925F926F929E
:1025B0007F928F929F92AF92BF92CF92DF92EF92D3
:1025C000FF920F931F93CF93DF93CDB7DEB7CA1B54
:1025D000DB0B0FB6F894DEBF0FBECDBF09942A887F
:1025E000398848885F846E847D848C849B84AA8427
:1025F000B984C884DF80EE80FD800C811B81AA81B4
:10260000B981CE0FD11D0FB6F894DEBF0FBECDBF7E
:08261000ED010895F894FFCFDD
:082618000000000000000000BA
:00000001FF
